{
	"data": {
		"bytecode": {
			"linkReferences": {},
			"object": "608060405234801562000010575f80fd5b50604051620053f1380380620053f183398181016040528101906200003691906200024a565b8282826001600381905550825f908162000051919062000518565b50816001908162000063919062000518565b508060025f6101000a81548160ff021916908360ff160217905550505050505050620005fc565b5f604051905090565b5f80fd5b5f80fd5b5f80fd5b5f80fd5b5f601f19601f8301169050919050565b7f4e487b71000000000000000000000000000000000000000000000000000000005f52604160045260245ffd5b620000eb82620000a3565b810181811067ffffffffffffffff821117156200010d576200010c620000b3565b5b80604052505050565b5f620001216200008a565b90506200012f8282620000e0565b919050565b5f67ffffffffffffffff821115620001515762000150620000b3565b5b6200015c82620000a3565b9050602081019050919050565b5f5b83811015620001885780820151818401526020810190506200016b565b5f8484015250505050565b5f620001a9620001a38462000134565b62000116565b905082815260208101848484011115620001c857620001c76200009f565b5b620001d584828562000169565b509392505050565b5f82601f830112620001f457620001f36200009b565b5b81516200020684826020860162000193565b91505092915050565b5f60ff82169050919050565b62000226816200020f565b811462000231575f80fd5b50565b5f8151905062000244816200021b565b92915050565b5f805f6060848603121562000264576200026362000093565b5b5f84015167ffffffffffffffff81111562000284576200028362000097565b5b6200029286828701620001dd565b935050602084015167ffffffffffffffff811115620002b657620002b562000097565b5b620002c486828701620001dd565b9250506040620002d78682870162000234565b9150509250925092565b5f81519050919050565b7f4e487b71000000000000000000000000000000000000000000000000000000005f52602260045260245ffd5b5f60028204905060018216806200033057607f821691505b602082108103620003465762000345620002eb565b5b50919050565b5f819050815f5260205f209050919050565b5f6020601f8301049050919050565b5f82821b905092915050565b5f60088302620003aa7fffffffffffffffffffffffffffffffffffffffffffffffffffffffffffffffff826200036d565b620003b686836200036d565b95508019841693508086168417925050509392505050565b5f819050919050565b5f819050919050565b5f62000400620003fa620003f484620003ce565b620003d7565b620003ce565b9050919050565b5f819050919050565b6200041b83620003e0565b620004336200042a8262000407565b84845462000379565b825550505050565b5f90565b620004496200043b565b6200045681848462000410565b505050565b5b818110156200047d57620004715f826200043f565b6001810190506200045c565b5050565b601f821115620004cc5762000496816200034c565b620004a1846200035e565b81016020851015620004b1578190505b620004c9620004c0856200035e565b8301826200045b565b50505b505050565b5f82821c905092915050565b5f620004ee5f1984600802620004d1565b1980831691505092915050565b5f620005088383620004dd565b9150826002028217905092915050565b6200052382620002e1565b67ffffffffffffffff8111156200053f576200053e620000b3565b5b6200054b825462000318565b6200055882828562000481565b5f60209050601f8311600181146200058e575f841562000579578287015190505b620005858582620004fb565b865550620005f4565b601f1984166200059e866200034c565b5f5b82811015620005c757848901518255600182019150602085019450602081019050620005a0565b86831015620005e75784890151620005e3601f891682620004dd565b8355505b6001600288020188555050505b505050505050565b614de7806200060a5f395ff3fe6080604052600436106101b6575f3560e01c80636352211e116100eb578063a647e8ec11610089578063e345e0bc11610063578063e345e0bc1461060c578063e8a3d48514610648578063e985e9c514610672578063f0e88e7f146106ae576101b6565b8063a647e8ec1461058c578063b88d4fde146105b4578063c87b56dd146105d0576101b6565b80638cb0a511116100c55780638cb0a511146104e257806395d89b41146104fe5780639cc7f70814610528578063a22cb46514610564576101b6565b80636352211e1461044057806370a082311461047c578063840f7113146104b8576101b6565b806323b872dd11610158578063310ed7f011610132578063310ed7f0146103a25780633e7e8669146103be57806342842e0e146103e85780634f6ccce714610404576101b6565b806323b872dd1461030e578063263f3e7e1461032a5780632f745c5914610366576101b6565b8063095ea7b311610194578063095ea7b31461025c57806309c3dd87146102785780630f485c02146102b457806318160ddd146102e4576101b6565b806301ffc9a7146101ba57806306fdde03146101f6578063081812fc14610220575b5f80fd5b3480156101c5575f80fd5b506101e060048036038101906101db919061342b565b6106d6565b6040516101ed9190613470565b60405180910390f35b348015610201575f80fd5b5061020a610947565b6040516102179190613513565b60405180910390f35b34801561022b575f80fd5b5061024660048036038101906102419190613566565b6109d6565b60405161025391906135d0565b60405180910390f35b61027660048036038101906102719190613613565b610a3b565b005b348015610283575f80fd5b5061029e60048036038101906102999190613566565b610b51565b6040516102ab9190613513565b60405180910390f35b6102ce60048036038101906102c99190613651565b610ca3565b6040516102db91906136b0565b60405180910390f35b3480156102ef575f80fd5b506102f8610ce7565b60405161030591906136b0565b60405180910390f35b610328600480360381019061032391906136c9565b610cf3565b005b348015610335575f80fd5b50610350600480360381019061034b9190613566565b610d53565b60405161035d91906136b0565b60405180910390f35b348015610371575f80fd5b5061038c60048036038101906103879190613613565b610d99565b60405161039991906136b0565b60405180910390f35b6103bc60048036038101906103b79190613719565b610e46565b005b3480156103c9575f80fd5b506103d2610e68565b6040516103df9190613784565b60405180910390f35b61040260048036038101906103fd91906136c9565b610e7d565b005b34801561040f575f80fd5b5061042a60048036038101906104259190613566565b610e9c565b60405161043791906136b0565b60405180910390f35b34801561044b575f80fd5b5061046660048036038101906104619190613566565b610f10565b60405161047391906135d0565b60405180910390f35b348015610487575f80fd5b506104a2600480360381019061049d919061379d565b610fe3565b6040516104af91906136b0565b60405180910390f35b3480156104c3575f80fd5b506104cc61109c565b6040516104d99190613823565b60405180910390f35b6104fc60048036038101906104f79190613651565b6110c1565b005b348015610509575f80fd5b5061051261119c565b60405161051f9190613513565b60405180910390f35b348015610533575f80fd5b5061054e60048036038101906105499190613566565b61122c565b60405161055b91906136b0565b60405180910390f35b34801561056f575f80fd5b5061058a60048036038101906105859190613866565b611272565b005b348015610597575f80fd5b506105b260048036038101906105ad91906138a4565b611288565b005b6105ce60048036038101906105c99190613a34565b61129a565b005b3480156105db575f80fd5b506105f660048036038101906105f19190613566565b6112fc565b6040516106039190613513565b60405180910390f35b348015610617575f80fd5b50610632600480360381019061062d9190613ab4565b611457565b60405161063f91906136b0565b60405180910390f35b348015610653575f80fd5b5061065c6114b6565b6040516106699190613513565b60405180910390f35b34801561067d575f80fd5b5061069860048036038101906106939190613af2565b6115fb565b6040516106a59190613470565b60405180910390f35b3480156106b9575f80fd5b506106d460048036038101906106cf9190613b30565b61168c565b005b5f7f01ffc9a7000000000000000000000000000000000000000000000000000000007bffffffffffffffffffffffffffffffffffffffffffffffffffffffff1916827bffffffffffffffffffffffffffffffffffffffffffffffffffffffff191614806107a057507fd5358140000000000000000000000000000000000000000000000000000000007bffffffffffffffffffffffffffffffffffffffffffffffffffffffff1916827bffffffffffffffffffffffffffffffffffffffffffffffffffffffff1916145b8061080857507f80ac58cd000000000000000000000000000000000000000000000000000000007bffffffffffffffffffffffffffffffffffffffffffffffffffffffff1916827bffffffffffffffffffffffffffffffffffffffffffffffffffffffff1916145b8061087057507fe1600902000000000000000000000000000000000000000000000000000000007bffffffffffffffffffffffffffffffffffffffffffffffffffffffff1916827bffffffffffffffffffffffffffffffffffffffffffffffffffffffff1916145b806108d857507f780e9d63000000000000000000000000000000000000000000000000000000007bffffffffffffffffffffffffffffffffffffffffffffffffffffffff1916827bffffffffffffffffffffffffffffffffffffffffffffffffffffffff1916145b8061094057507f5b5e139f000000000000000000000000000000000000000000000000000000007bffffffffffffffffffffffffffffffffffffffffffffffffffffffff1916827bffffffffffffffffffffffffffffffffffffffffffffffffffffffff1916145b9050919050565b60605f805461095590613b9b565b80601f016020809104026020016040519081016040528092919081815260200182805461098190613b9b565b80156109cc5780601f106109a3576101008083540402835291602001916109cc565b820191905f5260205f20905b8154815290600101906020018083116109af57829003601f168201915b5050505050905090565b5f6109e08261169a565b600560065f8481526020019081526020015f205481548110610a0557610a04613bcb565b5b905f5260205f2090600602016004015f9054906101000a900473ffffffffffffffffffffffffffffffffffffffff169050919050565b5f610a4582610f10565b90508073ffffffffffffffffffffffffffffffffffffffff168373ffffffffffffffffffffffffffffffffffffffff1603610ab5576040517f08c379a0000000000000000000000000000000000000000000000000000000008152600401610aac90613c68565b60405180910390fd5b8073ffffffffffffffffffffffffffffffffffffffff16610ad46116e5565b73ffffffffffffffffffffffffffffffffffffffff161480610b035750610b0281610afd6116e5565b6115fb565b5b610b42576040517f08c379a0000000000000000000000000000000000000000000000000000000008152600401610b3990613cf6565b60405180910390fd5b610b4c83836116ec565b505050565b60605f610b5c6117c5565b90505f73ffffffffffffffffffffffffffffffffffffffff1660085f9054906101000a900473ffffffffffffffffffffffffffffffffffffffff1673ffffffffffffffffffffffffffffffffffffffff1603610bfe575f815111610bce5760405180602001604052805f815250610bf9565b80610bd8846117db565b604051602001610be9929190613d98565b6040516020818303038152906040525b610c9b565b60085f9054906101000a900473ffffffffffffffffffffffffffffffffffffffff1673ffffffffffffffffffffffffffffffffffffffff16636c037f8a846040518263ffffffff1660e01b8152600401610c5891906136b0565b5f60405180830381865afa158015610c72573d5f803e3d5ffd5b505050506040513d5f823e3d601f19601f82011682018060405250810190610c9a9190613e64565b5b915050919050565b5f610cb6610caf6116e5565b85846118a5565b610cbf8461194e565b9050610cd58382610ccf87610d53565b5f61195e565b610ce0848284611a8e565b9392505050565b5f600580549050905090565b610d04610cfe6116e5565b82611d94565b610d43576040517f08c379a0000000000000000000000000000000000000000000000000000000008152600401610d3a90613f1b565b60405180910390fd5b610d4e838383611e28565b505050565b5f610d5d8261169a565b600560065f8481526020019081526020015f205481548110610d8257610d81613bcb565b5b905f5260205f209060060201600101549050919050565b5f610da383610fe3565b8210610de4576040517f08c379a0000000000000000000000000000000000000000000000000000000008152600401610ddb90613fa9565b60405180910390fd5b60075f8473ffffffffffffffffffffffffffffffffffffffff1673ffffffffffffffffffffffffffffffffffffffff1681526020019081526020015f205f018281548110610e3557610e34613bcb565b5b905f5260205f200154905092915050565b610e58610e516116e5565b84836118a5565b610e63838383611a8e565b505050565b5f60025f9054906101000a900460ff16905090565b610e9783838360405180602001604052805f81525061129a565b505050565b5f610ea5610ce7565b8210610ee6576040517f08c379a0000000000000000000000000000000000000000000000000000000008152600401610edd90614037565b60405180910390fd5b60058281548110610efa57610ef9613bcb565b5b905f5260205f2090600602015f01549050919050565b5f610f1a8261169a565b600560065f8481526020019081526020015f205481548110610f3f57610f3e613bcb565b5b905f5260205f2090600602016003015f9054906101000a900473ffffffffffffffffffffffffffffffffffffffff1690505f73ffffffffffffffffffffffffffffffffffffffff168173ffffffffffffffffffffffffffffffffffffffff1603610fde576040517f08c379a0000000000000000000000000000000000000000000000000000000008152600401610fd59061409f565b60405180910390fd5b919050565b5f8073ffffffffffffffffffffffffffffffffffffffff168273ffffffffffffffffffffffffffffffffffffffff1603611052576040517f08c379a00000000000000000000000000000000000000000000000000000000081526004016110499061412d565b60405180910390fd5b60075f8373ffffffffffffffffffffffffffffffffffffffff1673ffffffffffffffffffffffffffffffffffffffff1681526020019081526020015f205f01805490509050919050565b60085f9054906101000a900473ffffffffffffffffffffffffffffffffffffffff1681565b5f6110cb84610f10565b90508073ffffffffffffffffffffffffffffffffffffffff168373ffffffffffffffffffffffffffffffffffffffff160361113b576040517f08c379a000000000000000000000000000000000000000000000000000000000815260040161113290613c68565b60405180910390fd5b61114c6111466116e5565b85611d94565b61118b576040517f08c379a0000000000000000000000000000000000000000000000000000000008152600401611182906141bb565b60405180910390fd5b611196848484611fc9565b50505050565b6060600180546111ab90613b9b565b80601f01602080910402602001604051908101604052809291908181526020018280546111d790613b9b565b80156112225780601f106111f957610100808354040283529160200191611222565b820191905f5260205f20905b81548152906001019060200180831161120557829003601f168201915b5050505050905090565b5f6112368261169a565b600560065f8481526020019081526020015f20548154811061125b5761125a613bcb565b5b905f5260205f209060060201600201549050919050565b61128461127d6116e5565b838361217d565b5050565b6112948484848461195e565b50505050565b6112ab6112a56116e5565b83611d94565b6112ea576040517f08c379a00000000000000000000000000000000000000000000000000000000081526004016112e190613f1b565b60405180910390fd5b6112f6848484846122e7565b50505050565b60606113078261169a565b5f6113106117c5565b90505f73ffffffffffffffffffffffffffffffffffffffff1660085f9054906101000a900473ffffffffffffffffffffffffffffffffffffffff1673ffffffffffffffffffffffffffffffffffffffff16036113b2575f8151116113825760405180602001604052805f8152506113ad565b8061138c846117db565b60405160200161139d9291906141d9565b6040516020818303038152906040525b61144f565b60085f9054906101000a900473ffffffffffffffffffffffffffffffffffffffff1673ffffffffffffffffffffffffffffffffffffffff1663894b4c2e846040518263ffffffff1660e01b815260040161140c91906136b0565b5f60405180830381865afa158015611426573d5f803e3d5ffd5b505050506040513d5f823e3d601f19601f8201168201806040525081019061144e9190613e64565b5b915050919050565b5f6114618361169a565b60045f8481526020019081526020015f205f8373ffffffffffffffffffffffffffffffffffffffff1673ffffffffffffffffffffffffffffffffffffffff1681526020019081526020015f2054905092915050565b60605f6114c16117c5565b90505f73ffffffffffffffffffffffffffffffffffffffff1660085f9054906101000a900473ffffffffffffffffffffffffffffffffffffffff1673ffffffffffffffffffffffffffffffffffffffff1603611563575f8151116115335760405180602001604052805f81525061155e565b8061153d30612343565b60405160200161154e929190614246565b6040516020818303038152906040525b6115f5565b60085f9054906101000a900473ffffffffffffffffffffffffffffffffffffffff1673ffffffffffffffffffffffffffffffffffffffff1663725fa09c6040518163ffffffff1660e01b81526004015f60405180830381865afa1580156115cc573d5f803e3d5ffd5b505050506040513d5f823e3d601f19601f820116820180604052508101906115f49190613e64565b5b91505090565b5f60075f8473ffffffffffffffffffffffffffffffffffffffff1673ffffffffffffffffffffffffffffffffffffffff1681526020019081526020015f206002015f8373ffffffffffffffffffffffffffffffffffffffff1673ffffffffffffffffffffffffffffffffffffffff1681526020019081526020015f205f9054906101000a900460ff16905092915050565b6116968282612370565b5050565b6116a3816123b4565b6116e2576040517f08c379a00000000000000000000000000000000000000000000000000000000081526004016116d99061409f565b60405180910390fd5b50565b5f33905090565b81600560065f8481526020019081526020015f20548154811061171257611711613bcb565b5b905f5260205f2090600602016004015f6101000a81548173ffffffffffffffffffffffffffffffffffffffff021916908373ffffffffffffffffffffffffffffffffffffffff160217905550808273ffffffffffffffffffffffffffffffffffffffff1661177f83610f10565b73ffffffffffffffffffffffffffffffffffffffff167f8c5be1e5ebec7d5bd14f71427d1e84f3dd0314c0f7b2291e5b200ac8c7c3b92560405160405180910390a45050565b606060405180602001604052805f815250905090565b60605f60016117e984612403565b0190505f8167ffffffffffffffff81111561180757611806613910565b5b6040519080825280601f01601f1916602001820160405280156118395781602001600182028036833780820191505090505b5090505f82602001820190505b60011561189a578080600190039150507f3031323334353637383961626364656600000000000000000000000000000000600a86061a8153600a858161188f5761188e614274565b5b0494505f8503611846575b819350505050919050565b5f6118b08385611457565b90506118bc8484611d94565b1580156118e957507fffffffffffffffffffffffffffffffffffffffffffffffffffffffffffffffff8114155b156119485781811015611931576040517f08c379a0000000000000000000000000000000000000000000000000000000008152600401611928906142eb565b60405180910390fd5b611947838584846119429190614336565b611fc9565b5b50505050565b5f611957612554565b9050919050565b5f73ffffffffffffffffffffffffffffffffffffffff168473ffffffffffffffffffffffffffffffffffffffff16036119cc576040517f08c379a00000000000000000000000000000000000000000000000000000000081526004016119c3906143d9565b60405180910390fd5b5f8303611a0e576040517f08c379a0000000000000000000000000000000000000000000000000000000008152600401611a0590614467565b60405180910390fd5b611a17836123b4565b15611a57576040517f08c379a0000000000000000000000000000000000000000000000000000000008152600401611a4e906144cf565b60405180910390fd5b611a655f855f868686612570565b611a70848484612578565b611a7a83826126bf565b611a885f855f868686612746565b50505050565b611a97836123b4565b611ad6576040517f08c379a0000000000000000000000000000000000000000000000000000000008152600401611acd9061455d565b60405180910390fd5b611adf826123b4565b611b1e576040517f08c379a0000000000000000000000000000000000000000000000000000000008152600401611b15906145eb565b60405180910390fd5b5f600560065f8681526020019081526020015f205481548110611b4457611b43613bcb565b5b905f5260205f20906006020190505f600560065f8681526020019081526020015f205481548110611b7857611b77613bcb565b5b905f5260205f20906006020190508282600201541015611bcd576040517f08c379a0000000000000000000000000000000000000000000000000000000008152600401611bc490614679565b60405180910390fd5b8060010154826001015414611c17576040517f08c379a0000000000000000000000000000000000000000000000000000000008152600401611c0e90614707565b60405180910390fd5b611c6f826003015f9054906101000a900473ffffffffffffffffffffffffffffffffffffffff16826003015f9054906101000a900473ffffffffffffffffffffffffffffffffffffffff168787866001015488612570565b82826002015f828254611c829190614336565b9250508190555082816002015f828254611c9c9190614725565b9250508190555083857f0b2aac84f3ec956911fd78eae5311062972ff949f38412e8da39069d9f068cc685604051611cd491906136b0565b60405180910390a3611d34826003015f9054906101000a900473ffffffffffffffffffffffffffffffffffffffff16826003015f9054906101000a900473ffffffffffffffffffffffffffffffffffffffff168787866001015488612746565b611d4e85858560405180602001604052805f81525061274e565b611d8d576040517f08c379a0000000000000000000000000000000000000000000000000000000008152600401611d84906147c8565b60405180910390fd5b5050505050565b5f80611d9f83610f10565b90508073ffffffffffffffffffffffffffffffffffffffff168473ffffffffffffffffffffffffffffffffffffffff161480611de15750611de081856115fb565b5b80611e1f57508373ffffffffffffffffffffffffffffffffffffffff16611e07846109d6565b73ffffffffffffffffffffffffffffffffffffffff16145b91505092915050565b8273ffffffffffffffffffffffffffffffffffffffff16611e4882610f10565b73ffffffffffffffffffffffffffffffffffffffff1614611e9e576040517f08c379a0000000000000000000000000000000000000000000000000000000008152600401611e9590614856565b60405180910390fd5b5f73ffffffffffffffffffffffffffffffffffffffff168273ffffffffffffffffffffffffffffffffffffffff1603611f0c576040517f08c379a0000000000000000000000000000000000000000000000000000000008152600401611f03906148e4565b60405180910390fd5b5f611f1682610d53565b90505f611f228361122c565b9050611f32858585868686612570565b611f3c5f846116ec565b611f4583612934565b611f4f8584612a36565b611f598484612bb4565b828473ffffffffffffffffffffffffffffffffffffffff168673ffffffffffffffffffffffffffffffffffffffff167fddf252ad1be2c89b69c2b068fc378daa952ba7f163c4a11628f55a4df523b3ef60405160405180910390a4611fc2858585868686612746565b5050505050565b5f73ffffffffffffffffffffffffffffffffffffffff168273ffffffffffffffffffffffffffffffffffffffff1603612037576040517f08c379a000000000000000000000000000000000000000000000000000000000815260040161202e90614972565b60405180910390fd5b6120418284612d23565b6120d857600560065f8581526020019081526020015f20548154811061206a57612069613bcb565b5b905f5260205f20906006020160050182908060018154018082558091505060019003905f5260205f20015f9091909190916101000a81548173ffffffffffffffffffffffffffffffffffffffff021916908373ffffffffffffffffffffffffffffffffffffffff1602179055505b8060045f8581526020019081526020015f205f8473ffffffffffffffffffffffffffffffffffffffff1673ffffffffffffffffffffffffffffffffffffffff1681526020019081526020015f20819055508173ffffffffffffffffffffffffffffffffffffffff16837f621b050de0ad08b51d19b48b3e6df75348c4de6bdd93e81b252ca62e28265b1b8360405161217091906136b0565b60405180910390a3505050565b8173ffffffffffffffffffffffffffffffffffffffff168373ffffffffffffffffffffffffffffffffffffffff16036121eb576040517f08c379a00000000000000000000000000000000000000000000000000000000081526004016121e2906149da565b60405180910390fd5b8060075f8573ffffffffffffffffffffffffffffffffffffffff1673ffffffffffffffffffffffffffffffffffffffff1681526020019081526020015f206002015f8473ffffffffffffffffffffffffffffffffffffffff1673ffffffffffffffffffffffffffffffffffffffff1681526020019081526020015f205f6101000a81548160ff0219169083151502179055508173ffffffffffffffffffffffffffffffffffffffff168373ffffffffffffffffffffffffffffffffffffffff167f17307eab39ab6107e8899845ad3d59bd9653f200f220920489ca2b5937696c31836040516122da9190613470565b60405180910390a3505050565b6122f2848484611e28565b6122fe84848484612e33565b61233d576040517f08c379a000000000000000000000000000000000000000000000000000000000815260040161233490614a68565b60405180910390fd5b50505050565b60606123698273ffffffffffffffffffffffffffffffffffffffff16601460ff16612f9f565b9050919050565b5f61237a83610f10565b90505f61238684610d53565b90506123965f835f878588612570565b6123a084846126bf565b6123ae5f835f878588612746565b50505050565b5f80600580549050141580156123fc575081600560065f8581526020019081526020015f2054815481106123eb576123ea613bcb565b5b905f5260205f2090600602015f0154145b9050919050565b5f805f90507a184f03e93ff9f4daa797ed6e38ed64bf6a1f010000000000000000831061245f577a184f03e93ff9f4daa797ed6e38ed64bf6a1f010000000000000000838161245557612454614274565b5b0492506040810190505b6d04ee2d6d415b85acef8100000000831061249c576d04ee2d6d415b85acef8100000000838161249257612491614274565b5b0492506020810190505b662386f26fc1000083106124cb57662386f26fc1000083816124c1576124c0614274565b5b0492506010810190505b6305f5e10083106124f4576305f5e10083816124ea576124e9614274565b5b0492506008810190505b612710831061251957612710838161250f5761250e614274565b5b0492506004810190505b6064831061253c576064838161253257612531614274565b5b0492506002810190505b600a831061254b576001810190505b80915050919050565b5f60035f81548092919061256790614a86565b91905055905090565b505050505050565b5f6040518060c001604052808481526020018381526020015f81526020018573ffffffffffffffffffffffffffffffffffffffff1681526020015f73ffffffffffffffffffffffffffffffffffffffff1681526020015f67ffffffffffffffff8111156125e8576125e7613910565b5b6040519080825280602002602001820160405280156126165781602001602082028036833780820191505090505b508152509050612625816131dd565b61262f8484612bb4565b828473ffffffffffffffffffffffffffffffffffffffff165f73ffffffffffffffffffffffffffffffffffffffff167fddf252ad1be2c89b69c2b068fc378daa952ba7f163c4a11628f55a4df523b3ef60405160405180910390a4815f847fe4f48c240d3b994948aa54f3e2f5fca59263dfe1d52b6e4cf39a5d249b5ccb6560405160405180910390a450505050565b80600560065f8581526020019081526020015f2054815481106126e5576126e4613bcb565b5b905f5260205f2090600602016002015f8282546127029190614725565b92505081905550815f7f0b2aac84f3ec956911fd78eae5311062972ff949f38412e8da39069d9f068cc68360405161273a91906136b0565b60405180910390a35050565b505050505050565b5f8061275985610f10565b9050612764816132ee565b15612926578073ffffffffffffffffffffffffffffffffffffffff166301ffc9a77e9ce20b000000000000000000000000000000000000000000000000000000006040518263ffffffff1660e01b81526004016127c19190614adc565b602060405180830381865afa9250505080156127fb57506040513d601f19601f820116820180604052508101906127f89190614b09565b60015b61283a573d805f8114612829576040519150601f19603f3d011682016040523d82523d5f602084013e61282e565b606091505b5060019250505061292c565b801561291b575f8273ffffffffffffffffffffffffffffffffffffffff16629ce20b6128646116e5565b8a8a8a8a6040518663ffffffff1660e01b8152600401612888959493929190614b86565b6020604051808303815f875af11580156128a4573d5f803e3d5ffd5b505050506040513d601f19601f820116820180604052508101906128c89190614bf2565b9050629ce20b60e01b7bffffffffffffffffffffffffffffffffffffffffffffffffffffffff1916817bffffffffffffffffffffffffffffffffffffffffffffffffffffffff191614935050505061292c565b60019250505061292c565b60019150505b949350505050565b5f600560065f8481526020019081526020015f20548154811061295a57612959613bcb565b5b905f5260205f20906006020190505f816005018054905090505f5b81811015612a21575f83600501828154811061299457612993613bcb565b5b905f5260205f20015f9054906101000a900473ffffffffffffffffffffffffffffffffffffffff16905060045f8681526020019081526020015f205f8273ffffffffffffffffffffffffffffffffffffffff1673ffffffffffffffffffffffffffffffffffffffff1681526020019081526020015f205f9055508080612a1990614a86565b915050612975565b50816005015f612a319190613305565b505050565b5f600560065f8481526020019081526020015f205481548110612a5c57612a5b613bcb565b5b905f5260205f2090600602016003015f6101000a81548173ffffffffffffffffffffffffffffffffffffffff021916908373ffffffffffffffffffffffffffffffffffffffff1602179055505f60075f8473ffffffffffffffffffffffffffffffffffffffff1673ffffffffffffffffffffffffffffffffffffffff1681526020019081526020015f2090505f6001825f0180549050612afc9190614336565b90505f825f018281548110612b1457612b13613bcb565b5b905f5260205f20015490505f836001015f8681526020019081526020015f2054905081845f018281548110612b4c57612b4b613bcb565b5b905f5260205f20018190555080846001015f8481526020019081526020015f2081905550836001015f8681526020019081526020015f205f9055835f01805480612b9957612b98614c1d565b5b600190038181905f5260205f20015f90559055505050505050565b81600560065f8481526020019081526020015f205481548110612bda57612bd9613bcb565b5b905f5260205f2090600602016003015f6101000a81548173ffffffffffffffffffffffffffffffffffffffff021916908373ffffffffffffffffffffffffffffffffffffffff16021790555060075f8373ffffffffffffffffffffffffffffffffffffffff1673ffffffffffffffffffffffffffffffffffffffff1681526020019081526020015f205f018054905060075f8473ffffffffffffffffffffffffffffffffffffffff1673ffffffffffffffffffffffffffffffffffffffff1681526020019081526020015f206001015f8381526020019081526020015f208190555060075f8373ffffffffffffffffffffffffffffffffffffffff1673ffffffffffffffffffffffffffffffffffffffff1681526020019081526020015f205f0181908060018154018082558091505060019003905f5260205f20015f90919091909150555050565b5f80600560065f8581526020019081526020015f205481548110612d4a57612d49613bcb565b5b905f5260205f2090600602016005018054905090505f5b81811015612e27578473ffffffffffffffffffffffffffffffffffffffff16600560065f8781526020019081526020015f205481548110612da557612da4613bcb565b5b905f5260205f2090600602016005018281548110612dc657612dc5613bcb565b5b905f5260205f20015f9054906101000a900473ffffffffffffffffffffffffffffffffffffffff1673ffffffffffffffffffffffffffffffffffffffff1603612e1457600192505050612e2d565b8080612e1f90614a86565b915050612d61565b505f9150505b92915050565b5f612e3d846132ee565b15612f92578373ffffffffffffffffffffffffffffffffffffffff1663150b7a02612e666116e5565b8786866040518563ffffffff1660e01b8152600401612e889493929190614c4a565b6020604051808303815f875af1925050508015612ec357506040513d601f19601f82011682018060405250810190612ec09190614bf2565b60015b612f42573d805f8114612ef1576040519150601f19603f3d011682016040523d82523d5f602084013e612ef6565b606091505b505f815103612f3a576040517f08c379a0000000000000000000000000000000000000000000000000000000008152600401612f3190614d04565b60405180910390fd5b805181602001fd5b63150b7a0260e01b7bffffffffffffffffffffffffffffffffffffffffffffffffffffffff1916817bffffffffffffffffffffffffffffffffffffffffffffffffffffffff191614915050612f97565b600190505b949350505050565b60605f8390505f6002846002612fb59190614d22565b612fbf9190614725565b67ffffffffffffffff811115612fd857612fd7613910565b5b6040519080825280601f01601f19166020018201604052801561300a5781602001600182028036833780820191505090505b5090507f3000000000000000000000000000000000000000000000000000000000000000815f8151811061304157613040613bcb565b5b60200101907effffffffffffffffffffffffffffffffffffffffffffffffffffffffffffff191690815f1a9053507f7800000000000000000000000000000000000000000000000000000000000000816001815181106130a4576130a3613bcb565b5b60200101907effffffffffffffffffffffffffffffffffffffffffffffffffffffffffffff191690815f1a9053505f60018560026130e29190614d22565b6130ec9190614725565b90505b600181111561318b577f3031323334353637383961626364656600000000000000000000000000000000600f84166010811061312e5761312d613bcb565b5b1a60f81b82828151811061314557613144613bcb565b5b60200101907effffffffffffffffffffffffffffffffffffffffffffffffffffffffffffff191690815f1a905350600483901c92508061318490614d63565b90506130ef565b505f82146131d25784846040517fe22e27eb0000000000000000000000000000000000000000000000000000000081526004016131c9929190614d8a565b60405180910390fd5b809250505092915050565b60058054905060065f835f015181526020019081526020015f2081905550600581908060018154018082558091505060019003905f5260205f2090600602015f909190919091505f820151815f015560208201518160010155604082015181600201556060820151816003015f6101000a81548173ffffffffffffffffffffffffffffffffffffffff021916908373ffffffffffffffffffffffffffffffffffffffff1602179055506080820151816004015f6101000a81548173ffffffffffffffffffffffffffffffffffffffff021916908373ffffffffffffffffffffffffffffffffffffffff16021790555060a08201518160050190805190602001906132e8929190613323565b50505050565b5f80823b90505f8163ffffffff1611915050919050565b5080545f8255905f5260205f209081019061332091906133aa565b50565b828054828255905f5260205f20908101928215613399579160200282015b82811115613398578251825f6101000a81548173ffffffffffffffffffffffffffffffffffffffff021916908373ffffffffffffffffffffffffffffffffffffffff16021790555091602001919060010190613341565b5b5090506133a691906133aa565b5090565b5b808211156133c1575f815f9055506001016133ab565b5090565b5f604051905090565b5f80fd5b5f80fd5b5f7fffffffff0000000000000000000000000000000000000000000000000000000082169050919050565b61340a816133d6565b8114613414575f80fd5b50565b5f8135905061342581613401565b92915050565b5f602082840312156134405761343f6133ce565b5b5f61344d84828501613417565b91505092915050565b5f8115159050919050565b61346a81613456565b82525050565b5f6020820190506134835f830184613461565b92915050565b5f81519050919050565b5f82825260208201905092915050565b5f5b838110156134c05780820151818401526020810190506134a5565b5f8484015250505050565b5f601f19601f8301169050919050565b5f6134e582613489565b6134ef8185613493565b93506134ff8185602086016134a3565b613508816134cb565b840191505092915050565b5f6020820190508181035f83015261352b81846134db565b905092915050565b5f819050919050565b61354581613533565b811461354f575f80fd5b50565b5f813590506135608161353c565b92915050565b5f6020828403121561357b5761357a6133ce565b5b5f61358884828501613552565b91505092915050565b5f73ffffffffffffffffffffffffffffffffffffffff82169050919050565b5f6135ba82613591565b9050919050565b6135ca816135b0565b82525050565b5f6020820190506135e35f8301846135c1565b92915050565b6135f2816135b0565b81146135fc575f80fd5b50565b5f8135905061360d816135e9565b92915050565b5f8060408385031215613629576136286133ce565b5b5f613636858286016135ff565b925050602061364785828601613552565b9150509250929050565b5f805f60608486031215613668576136676133ce565b5b5f61367586828701613552565b9350506020613686868287016135ff565b925050604061369786828701613552565b9150509250925092565b6136aa81613533565b82525050565b5f6020820190506136c35f8301846136a1565b92915050565b5f805f606084860312156136e0576136df6133ce565b5b5f6136ed868287016135ff565b93505060206136fe868287016135ff565b925050604061370f86828701613552565b9150509250925092565b5f805f606084860312156137305761372f6133ce565b5b5f61373d86828701613552565b935050602061374e86828701613552565b925050604061375f86828701613552565b9150509250925092565b5f60ff82169050919050565b61377e81613769565b82525050565b5f6020820190506137975f830184613775565b92915050565b5f602082840312156137b2576137b16133ce565b5b5f6137bf848285016135ff565b91505092915050565b5f819050919050565b5f6137eb6137e66137e184613591565b6137c8565b613591565b9050919050565b5f6137fc826137d1565b9050919050565b5f61380d826137f2565b9050919050565b61381d81613803565b82525050565b5f6020820190506138365f830184613814565b92915050565b61384581613456565b811461384f575f80fd5b50565b5f813590506138608161383c565b92915050565b5f806040838503121561387c5761387b6133ce565b5b5f613889858286016135ff565b925050602061389a85828601613852565b9150509250929050565b5f805f80608085870312156138bc576138bb6133ce565b5b5f6138c9878288016135ff565b94505060206138da87828801613552565b93505060406138eb87828801613552565b92505060606138fc87828801613552565b91505092959194509250565b5f80fd5b5f80fd5b7f4e487b71000000000000000000000000000000000000000000000000000000005f52604160045260245ffd5b613946826134cb565b810181811067ffffffffffffffff8211171561396557613964613910565b5b80604052505050565b5f6139776133c5565b9050613983828261393d565b919050565b5f67ffffffffffffffff8211156139a2576139a1613910565b5b6139ab826134cb565b9050602081019050919050565b828183375f83830152505050565b5f6139d86139d384613988565b61396e565b9050828152602081018484840111156139f4576139f361390c565b5b6139ff8482856139b8565b509392505050565b5f82601f830112613a1b57613a1a613908565b5b8135613a2b8482602086016139c6565b91505092915050565b5f805f8060808587031215613a4c57613a4b6133ce565b5b5f613a59878288016135ff565b9450506020613a6a878288016135ff565b9350506040613a7b87828801613552565b925050606085013567ffffffffffffffff811115613a9c57613a9b6133d2565b5b613aa887828801613a07565b91505092959194509250565b5f8060408385031215613aca57613ac96133ce565b5b5f613ad785828601613552565b9250506020613ae8858286016135ff565b9150509250929050565b5f8060408385031215613b0857613b076133ce565b5b5f613b15858286016135ff565b9250506020613b26858286016135ff565b9150509250929050565b5f8060408385031215613b4657613b456133ce565b5b5f613b5385828601613552565b9250506020613b6485828601613552565b9150509250929050565b7f4e487b71000000000000000000000000000000000000000000000000000000005f52602260045260245ffd5b5f6002820490506001821680613bb257607f821691505b602082108103613bc557613bc4613b6e565b5b50919050565b7f4e487b71000000000000000000000000000000000000000000000000000000005f52603260045260245ffd5b7f455243333532353a20617070726f76616c20746f2063757272656e74206f776e5f8201527f6572000000000000000000000000000000000000000000000000000000000000602082015250565b5f613c52602283613493565b9150613c5d82613bf8565b604082019050919050565b5f6020820190508181035f830152613c7f81613c46565b9050919050565b7f455243333532353a20617070726f76652063616c6c6572206973206e6f74206f5f8201527f776e6572206e6f7220617070726f76656420666f7220616c6c00000000000000602082015250565b5f613ce0603983613493565b9150613ceb82613c86565b604082019050919050565b5f6020820190508181035f830152613d0d81613cd4565b9050919050565b5f81905092915050565b5f613d2882613489565b613d328185613d14565b9350613d428185602086016134a3565b80840191505092915050565b7f736c6f742f0000000000000000000000000000000000000000000000000000005f82015250565b5f613d82600583613d14565b9150613d8d82613d4e565b600582019050919050565b5f613da38285613d1e565b9150613dae82613d76565b9150613dba8284613d1e565b91508190509392505050565b5f67ffffffffffffffff821115613de057613ddf613910565b5b613de9826134cb565b9050602081019050919050565b5f613e08613e0384613dc6565b61396e565b905082815260208101848484011115613e2457613e2361390c565b5b613e2f8482856134a3565b509392505050565b5f82601f830112613e4b57613e4a613908565b5b8151613e5b848260208601613df6565b91505092915050565b5f60208284031215613e7957613e786133ce565b5b5f82015167ffffffffffffffff811115613e9657613e956133d2565b5b613ea284828501613e37565b91505092915050565b7f455243333532353a207472616e736665722063616c6c6572206973206e6f74205f8201527f6f776e6572206e6f7220617070726f7665640000000000000000000000000000602082015250565b5f613f05603283613493565b9150613f1082613eab565b604082019050919050565b5f6020820190508181035f830152613f3281613ef9565b9050919050565b7f455243333532353a206f776e657220696e646578206f7574206f6620626f756e5f8201527f6473000000000000000000000000000000000000000000000000000000000000602082015250565b5f613f93602283613493565b9150613f9e82613f39565b604082019050919050565b5f6020820190508181035f830152613fc081613f87565b9050919050565b7f455243333532353a20676c6f62616c20696e646578206f7574206f6620626f755f8201527f6e64730000000000000000000000000000000000000000000000000000000000602082015250565b5f614021602383613493565b915061402c82613fc7565b604082019050919050565b5f6020820190508181035f83015261404e81614015565b9050919050565b7f455243333532353a20696e76616c696420746f6b656e204944000000000000005f82015250565b5f614089601983613493565b915061409482614055565b602082019050919050565b5f6020820190508181035f8301526140b68161407d565b9050919050565b7f455243333532353a2062616c616e636520717565727920666f7220746865207a5f8201527f65726f2061646472657373000000000000000000000000000000000000000000602082015250565b5f614117602b83613493565b9150614122826140bd565b604082019050919050565b5f6020820190508181035f8301526141448161410b565b9050919050565b7f455243333532353a20617070726f76652063616c6c6572206973206e6f74206f5f8201527f776e6572206e6f7220617070726f766564000000000000000000000000000000602082015250565b5f6141a5603183613493565b91506141b08261414b565b604082019050919050565b5f6020820190508181035f8301526141d281614199565b9050919050565b5f6141e48285613d1e565b91506141f08284613d1e565b91508190509392505050565b7f636f6e74726163742f00000000000000000000000000000000000000000000005f82015250565b5f614230600983613d14565b915061423b826141fc565b600982019050919050565b5f6142518285613d1e565b915061425c82614224565b91506142688284613d1e565b91508190509392505050565b7f4e487b71000000000000000000000000000000000000000000000000000000005f52601260045260245ffd5b7f455243333532353a20696e73756666696369656e7420616c6c6f77616e6365005f82015250565b5f6142d5601f83613493565b91506142e0826142a1565b602082019050919050565b5f6020820190508181035f830152614302816142c9565b9050919050565b7f4e487b71000000000000000000000000000000000000000000000000000000005f52601160045260245ffd5b5f61434082613533565b915061434b83613533565b925082820390508181111561436357614362614309565b5b92915050565b7f455243333532353a206d696e7420746f20746865207a65726f206164647265735f8201527f7300000000000000000000000000000000000000000000000000000000000000602082015250565b5f6143c3602183613493565b91506143ce82614369565b604082019050919050565b5f6020820190508181035f8301526143f0816143b7565b9050919050565b7f455243333532353a2063616e6e6f74206d696e74207a65726f20746f6b656e495f8201527f6400000000000000000000000000000000000000000000000000000000000000602082015250565b5f614451602183613493565b915061445c826143f7565b604082019050919050565b5f6020820190508181035f83015261447e81614445565b9050919050565b7f455243333532353a20746f6b656e20616c7265616479206d696e7465640000005f82015250565b5f6144b9601d83613493565b91506144c482614485565b602082019050919050565b5f6020820190508181035f8301526144e6816144ad565b9050919050565b7f455243333532353a207472616e736665722066726f6d20696e76616c696420745f8201527f6f6b656e20494400000000000000000000000000000000000000000000000000602082015250565b5f614547602783613493565b9150614552826144ed565b604082019050919050565b5f6020820190508181035f8301526145748161453b565b9050919050565b7f455243333532353a207472616e7366657220746f20696e76616c696420746f6b5f8201527f656e204944000000000000000000000000000000000000000000000000000000602082015250565b5f6145d5602583613493565b91506145e08261457b565b604082019050919050565b5f6020820190508181035f830152614602816145c9565b9050919050565b7f455243333532353a20696e73756666696369656e742062616c616e636520666f5f8201527f72207472616e7366657200000000000000000000000000000000000000000000602082015250565b5f614663602a83613493565b915061466e82614609565b604082019050919050565b5f6020820190508181035f83015261469081614657565b9050919050565b7f455243333532353a207472616e7366657220746f20746f6b656e2077697468205f8201527f646966666572656e7420736c6f74000000000000000000000000000000000000602082015250565b5f6146f1602e83613493565b91506146fc82614697565b604082019050919050565b5f6020820190508181035f83015261471e816146e5565b9050919050565b5f61472f82613533565b915061473a83613533565b925082820190508082111561475257614751614309565b5b92915050565b7f455243333532353a207472616e736665722072656a65637465642062792045525f8201527f4333353235526563656976657200000000000000000000000000000000000000602082015250565b5f6147b2602d83613493565b91506147bd82614758565b604082019050919050565b5f6020820190508181035f8301526147df816147a6565b9050919050565b7f455243333532353a207472616e736665722066726f6d20696e76616c6964206f5f8201527f776e657200000000000000000000000000000000000000000000000000000000602082015250565b5f614840602483613493565b915061484b826147e6565b604082019050919050565b5f6020820190508181035f83015261486d81614834565b9050919050565b7f455243333532353a207472616e7366657220746f20746865207a65726f2061645f8201527f6472657373000000000000000000000000000000000000000000000000000000602082015250565b5f6148ce602583613493565b91506148d982614874565b604082019050919050565b5f6020820190508181035f8301526148fb816148c2565b9050919050565b7f455243333532353a20617070726f76652076616c756520746f20746865207a655f8201527f726f206164647265737300000000000000000000000000000000000000000000602082015250565b5f61495c602a83613493565b915061496782614902565b604082019050919050565b5f6020820190508181035f83015261498981614950565b9050919050565b7f455243333532353a20617070726f766520746f2063616c6c65720000000000005f82015250565b5f6149c4601a83613493565b91506149cf82614990565b602082019050919050565b5f6020820190508181035f8301526149f1816149b8565b9050919050565b7f455243333532353a207472616e7366657220746f206e6f6e20455243373231525f8201527f6563656976657200000000000000000000000000000000000000000000000000602082015250565b5f614a52602783613493565b9150614a5d826149f8565b604082019050919050565b5f6020820190508181035f830152614a7f81614a46565b9050919050565b5f614a9082613533565b91507fffffffffffffffffffffffffffffffffffffffffffffffffffffffffffffffff8203614ac257614ac1614309565b5b600182019050919050565b614ad6816133d6565b82525050565b5f602082019050614aef5f830184614acd565b92915050565b5f81519050614b038161383c565b92915050565b5f60208284031215614b1e57614b1d6133ce565b5b5f614b2b84828501614af5565b91505092915050565b5f81519050919050565b5f82825260208201905092915050565b5f614b5882614b34565b614b628185614b3e565b9350614b728185602086016134a3565b614b7b816134cb565b840191505092915050565b5f60a082019050614b995f8301886135c1565b614ba660208301876136a1565b614bb360408301866136a1565b614bc060608301856136a1565b8181036080830152614bd28184614b4e565b90509695505050505050565b5f81519050614bec81613401565b92915050565b5f60208284031215614c0757614c066133ce565b5b5f614c1484828501614bde565b91505092915050565b7f4e487b71000000000000000000000000000000000000000000000000000000005f52603160045260245ffd5b5f608082019050614c5d5f8301876135c1565b614c6a60208301866135c1565b614c7760408301856136a1565b8181036060830152614c898184614b4e565b905095945050505050565b7f4552433732313a207472616e7366657220746f206e6f6e2045524337323152655f8201527f63656976657220696d706c656d656e7465720000000000000000000000000000602082015250565b5f614cee603283613493565b9150614cf982614c94565b604082019050919050565b5f6020820190508181035f830152614d1b81614ce2565b9050919050565b5f614d2c82613533565b9150614d3783613533565b9250828202614d4581613533565b91508282048414831517614d5c57614d5b614309565b5b5092915050565b5f614d6d82613533565b91505f8203614d7f57614d7e614309565b5b600182039050919050565b5f604082019050614d9d5f8301856136a1565b614daa60208301846136a1565b939250505056fea264697066735822122072b17529fde9a47400ebd0f7a7494413c3e988ea4055940c4fd249dbc79a3cc364736f6c63430008140033",
			"opcodes": "PUSH1 0x80 PUSH1 0x40 MSTORE CALLVALUE DUP1 ISZERO PUSH3 0x10 JUMPI PUSH0 DUP1 REVERT JUMPDEST POP PUSH1 0x40 MLOAD PUSH3 0x53F1 CODESIZE SUB DUP1 PUSH3 0x53F1 DUP4 CODECOPY DUP2 DUP2 ADD PUSH1 0x40 MSTORE DUP2 ADD SWAP1 PUSH3 0x36 SWAP2 SWAP1 PUSH3 0x24A JUMP JUMPDEST DUP3 DUP3 DUP3 PUSH1 0x1 PUSH1 0x3 DUP2 SWAP1 SSTORE POP DUP3 PUSH0 SWAP1 DUP2 PUSH3 0x51 SWAP2 SWAP1 PUSH3 0x518 JUMP JUMPDEST POP DUP2 PUSH1 0x1 SWAP1 DUP2 PUSH3 0x63 SWAP2 SWAP1 PUSH3 0x518 JUMP JUMPDEST POP DUP1 PUSH1 0x2 PUSH0 PUSH2 0x100 EXP DUP2 SLOAD DUP2 PUSH1 0xFF MUL NOT AND SWAP1 DUP4 PUSH1 0xFF AND MUL OR SWAP1 SSTORE POP POP POP POP POP POP POP PUSH3 0x5FC JUMP JUMPDEST PUSH0 PUSH1 0x40 MLOAD SWAP1 POP SWAP1 JUMP JUMPDEST PUSH0 DUP1 REVERT JUMPDEST PUSH0 DUP1 REVERT JUMPDEST PUSH0 DUP1 REVERT JUMPDEST PUSH0 DUP1 REVERT JUMPDEST PUSH0 PUSH1 0x1F NOT PUSH1 0x1F DUP4 ADD AND SWAP1 POP SWAP2 SWAP1 POP JUMP JUMPDEST PUSH32 0x4E487B7100000000000000000000000000000000000000000000000000000000 PUSH0 MSTORE PUSH1 0x41 PUSH1 0x4 MSTORE PUSH1 0x24 PUSH0 REVERT JUMPDEST PUSH3 0xEB DUP3 PUSH3 0xA3 JUMP JUMPDEST DUP2 ADD DUP2 DUP2 LT PUSH8 0xFFFFFFFFFFFFFFFF DUP3 GT OR ISZERO PUSH3 0x10D JUMPI PUSH3 0x10C PUSH3 0xB3 JUMP JUMPDEST JUMPDEST DUP1 PUSH1 0x40 MSTORE POP POP POP JUMP JUMPDEST PUSH0 PUSH3 0x121 PUSH3 0x8A JUMP JUMPDEST SWAP1 POP PUSH3 0x12F DUP3 DUP3 PUSH3 0xE0 JUMP JUMPDEST SWAP2 SWAP1 POP JUMP JUMPDEST PUSH0 PUSH8 0xFFFFFFFFFFFFFFFF DUP3 GT ISZERO PUSH3 0x151 JUMPI PUSH3 0x150 PUSH3 0xB3 JUMP JUMPDEST JUMPDEST PUSH3 0x15C DUP3 PUSH3 0xA3 JUMP JUMPDEST SWAP1 POP PUSH1 0x20 DUP2 ADD SWAP1 POP SWAP2 SWAP1 POP JUMP JUMPDEST PUSH0 JUMPDEST DUP4 DUP2 LT ISZERO PUSH3 0x188 JUMPI DUP1 DUP3 ADD MLOAD DUP2 DUP5 ADD MSTORE PUSH1 0x20 DUP2 ADD SWAP1 POP PUSH3 0x16B JUMP JUMPDEST PUSH0 DUP5 DUP5 ADD MSTORE POP POP POP POP JUMP JUMPDEST PUSH0 PUSH3 0x1A9 PUSH3 0x1A3 DUP5 PUSH3 0x134 JUMP JUMPDEST PUSH3 0x116 JUMP JUMPDEST SWAP1 POP DUP3 DUP2 MSTORE PUSH1 0x20 DUP2 ADD DUP5 DUP5 DUP5 ADD GT ISZERO PUSH3 0x1C8 JUMPI PUSH3 0x1C7 PUSH3 0x9F JUMP JUMPDEST JUMPDEST PUSH3 0x1D5 DUP5 DUP3 DUP6 PUSH3 0x169 JUMP JUMPDEST POP SWAP4 SWAP3 POP POP POP JUMP JUMPDEST PUSH0 DUP3 PUSH1 0x1F DUP4 ADD SLT PUSH3 0x1F4 JUMPI PUSH3 0x1F3 PUSH3 0x9B JUMP JUMPDEST JUMPDEST DUP2 MLOAD PUSH3 0x206 DUP5 DUP3 PUSH1 0x20 DUP7 ADD PUSH3 0x193 JUMP JUMPDEST SWAP2 POP POP SWAP3 SWAP2 POP POP JUMP JUMPDEST PUSH0 PUSH1 0xFF DUP3 AND SWAP1 POP SWAP2 SWAP1 POP JUMP JUMPDEST PUSH3 0x226 DUP2 PUSH3 0x20F JUMP JUMPDEST DUP2 EQ PUSH3 0x231 JUMPI PUSH0 DUP1 REVERT JUMPDEST POP JUMP JUMPDEST PUSH0 DUP2 MLOAD SWAP1 POP PUSH3 0x244 DUP2 PUSH3 0x21B JUMP JUMPDEST SWAP3 SWAP2 POP POP JUMP JUMPDEST PUSH0 DUP1 PUSH0 PUSH1 0x60 DUP5 DUP7 SUB SLT ISZERO PUSH3 0x264 JUMPI PUSH3 0x263 PUSH3 0x93 JUMP JUMPDEST JUMPDEST PUSH0 DUP5 ADD MLOAD PUSH8 0xFFFFFFFFFFFFFFFF DUP2 GT ISZERO PUSH3 0x284 JUMPI PUSH3 0x283 PUSH3 0x97 JUMP JUMPDEST JUMPDEST PUSH3 0x292 DUP7 DUP3 DUP8 ADD PUSH3 0x1DD JUMP JUMPDEST SWAP4 POP POP PUSH1 0x20 DUP5 ADD MLOAD PUSH8 0xFFFFFFFFFFFFFFFF DUP2 GT ISZERO PUSH3 0x2B6 JUMPI PUSH3 0x2B5 PUSH3 0x97 JUMP JUMPDEST JUMPDEST PUSH3 0x2C4 DUP7 DUP3 DUP8 ADD PUSH3 0x1DD JUMP JUMPDEST SWAP3 POP POP PUSH1 0x40 PUSH3 0x2D7 DUP7 DUP3 DUP8 ADD PUSH3 0x234 JUMP JUMPDEST SWAP2 POP POP SWAP3 POP SWAP3 POP SWAP3 JUMP JUMPDEST PUSH0 DUP2 MLOAD SWAP1 POP SWAP2 SWAP1 POP JUMP JUMPDEST PUSH32 0x4E487B7100000000000000000000000000000000000000000000000000000000 PUSH0 MSTORE PUSH1 0x22 PUSH1 0x4 MSTORE PUSH1 0x24 PUSH0 REVERT JUMPDEST PUSH0 PUSH1 0x2 DUP3 DIV SWAP1 POP PUSH1 0x1 DUP3 AND DUP1 PUSH3 0x330 JUMPI PUSH1 0x7F DUP3 AND SWAP2 POP JUMPDEST PUSH1 0x20 DUP3 LT DUP2 SUB PUSH3 0x346 JUMPI PUSH3 0x345 PUSH3 0x2EB JUMP JUMPDEST JUMPDEST POP SWAP2 SWAP1 POP JUMP JUMPDEST PUSH0 DUP2 SWAP1 POP DUP2 PUSH0 MSTORE PUSH1 0x20 PUSH0 KECCAK256 SWAP1 POP SWAP2 SWAP1 POP JUMP JUMPDEST PUSH0 PUSH1 0x20 PUSH1 0x1F DUP4 ADD DIV SWAP1 POP SWAP2 SWAP1 POP JUMP JUMPDEST PUSH0 DUP3 DUP3 SHL SWAP1 POP SWAP3 SWAP2 POP POP JUMP JUMPDEST PUSH0 PUSH1 0x8 DUP4 MUL PUSH3 0x3AA PUSH32 0xFFFFFFFFFFFFFFFFFFFFFFFFFFFFFFFFFFFFFFFFFFFFFFFFFFFFFFFFFFFFFFFF DUP3 PUSH3 0x36D JUMP JUMPDEST PUSH3 0x3B6 DUP7 DUP4 PUSH3 0x36D JUMP JUMPDEST SWAP6 POP DUP1 NOT DUP5 AND SWAP4 POP DUP1 DUP7 AND DUP5 OR SWAP3 POP POP POP SWAP4 SWAP3 POP POP POP JUMP JUMPDEST PUSH0 DUP2 SWAP1 POP SWAP2 SWAP1 POP JUMP JUMPDEST PUSH0 DUP2 SWAP1 POP SWAP2 SWAP1 POP JUMP JUMPDEST PUSH0 PUSH3 0x400 PUSH3 0x3FA PUSH3 0x3F4 DUP5 PUSH3 0x3CE JUMP JUMPDEST PUSH3 0x3D7 JUMP JUMPDEST PUSH3 0x3CE JUMP JUMPDEST SWAP1 POP SWAP2 SWAP1 POP JUMP JUMPDEST PUSH0 DUP2 SWAP1 POP SWAP2 SWAP1 POP JUMP JUMPDEST PUSH3 0x41B DUP4 PUSH3 0x3E0 JUMP JUMPDEST PUSH3 0x433 PUSH3 0x42A DUP3 PUSH3 0x407 JUMP JUMPDEST DUP5 DUP5 SLOAD PUSH3 0x379 JUMP JUMPDEST DUP3 SSTORE POP POP POP POP JUMP JUMPDEST PUSH0 SWAP1 JUMP JUMPDEST PUSH3 0x449 PUSH3 0x43B JUMP JUMPDEST PUSH3 0x456 DUP2 DUP5 DUP5 PUSH3 0x410 JUMP JUMPDEST POP POP POP JUMP JUMPDEST JUMPDEST DUP2 DUP2 LT ISZERO PUSH3 0x47D JUMPI PUSH3 0x471 PUSH0 DUP3 PUSH3 0x43F JUMP JUMPDEST PUSH1 0x1 DUP2 ADD SWAP1 POP PUSH3 0x45C JUMP JUMPDEST POP POP JUMP JUMPDEST PUSH1 0x1F DUP3 GT ISZERO PUSH3 0x4CC JUMPI PUSH3 0x496 DUP2 PUSH3 0x34C JUMP JUMPDEST PUSH3 0x4A1 DUP5 PUSH3 0x35E JUMP JUMPDEST DUP2 ADD PUSH1 0x20 DUP6 LT ISZERO PUSH3 0x4B1 JUMPI DUP2 SWAP1 POP JUMPDEST PUSH3 0x4C9 PUSH3 0x4C0 DUP6 PUSH3 0x35E JUMP JUMPDEST DUP4 ADD DUP3 PUSH3 0x45B JUMP JUMPDEST POP POP JUMPDEST POP POP POP JUMP JUMPDEST PUSH0 DUP3 DUP3 SHR SWAP1 POP SWAP3 SWAP2 POP POP JUMP JUMPDEST PUSH0 PUSH3 0x4EE PUSH0 NOT DUP5 PUSH1 0x8 MUL PUSH3 0x4D1 JUMP JUMPDEST NOT DUP1 DUP4 AND SWAP2 POP POP SWAP3 SWAP2 POP POP JUMP JUMPDEST PUSH0 PUSH3 0x508 DUP4 DUP4 PUSH3 0x4DD JUMP JUMPDEST SWAP2 POP DUP3 PUSH1 0x2 MUL DUP3 OR SWAP1 POP SWAP3 SWAP2 POP POP JUMP JUMPDEST PUSH3 0x523 DUP3 PUSH3 0x2E1 JUMP JUMPDEST PUSH8 0xFFFFFFFFFFFFFFFF DUP2 GT ISZERO PUSH3 0x53F JUMPI PUSH3 0x53E PUSH3 0xB3 JUMP JUMPDEST JUMPDEST PUSH3 0x54B DUP3 SLOAD PUSH3 0x318 JUMP JUMPDEST PUSH3 0x558 DUP3 DUP3 DUP6 PUSH3 0x481 JUMP JUMPDEST PUSH0 PUSH1 0x20 SWAP1 POP PUSH1 0x1F DUP4 GT PUSH1 0x1 DUP2 EQ PUSH3 0x58E JUMPI PUSH0 DUP5 ISZERO PUSH3 0x579 JUMPI DUP3 DUP8 ADD MLOAD SWAP1 POP JUMPDEST PUSH3 0x585 DUP6 DUP3 PUSH3 0x4FB JUMP JUMPDEST DUP7 SSTORE POP PUSH3 0x5F4 JUMP JUMPDEST PUSH1 0x1F NOT DUP5 AND PUSH3 0x59E DUP7 PUSH3 0x34C JUMP JUMPDEST PUSH0 JUMPDEST DUP3 DUP2 LT ISZERO PUSH3 0x5C7 JUMPI DUP5 DUP10 ADD MLOAD DUP3 SSTORE PUSH1 0x1 DUP3 ADD SWAP2 POP PUSH1 0x20 DUP6 ADD SWAP5 POP PUSH1 0x20 DUP2 ADD SWAP1 POP PUSH3 0x5A0 JUMP JUMPDEST DUP7 DUP4 LT ISZERO PUSH3 0x5E7 JUMPI DUP5 DUP10 ADD MLOAD PUSH3 0x5E3 PUSH1 0x1F DUP10 AND DUP3 PUSH3 0x4DD JUMP JUMPDEST DUP4 SSTORE POP JUMPDEST PUSH1 0x1 PUSH1 0x2 DUP9 MUL ADD DUP9 SSTORE POP POP POP JUMPDEST POP POP POP POP POP POP JUMP JUMPDEST PUSH2 0x4DE7 DUP1 PUSH3 0x60A PUSH0 CODECOPY PUSH0 RETURN INVALID PUSH1 0x80 PUSH1 0x40 MSTORE PUSH1 0x4 CALLDATASIZE LT PUSH2 0x1B6 JUMPI PUSH0 CALLDATALOAD PUSH1 0xE0 SHR DUP1 PUSH4 0x6352211E GT PUSH2 0xEB JUMPI DUP1 PUSH4 0xA647E8EC GT PUSH2 0x89 JUMPI DUP1 PUSH4 0xE345E0BC GT PUSH2 0x63 JUMPI DUP1 PUSH4 0xE345E0BC EQ PUSH2 0x60C JUMPI DUP1 PUSH4 0xE8A3D485 EQ PUSH2 0x648 JUMPI DUP1 PUSH4 0xE985E9C5 EQ PUSH2 0x672 JUMPI DUP1 PUSH4 0xF0E88E7F EQ PUSH2 0x6AE JUMPI PUSH2 0x1B6 JUMP JUMPDEST DUP1 PUSH4 0xA647E8EC EQ PUSH2 0x58C JUMPI DUP1 PUSH4 0xB88D4FDE EQ PUSH2 0x5B4 JUMPI DUP1 PUSH4 0xC87B56DD EQ PUSH2 0x5D0 JUMPI PUSH2 0x1B6 JUMP JUMPDEST DUP1 PUSH4 0x8CB0A511 GT PUSH2 0xC5 JUMPI DUP1 PUSH4 0x8CB0A511 EQ PUSH2 0x4E2 JUMPI DUP1 PUSH4 0x95D89B41 EQ PUSH2 0x4FE JUMPI DUP1 PUSH4 0x9CC7F708 EQ PUSH2 0x528 JUMPI DUP1 PUSH4 0xA22CB465 EQ PUSH2 0x564 JUMPI PUSH2 0x1B6 JUMP JUMPDEST DUP1 PUSH4 0x6352211E EQ PUSH2 0x440 JUMPI DUP1 PUSH4 0x70A08231 EQ PUSH2 0x47C JUMPI DUP1 PUSH4 0x840F7113 EQ PUSH2 0x4B8 JUMPI PUSH2 0x1B6 JUMP JUMPDEST DUP1 PUSH4 0x23B872DD GT PUSH2 0x158 JUMPI DUP1 PUSH4 0x310ED7F0 GT PUSH2 0x132 JUMPI DUP1 PUSH4 0x310ED7F0 EQ PUSH2 0x3A2 JUMPI DUP1 PUSH4 0x3E7E8669 EQ PUSH2 0x3BE JUMPI DUP1 PUSH4 0x42842E0E EQ PUSH2 0x3E8 JUMPI DUP1 PUSH4 0x4F6CCCE7 EQ PUSH2 0x404 JUMPI PUSH2 0x1B6 JUMP JUMPDEST DUP1 PUSH4 0x23B872DD EQ PUSH2 0x30E JUMPI DUP1 PUSH4 0x263F3E7E EQ PUSH2 0x32A JUMPI DUP1 PUSH4 0x2F745C59 EQ PUSH2 0x366 JUMPI PUSH2 0x1B6 JUMP JUMPDEST DUP1 PUSH4 0x95EA7B3 GT PUSH2 0x194 JUMPI DUP1 PUSH4 0x95EA7B3 EQ PUSH2 0x25C JUMPI DUP1 PUSH4 0x9C3DD87 EQ PUSH2 0x278 JUMPI DUP1 PUSH4 0xF485C02 EQ PUSH2 0x2B4 JUMPI DUP1 PUSH4 0x18160DDD EQ PUSH2 0x2E4 JUMPI PUSH2 0x1B6 JUMP JUMPDEST DUP1 PUSH4 0x1FFC9A7 EQ PUSH2 0x1BA JUMPI DUP1 PUSH4 0x6FDDE03 EQ PUSH2 0x1F6 JUMPI DUP1 PUSH4 0x81812FC EQ PUSH2 0x220 JUMPI JUMPDEST PUSH0 DUP1 REVERT JUMPDEST CALLVALUE DUP1 ISZERO PUSH2 0x1C5 JUMPI PUSH0 DUP1 REVERT JUMPDEST POP PUSH2 0x1E0 PUSH1 0x4 DUP1 CALLDATASIZE SUB DUP2 ADD SWAP1 PUSH2 0x1DB SWAP2 SWAP1 PUSH2 0x342B JUMP JUMPDEST PUSH2 0x6D6 JUMP JUMPDEST PUSH1 0x40 MLOAD PUSH2 0x1ED SWAP2 SWAP1 PUSH2 0x3470 JUMP JUMPDEST PUSH1 0x40 MLOAD DUP1 SWAP2 SUB SWAP1 RETURN JUMPDEST CALLVALUE DUP1 ISZERO PUSH2 0x201 JUMPI PUSH0 DUP1 REVERT JUMPDEST POP PUSH2 0x20A PUSH2 0x947 JUMP JUMPDEST PUSH1 0x40 MLOAD PUSH2 0x217 SWAP2 SWAP1 PUSH2 0x3513 JUMP JUMPDEST PUSH1 0x40 MLOAD DUP1 SWAP2 SUB SWAP1 RETURN JUMPDEST CALLVALUE DUP1 ISZERO PUSH2 0x22B JUMPI PUSH0 DUP1 REVERT JUMPDEST POP PUSH2 0x246 PUSH1 0x4 DUP1 CALLDATASIZE SUB DUP2 ADD SWAP1 PUSH2 0x241 SWAP2 SWAP1 PUSH2 0x3566 JUMP JUMPDEST PUSH2 0x9D6 JUMP JUMPDEST PUSH1 0x40 MLOAD PUSH2 0x253 SWAP2 SWAP1 PUSH2 0x35D0 JUMP JUMPDEST PUSH1 0x40 MLOAD DUP1 SWAP2 SUB SWAP1 RETURN JUMPDEST PUSH2 0x276 PUSH1 0x4 DUP1 CALLDATASIZE SUB DUP2 ADD SWAP1 PUSH2 0x271 SWAP2 SWAP1 PUSH2 0x3613 JUMP JUMPDEST PUSH2 0xA3B JUMP JUMPDEST STOP JUMPDEST CALLVALUE DUP1 ISZERO PUSH2 0x283 JUMPI PUSH0 DUP1 REVERT JUMPDEST POP PUSH2 0x29E PUSH1 0x4 DUP1 CALLDATASIZE SUB DUP2 ADD SWAP1 PUSH2 0x299 SWAP2 SWAP1 PUSH2 0x3566 JUMP JUMPDEST PUSH2 0xB51 JUMP JUMPDEST PUSH1 0x40 MLOAD PUSH2 0x2AB SWAP2 SWAP1 PUSH2 0x3513 JUMP JUMPDEST PUSH1 0x40 MLOAD DUP1 SWAP2 SUB SWAP1 RETURN JUMPDEST PUSH2 0x2CE PUSH1 0x4 DUP1 CALLDATASIZE SUB DUP2 ADD SWAP1 PUSH2 0x2C9 SWAP2 SWAP1 PUSH2 0x3651 JUMP JUMPDEST PUSH2 0xCA3 JUMP JUMPDEST PUSH1 0x40 MLOAD PUSH2 0x2DB SWAP2 SWAP1 PUSH2 0x36B0 JUMP JUMPDEST PUSH1 0x40 MLOAD DUP1 SWAP2 SUB SWAP1 RETURN JUMPDEST CALLVALUE DUP1 ISZERO PUSH2 0x2EF JUMPI PUSH0 DUP1 REVERT JUMPDEST POP PUSH2 0x2F8 PUSH2 0xCE7 JUMP JUMPDEST PUSH1 0x40 MLOAD PUSH2 0x305 SWAP2 SWAP1 PUSH2 0x36B0 JUMP JUMPDEST PUSH1 0x40 MLOAD DUP1 SWAP2 SUB SWAP1 RETURN JUMPDEST PUSH2 0x328 PUSH1 0x4 DUP1 CALLDATASIZE SUB DUP2 ADD SWAP1 PUSH2 0x323 SWAP2 SWAP1 PUSH2 0x36C9 JUMP JUMPDEST PUSH2 0xCF3 JUMP JUMPDEST STOP JUMPDEST CALLVALUE DUP1 ISZERO PUSH2 0x335 JUMPI PUSH0 DUP1 REVERT JUMPDEST POP PUSH2 0x350 PUSH1 0x4 DUP1 CALLDATASIZE SUB DUP2 ADD SWAP1 PUSH2 0x34B SWAP2 SWAP1 PUSH2 0x3566 JUMP JUMPDEST PUSH2 0xD53 JUMP JUMPDEST PUSH1 0x40 MLOAD PUSH2 0x35D SWAP2 SWAP1 PUSH2 0x36B0 JUMP JUMPDEST PUSH1 0x40 MLOAD DUP1 SWAP2 SUB SWAP1 RETURN JUMPDEST CALLVALUE DUP1 ISZERO PUSH2 0x371 JUMPI PUSH0 DUP1 REVERT JUMPDEST POP PUSH2 0x38C PUSH1 0x4 DUP1 CALLDATASIZE SUB DUP2 ADD SWAP1 PUSH2 0x387 SWAP2 SWAP1 PUSH2 0x3613 JUMP JUMPDEST PUSH2 0xD99 JUMP JUMPDEST PUSH1 0x40 MLOAD PUSH2 0x399 SWAP2 SWAP1 PUSH2 0x36B0 JUMP JUMPDEST PUSH1 0x40 MLOAD DUP1 SWAP2 SUB SWAP1 RETURN JUMPDEST PUSH2 0x3BC PUSH1 0x4 DUP1 CALLDATASIZE SUB DUP2 ADD SWAP1 PUSH2 0x3B7 SWAP2 SWAP1 PUSH2 0x3719 JUMP JUMPDEST PUSH2 0xE46 JUMP JUMPDEST STOP JUMPDEST CALLVALUE DUP1 ISZERO PUSH2 0x3C9 JUMPI PUSH0 DUP1 REVERT JUMPDEST POP PUSH2 0x3D2 PUSH2 0xE68 JUMP JUMPDEST PUSH1 0x40 MLOAD PUSH2 0x3DF SWAP2 SWAP1 PUSH2 0x3784 JUMP JUMPDEST PUSH1 0x40 MLOAD DUP1 SWAP2 SUB SWAP1 RETURN JUMPDEST PUSH2 0x402 PUSH1 0x4 DUP1 CALLDATASIZE SUB DUP2 ADD SWAP1 PUSH2 0x3FD SWAP2 SWAP1 PUSH2 0x36C9 JUMP JUMPDEST PUSH2 0xE7D JUMP JUMPDEST STOP JUMPDEST CALLVALUE DUP1 ISZERO PUSH2 0x40F JUMPI PUSH0 DUP1 REVERT JUMPDEST POP PUSH2 0x42A PUSH1 0x4 DUP1 CALLDATASIZE SUB DUP2 ADD SWAP1 PUSH2 0x425 SWAP2 SWAP1 PUSH2 0x3566 JUMP JUMPDEST PUSH2 0xE9C JUMP JUMPDEST PUSH1 0x40 MLOAD PUSH2 0x437 SWAP2 SWAP1 PUSH2 0x36B0 JUMP JUMPDEST PUSH1 0x40 MLOAD DUP1 SWAP2 SUB SWAP1 RETURN JUMPDEST CALLVALUE DUP1 ISZERO PUSH2 0x44B JUMPI PUSH0 DUP1 REVERT JUMPDEST POP PUSH2 0x466 PUSH1 0x4 DUP1 CALLDATASIZE SUB DUP2 ADD SWAP1 PUSH2 0x461 SWAP2 SWAP1 PUSH2 0x3566 JUMP JUMPDEST PUSH2 0xF10 JUMP JUMPDEST PUSH1 0x40 MLOAD PUSH2 0x473 SWAP2 SWAP1 PUSH2 0x35D0 JUMP JUMPDEST PUSH1 0x40 MLOAD DUP1 SWAP2 SUB SWAP1 RETURN JUMPDEST CALLVALUE DUP1 ISZERO PUSH2 0x487 JUMPI PUSH0 DUP1 REVERT JUMPDEST POP PUSH2 0x4A2 PUSH1 0x4 DUP1 CALLDATASIZE SUB DUP2 ADD SWAP1 PUSH2 0x49D SWAP2 SWAP1 PUSH2 0x379D JUMP JUMPDEST PUSH2 0xFE3 JUMP JUMPDEST PUSH1 0x40 MLOAD PUSH2 0x4AF SWAP2 SWAP1 PUSH2 0x36B0 JUMP JUMPDEST PUSH1 0x40 MLOAD DUP1 SWAP2 SUB SWAP1 RETURN JUMPDEST CALLVALUE DUP1 ISZERO PUSH2 0x4C3 JUMPI PUSH0 DUP1 REVERT JUMPDEST POP PUSH2 0x4CC PUSH2 0x109C JUMP JUMPDEST PUSH1 0x40 MLOAD PUSH2 0x4D9 SWAP2 SWAP1 PUSH2 0x3823 JUMP JUMPDEST PUSH1 0x40 MLOAD DUP1 SWAP2 SUB SWAP1 RETURN JUMPDEST PUSH2 0x4FC PUSH1 0x4 DUP1 CALLDATASIZE SUB DUP2 ADD SWAP1 PUSH2 0x4F7 SWAP2 SWAP1 PUSH2 0x3651 JUMP JUMPDEST PUSH2 0x10C1 JUMP JUMPDEST STOP JUMPDEST CALLVALUE DUP1 ISZERO PUSH2 0x509 JUMPI PUSH0 DUP1 REVERT JUMPDEST POP PUSH2 0x512 PUSH2 0x119C JUMP JUMPDEST PUSH1 0x40 MLOAD PUSH2 0x51F SWAP2 SWAP1 PUSH2 0x3513 JUMP JUMPDEST PUSH1 0x40 MLOAD DUP1 SWAP2 SUB SWAP1 RETURN JUMPDEST CALLVALUE DUP1 ISZERO PUSH2 0x533 JUMPI PUSH0 DUP1 REVERT JUMPDEST POP PUSH2 0x54E PUSH1 0x4 DUP1 CALLDATASIZE SUB DUP2 ADD SWAP1 PUSH2 0x549 SWAP2 SWAP1 PUSH2 0x3566 JUMP JUMPDEST PUSH2 0x122C JUMP JUMPDEST PUSH1 0x40 MLOAD PUSH2 0x55B SWAP2 SWAP1 PUSH2 0x36B0 JUMP JUMPDEST PUSH1 0x40 MLOAD DUP1 SWAP2 SUB SWAP1 RETURN JUMPDEST CALLVALUE DUP1 ISZERO PUSH2 0x56F JUMPI PUSH0 DUP1 REVERT JUMPDEST POP PUSH2 0x58A PUSH1 0x4 DUP1 CALLDATASIZE SUB DUP2 ADD SWAP1 PUSH2 0x585 SWAP2 SWAP1 PUSH2 0x3866 JUMP JUMPDEST PUSH2 0x1272 JUMP JUMPDEST STOP JUMPDEST CALLVALUE DUP1 ISZERO PUSH2 0x597 JUMPI PUSH0 DUP1 REVERT JUMPDEST POP PUSH2 0x5B2 PUSH1 0x4 DUP1 CALLDATASIZE SUB DUP2 ADD SWAP1 PUSH2 0x5AD SWAP2 SWAP1 PUSH2 0x38A4 JUMP JUMPDEST PUSH2 0x1288 JUMP JUMPDEST STOP JUMPDEST PUSH2 0x5CE PUSH1 0x4 DUP1 CALLDATASIZE SUB DUP2 ADD SWAP1 PUSH2 0x5C9 SWAP2 SWAP1 PUSH2 0x3A34 JUMP JUMPDEST PUSH2 0x129A JUMP JUMPDEST STOP JUMPDEST CALLVALUE DUP1 ISZERO PUSH2 0x5DB JUMPI PUSH0 DUP1 REVERT JUMPDEST POP PUSH2 0x5F6 PUSH1 0x4 DUP1 CALLDATASIZE SUB DUP2 ADD SWAP1 PUSH2 0x5F1 SWAP2 SWAP1 PUSH2 0x3566 JUMP JUMPDEST PUSH2 0x12FC JUMP JUMPDEST PUSH1 0x40 MLOAD PUSH2 0x603 SWAP2 SWAP1 PUSH2 0x3513 JUMP JUMPDEST PUSH1 0x40 MLOAD DUP1 SWAP2 SUB SWAP1 RETURN JUMPDEST CALLVALUE DUP1 ISZERO PUSH2 0x617 JUMPI PUSH0 DUP1 REVERT JUMPDEST POP PUSH2 0x632 PUSH1 0x4 DUP1 CALLDATASIZE SUB DUP2 ADD SWAP1 PUSH2 0x62D SWAP2 SWAP1 PUSH2 0x3AB4 JUMP JUMPDEST PUSH2 0x1457 JUMP JUMPDEST PUSH1 0x40 MLOAD PUSH2 0x63F SWAP2 SWAP1 PUSH2 0x36B0 JUMP JUMPDEST PUSH1 0x40 MLOAD DUP1 SWAP2 SUB SWAP1 RETURN JUMPDEST CALLVALUE DUP1 ISZERO PUSH2 0x653 JUMPI PUSH0 DUP1 REVERT JUMPDEST POP PUSH2 0x65C PUSH2 0x14B6 JUMP JUMPDEST PUSH1 0x40 MLOAD PUSH2 0x669 SWAP2 SWAP1 PUSH2 0x3513 JUMP JUMPDEST PUSH1 0x40 MLOAD DUP1 SWAP2 SUB SWAP1 RETURN JUMPDEST CALLVALUE DUP1 ISZERO PUSH2 0x67D JUMPI PUSH0 DUP1 REVERT JUMPDEST POP PUSH2 0x698 PUSH1 0x4 DUP1 CALLDATASIZE SUB DUP2 ADD SWAP1 PUSH2 0x693 SWAP2 SWAP1 PUSH2 0x3AF2 JUMP JUMPDEST PUSH2 0x15FB JUMP JUMPDEST PUSH1 0x40 MLOAD PUSH2 0x6A5 SWAP2 SWAP1 PUSH2 0x3470 JUMP JUMPDEST PUSH1 0x40 MLOAD DUP1 SWAP2 SUB SWAP1 RETURN JUMPDEST CALLVALUE DUP1 ISZERO PUSH2 0x6B9 JUMPI PUSH0 DUP1 REVERT JUMPDEST POP PUSH2 0x6D4 PUSH1 0x4 DUP1 CALLDATASIZE SUB DUP2 ADD SWAP1 PUSH2 0x6CF SWAP2 SWAP1 PUSH2 0x3B30 JUMP JUMPDEST PUSH2 0x168C JUMP JUMPDEST STOP JUMPDEST PUSH0 PUSH32 0x1FFC9A700000000000000000000000000000000000000000000000000000000 PUSH28 0xFFFFFFFFFFFFFFFFFFFFFFFFFFFFFFFFFFFFFFFFFFFFFFFFFFFFFFFF NOT AND DUP3 PUSH28 0xFFFFFFFFFFFFFFFFFFFFFFFFFFFFFFFFFFFFFFFFFFFFFFFFFFFFFFFF NOT AND EQ DUP1 PUSH2 0x7A0 JUMPI POP PUSH32 0xD535814000000000000000000000000000000000000000000000000000000000 PUSH28 0xFFFFFFFFFFFFFFFFFFFFFFFFFFFFFFFFFFFFFFFFFFFFFFFFFFFFFFFF NOT AND DUP3 PUSH28 0xFFFFFFFFFFFFFFFFFFFFFFFFFFFFFFFFFFFFFFFFFFFFFFFFFFFFFFFF NOT AND EQ JUMPDEST DUP1 PUSH2 0x808 JUMPI POP PUSH32 0x80AC58CD00000000000000000000000000000000000000000000000000000000 PUSH28 0xFFFFFFFFFFFFFFFFFFFFFFFFFFFFFFFFFFFFFFFFFFFFFFFFFFFFFFFF NOT AND DUP3 PUSH28 0xFFFFFFFFFFFFFFFFFFFFFFFFFFFFFFFFFFFFFFFFFFFFFFFFFFFFFFFF NOT AND EQ JUMPDEST DUP1 PUSH2 0x870 JUMPI POP PUSH32 0xE160090200000000000000000000000000000000000000000000000000000000 PUSH28 0xFFFFFFFFFFFFFFFFFFFFFFFFFFFFFFFFFFFFFFFFFFFFFFFFFFFFFFFF NOT AND DUP3 PUSH28 0xFFFFFFFFFFFFFFFFFFFFFFFFFFFFFFFFFFFFFFFFFFFFFFFFFFFFFFFF NOT AND EQ JUMPDEST DUP1 PUSH2 0x8D8 JUMPI POP PUSH32 0x780E9D6300000000000000000000000000000000000000000000000000000000 PUSH28 0xFFFFFFFFFFFFFFFFFFFFFFFFFFFFFFFFFFFFFFFFFFFFFFFFFFFFFFFF NOT AND DUP3 PUSH28 0xFFFFFFFFFFFFFFFFFFFFFFFFFFFFFFFFFFFFFFFFFFFFFFFFFFFFFFFF NOT AND EQ JUMPDEST DUP1 PUSH2 0x940 JUMPI POP PUSH32 0x5B5E139F00000000000000000000000000000000000000000000000000000000 PUSH28 0xFFFFFFFFFFFFFFFFFFFFFFFFFFFFFFFFFFFFFFFFFFFFFFFFFFFFFFFF NOT AND DUP3 PUSH28 0xFFFFFFFFFFFFFFFFFFFFFFFFFFFFFFFFFFFFFFFFFFFFFFFFFFFFFFFF NOT AND EQ JUMPDEST SWAP1 POP SWAP2 SWAP1 POP JUMP JUMPDEST PUSH1 0x60 PUSH0 DUP1 SLOAD PUSH2 0x955 SWAP1 PUSH2 0x3B9B JUMP JUMPDEST DUP1 PUSH1 0x1F ADD PUSH1 0x20 DUP1 SWAP2 DIV MUL PUSH1 0x20 ADD PUSH1 0x40 MLOAD SWAP1 DUP2 ADD PUSH1 0x40 MSTORE DUP1 SWAP3 SWAP2 SWAP1 DUP2 DUP2 MSTORE PUSH1 0x20 ADD DUP3 DUP1 SLOAD PUSH2 0x981 SWAP1 PUSH2 0x3B9B JUMP JUMPDEST DUP1 ISZERO PUSH2 0x9CC JUMPI DUP1 PUSH1 0x1F LT PUSH2 0x9A3 JUMPI PUSH2 0x100 DUP1 DUP4 SLOAD DIV MUL DUP4 MSTORE SWAP2 PUSH1 0x20 ADD SWAP2 PUSH2 0x9CC JUMP JUMPDEST DUP3 ADD SWAP2 SWAP1 PUSH0 MSTORE PUSH1 0x20 PUSH0 KECCAK256 SWAP1 JUMPDEST DUP2 SLOAD DUP2 MSTORE SWAP1 PUSH1 0x1 ADD SWAP1 PUSH1 0x20 ADD DUP1 DUP4 GT PUSH2 0x9AF JUMPI DUP3 SWAP1 SUB PUSH1 0x1F AND DUP3 ADD SWAP2 JUMPDEST POP POP POP POP POP SWAP1 POP SWAP1 JUMP JUMPDEST PUSH0 PUSH2 0x9E0 DUP3 PUSH2 0x169A JUMP JUMPDEST PUSH1 0x5 PUSH1 0x6 PUSH0 DUP5 DUP2 MSTORE PUSH1 0x20 ADD SWAP1 DUP2 MSTORE PUSH1 0x20 ADD PUSH0 KECCAK256 SLOAD DUP2 SLOAD DUP2 LT PUSH2 0xA05 JUMPI PUSH2 0xA04 PUSH2 0x3BCB JUMP JUMPDEST JUMPDEST SWAP1 PUSH0 MSTORE PUSH1 0x20 PUSH0 KECCAK256 SWAP1 PUSH1 0x6 MUL ADD PUSH1 0x4 ADD PUSH0 SWAP1 SLOAD SWAP1 PUSH2 0x100 EXP SWAP1 DIV PUSH20 0xFFFFFFFFFFFFFFFFFFFFFFFFFFFFFFFFFFFFFFFF AND SWAP1 POP SWAP2 SWAP1 POP JUMP JUMPDEST PUSH0 PUSH2 0xA45 DUP3 PUSH2 0xF10 JUMP JUMPDEST SWAP1 POP DUP1 PUSH20 0xFFFFFFFFFFFFFFFFFFFFFFFFFFFFFFFFFFFFFFFF AND DUP4 PUSH20 0xFFFFFFFFFFFFFFFFFFFFFFFFFFFFFFFFFFFFFFFF AND SUB PUSH2 0xAB5 JUMPI PUSH1 0x40 MLOAD PUSH32 0x8C379A000000000000000000000000000000000000000000000000000000000 DUP2 MSTORE PUSH1 0x4 ADD PUSH2 0xAAC SWAP1 PUSH2 0x3C68 JUMP JUMPDEST PUSH1 0x40 MLOAD DUP1 SWAP2 SUB SWAP1 REVERT JUMPDEST DUP1 PUSH20 0xFFFFFFFFFFFFFFFFFFFFFFFFFFFFFFFFFFFFFFFF AND PUSH2 0xAD4 PUSH2 0x16E5 JUMP JUMPDEST PUSH20 0xFFFFFFFFFFFFFFFFFFFFFFFFFFFFFFFFFFFFFFFF AND EQ DUP1 PUSH2 0xB03 JUMPI POP PUSH2 0xB02 DUP2 PUSH2 0xAFD PUSH2 0x16E5 JUMP JUMPDEST PUSH2 0x15FB JUMP JUMPDEST JUMPDEST PUSH2 0xB42 JUMPI PUSH1 0x40 MLOAD PUSH32 0x8C379A000000000000000000000000000000000000000000000000000000000 DUP2 MSTORE PUSH1 0x4 ADD PUSH2 0xB39 SWAP1 PUSH2 0x3CF6 JUMP JUMPDEST PUSH1 0x40 MLOAD DUP1 SWAP2 SUB SWAP1 REVERT JUMPDEST PUSH2 0xB4C DUP4 DUP4 PUSH2 0x16EC JUMP JUMPDEST POP POP POP JUMP JUMPDEST PUSH1 0x60 PUSH0 PUSH2 0xB5C PUSH2 0x17C5 JUMP JUMPDEST SWAP1 POP PUSH0 PUSH20 0xFFFFFFFFFFFFFFFFFFFFFFFFFFFFFFFFFFFFFFFF AND PUSH1 0x8 PUSH0 SWAP1 SLOAD SWAP1 PUSH2 0x100 EXP SWAP1 DIV PUSH20 0xFFFFFFFFFFFFFFFFFFFFFFFFFFFFFFFFFFFFFFFF AND PUSH20 0xFFFFFFFFFFFFFFFFFFFFFFFFFFFFFFFFFFFFFFFF AND SUB PUSH2 0xBFE JUMPI PUSH0 DUP2 MLOAD GT PUSH2 0xBCE JUMPI PUSH1 0x40 MLOAD DUP1 PUSH1 0x20 ADD PUSH1 0x40 MSTORE DUP1 PUSH0 DUP2 MSTORE POP PUSH2 0xBF9 JUMP JUMPDEST DUP1 PUSH2 0xBD8 DUP5 PUSH2 0x17DB JUMP JUMPDEST PUSH1 0x40 MLOAD PUSH1 0x20 ADD PUSH2 0xBE9 SWAP3 SWAP2 SWAP1 PUSH2 0x3D98 JUMP JUMPDEST PUSH1 0x40 MLOAD PUSH1 0x20 DUP2 DUP4 SUB SUB DUP2 MSTORE SWAP1 PUSH1 0x40 MSTORE JUMPDEST PUSH2 0xC9B JUMP JUMPDEST PUSH1 0x8 PUSH0 SWAP1 SLOAD SWAP1 PUSH2 0x100 EXP SWAP1 DIV PUSH20 0xFFFFFFFFFFFFFFFFFFFFFFFFFFFFFFFFFFFFFFFF AND PUSH20 0xFFFFFFFFFFFFFFFFFFFFFFFFFFFFFFFFFFFFFFFF AND PUSH4 0x6C037F8A DUP5 PUSH1 0x40 MLOAD DUP3 PUSH4 0xFFFFFFFF AND PUSH1 0xE0 SHL DUP2 MSTORE PUSH1 0x4 ADD PUSH2 0xC58 SWAP2 SWAP1 PUSH2 0x36B0 JUMP JUMPDEST PUSH0 PUSH1 0x40 MLOAD DUP1 DUP4 SUB DUP2 DUP7 GAS STATICCALL ISZERO DUP1 ISZERO PUSH2 0xC72 JUMPI RETURNDATASIZE PUSH0 DUP1 RETURNDATACOPY RETURNDATASIZE PUSH0 REVERT JUMPDEST POP POP POP POP PUSH1 0x40 MLOAD RETURNDATASIZE PUSH0 DUP3 RETURNDATACOPY RETURNDATASIZE PUSH1 0x1F NOT PUSH1 0x1F DUP3 ADD AND DUP3 ADD DUP1 PUSH1 0x40 MSTORE POP DUP2 ADD SWAP1 PUSH2 0xC9A SWAP2 SWAP1 PUSH2 0x3E64 JUMP JUMPDEST JUMPDEST SWAP2 POP POP SWAP2 SWAP1 POP JUMP JUMPDEST PUSH0 PUSH2 0xCB6 PUSH2 0xCAF PUSH2 0x16E5 JUMP JUMPDEST DUP6 DUP5 PUSH2 0x18A5 JUMP JUMPDEST PUSH2 0xCBF DUP5 PUSH2 0x194E JUMP JUMPDEST SWAP1 POP PUSH2 0xCD5 DUP4 DUP3 PUSH2 0xCCF DUP8 PUSH2 0xD53 JUMP JUMPDEST PUSH0 PUSH2 0x195E JUMP JUMPDEST PUSH2 0xCE0 DUP5 DUP3 DUP5 PUSH2 0x1A8E JUMP JUMPDEST SWAP4 SWAP3 POP POP POP JUMP JUMPDEST PUSH0 PUSH1 0x5 DUP1 SLOAD SWAP1 POP SWAP1 POP SWAP1 JUMP JUMPDEST PUSH2 0xD04 PUSH2 0xCFE PUSH2 0x16E5 JUMP JUMPDEST DUP3 PUSH2 0x1D94 JUMP JUMPDEST PUSH2 0xD43 JUMPI PUSH1 0x40 MLOAD PUSH32 0x8C379A000000000000000000000000000000000000000000000000000000000 DUP2 MSTORE PUSH1 0x4 ADD PUSH2 0xD3A SWAP1 PUSH2 0x3F1B JUMP JUMPDEST PUSH1 0x40 MLOAD DUP1 SWAP2 SUB SWAP1 REVERT JUMPDEST PUSH2 0xD4E DUP4 DUP4 DUP4 PUSH2 0x1E28 JUMP JUMPDEST POP POP POP JUMP JUMPDEST PUSH0 PUSH2 0xD5D DUP3 PUSH2 0x169A JUMP JUMPDEST PUSH1 0x5 PUSH1 0x6 PUSH0 DUP5 DUP2 MSTORE PUSH1 0x20 ADD SWAP1 DUP2 MSTORE PUSH1 0x20 ADD PUSH0 KECCAK256 SLOAD DUP2 SLOAD DUP2 LT PUSH2 0xD82 JUMPI PUSH2 0xD81 PUSH2 0x3BCB JUMP JUMPDEST JUMPDEST SWAP1 PUSH0 MSTORE PUSH1 0x20 PUSH0 KECCAK256 SWAP1 PUSH1 0x6 MUL ADD PUSH1 0x1 ADD SLOAD SWAP1 POP SWAP2 SWAP1 POP JUMP JUMPDEST PUSH0 PUSH2 0xDA3 DUP4 PUSH2 0xFE3 JUMP JUMPDEST DUP3 LT PUSH2 0xDE4 JUMPI PUSH1 0x40 MLOAD PUSH32 0x8C379A000000000000000000000000000000000000000000000000000000000 DUP2 MSTORE PUSH1 0x4 ADD PUSH2 0xDDB SWAP1 PUSH2 0x3FA9 JUMP JUMPDEST PUSH1 0x40 MLOAD DUP1 SWAP2 SUB SWAP1 REVERT JUMPDEST PUSH1 0x7 PUSH0 DUP5 PUSH20 0xFFFFFFFFFFFFFFFFFFFFFFFFFFFFFFFFFFFFFFFF AND PUSH20 0xFFFFFFFFFFFFFFFFFFFFFFFFFFFFFFFFFFFFFFFF AND DUP2 MSTORE PUSH1 0x20 ADD SWAP1 DUP2 MSTORE PUSH1 0x20 ADD PUSH0 KECCAK256 PUSH0 ADD DUP3 DUP2 SLOAD DUP2 LT PUSH2 0xE35 JUMPI PUSH2 0xE34 PUSH2 0x3BCB JUMP JUMPDEST JUMPDEST SWAP1 PUSH0 MSTORE PUSH1 0x20 PUSH0 KECCAK256 ADD SLOAD SWAP1 POP SWAP3 SWAP2 POP POP JUMP JUMPDEST PUSH2 0xE58 PUSH2 0xE51 PUSH2 0x16E5 JUMP JUMPDEST DUP5 DUP4 PUSH2 0x18A5 JUMP JUMPDEST PUSH2 0xE63 DUP4 DUP4 DUP4 PUSH2 0x1A8E JUMP JUMPDEST POP POP POP JUMP JUMPDEST PUSH0 PUSH1 0x2 PUSH0 SWAP1 SLOAD SWAP1 PUSH2 0x100 EXP SWAP1 DIV PUSH1 0xFF AND SWAP1 POP SWAP1 JUMP JUMPDEST PUSH2 0xE97 DUP4 DUP4 DUP4 PUSH1 0x40 MLOAD DUP1 PUSH1 0x20 ADD PUSH1 0x40 MSTORE DUP1 PUSH0 DUP2 MSTORE POP PUSH2 0x129A JUMP JUMPDEST POP POP POP JUMP JUMPDEST PUSH0 PUSH2 0xEA5 PUSH2 0xCE7 JUMP JUMPDEST DUP3 LT PUSH2 0xEE6 JUMPI PUSH1 0x40 MLOAD PUSH32 0x8C379A000000000000000000000000000000000000000000000000000000000 DUP2 MSTORE PUSH1 0x4 ADD PUSH2 0xEDD SWAP1 PUSH2 0x4037 JUMP JUMPDEST PUSH1 0x40 MLOAD DUP1 SWAP2 SUB SWAP1 REVERT JUMPDEST PUSH1 0x5 DUP3 DUP2 SLOAD DUP2 LT PUSH2 0xEFA JUMPI PUSH2 0xEF9 PUSH2 0x3BCB JUMP JUMPDEST JUMPDEST SWAP1 PUSH0 MSTORE PUSH1 0x20 PUSH0 KECCAK256 SWAP1 PUSH1 0x6 MUL ADD PUSH0 ADD SLOAD SWAP1 POP SWAP2 SWAP1 POP JUMP JUMPDEST PUSH0 PUSH2 0xF1A DUP3 PUSH2 0x169A JUMP JUMPDEST PUSH1 0x5 PUSH1 0x6 PUSH0 DUP5 DUP2 MSTORE PUSH1 0x20 ADD SWAP1 DUP2 MSTORE PUSH1 0x20 ADD PUSH0 KECCAK256 SLOAD DUP2 SLOAD DUP2 LT PUSH2 0xF3F JUMPI PUSH2 0xF3E PUSH2 0x3BCB JUMP JUMPDEST JUMPDEST SWAP1 PUSH0 MSTORE PUSH1 0x20 PUSH0 KECCAK256 SWAP1 PUSH1 0x6 MUL ADD PUSH1 0x3 ADD PUSH0 SWAP1 SLOAD SWAP1 PUSH2 0x100 EXP SWAP1 DIV PUSH20 0xFFFFFFFFFFFFFFFFFFFFFFFFFFFFFFFFFFFFFFFF AND SWAP1 POP PUSH0 PUSH20 0xFFFFFFFFFFFFFFFFFFFFFFFFFFFFFFFFFFFFFFFF AND DUP2 PUSH20 0xFFFFFFFFFFFFFFFFFFFFFFFFFFFFFFFFFFFFFFFF AND SUB PUSH2 0xFDE JUMPI PUSH1 0x40 MLOAD PUSH32 0x8C379A000000000000000000000000000000000000000000000000000000000 DUP2 MSTORE PUSH1 0x4 ADD PUSH2 0xFD5 SWAP1 PUSH2 0x409F JUMP JUMPDEST PUSH1 0x40 MLOAD DUP1 SWAP2 SUB SWAP1 REVERT JUMPDEST SWAP2 SWAP1 POP JUMP JUMPDEST PUSH0 DUP1 PUSH20 0xFFFFFFFFFFFFFFFFFFFFFFFFFFFFFFFFFFFFFFFF AND DUP3 PUSH20 0xFFFFFFFFFFFFFFFFFFFFFFFFFFFFFFFFFFFFFFFF AND SUB PUSH2 0x1052 JUMPI PUSH1 0x40 MLOAD PUSH32 0x8C379A000000000000000000000000000000000000000000000000000000000 DUP2 MSTORE PUSH1 0x4 ADD PUSH2 0x1049 SWAP1 PUSH2 0x412D JUMP JUMPDEST PUSH1 0x40 MLOAD DUP1 SWAP2 SUB SWAP1 REVERT JUMPDEST PUSH1 0x7 PUSH0 DUP4 PUSH20 0xFFFFFFFFFFFFFFFFFFFFFFFFFFFFFFFFFFFFFFFF AND PUSH20 0xFFFFFFFFFFFFFFFFFFFFFFFFFFFFFFFFFFFFFFFF AND DUP2 MSTORE PUSH1 0x20 ADD SWAP1 DUP2 MSTORE PUSH1 0x20 ADD PUSH0 KECCAK256 PUSH0 ADD DUP1 SLOAD SWAP1 POP SWAP1 POP SWAP2 SWAP1 POP JUMP JUMPDEST PUSH1 0x8 PUSH0 SWAP1 SLOAD SWAP1 PUSH2 0x100 EXP SWAP1 DIV PUSH20 0xFFFFFFFFFFFFFFFFFFFFFFFFFFFFFFFFFFFFFFFF AND DUP2 JUMP JUMPDEST PUSH0 PUSH2 0x10CB DUP5 PUSH2 0xF10 JUMP JUMPDEST SWAP1 POP DUP1 PUSH20 0xFFFFFFFFFFFFFFFFFFFFFFFFFFFFFFFFFFFFFFFF AND DUP4 PUSH20 0xFFFFFFFFFFFFFFFFFFFFFFFFFFFFFFFFFFFFFFFF AND SUB PUSH2 0x113B JUMPI PUSH1 0x40 MLOAD PUSH32 0x8C379A000000000000000000000000000000000000000000000000000000000 DUP2 MSTORE PUSH1 0x4 ADD PUSH2 0x1132 SWAP1 PUSH2 0x3C68 JUMP JUMPDEST PUSH1 0x40 MLOAD DUP1 SWAP2 SUB SWAP1 REVERT JUMPDEST PUSH2 0x114C PUSH2 0x1146 PUSH2 0x16E5 JUMP JUMPDEST DUP6 PUSH2 0x1D94 JUMP JUMPDEST PUSH2 0x118B JUMPI PUSH1 0x40 MLOAD PUSH32 0x8C379A000000000000000000000000000000000000000000000000000000000 DUP2 MSTORE PUSH1 0x4 ADD PUSH2 0x1182 SWAP1 PUSH2 0x41BB JUMP JUMPDEST PUSH1 0x40 MLOAD DUP1 SWAP2 SUB SWAP1 REVERT JUMPDEST PUSH2 0x1196 DUP5 DUP5 DUP5 PUSH2 0x1FC9 JUMP JUMPDEST POP POP POP POP JUMP JUMPDEST PUSH1 0x60 PUSH1 0x1 DUP1 SLOAD PUSH2 0x11AB SWAP1 PUSH2 0x3B9B JUMP JUMPDEST DUP1 PUSH1 0x1F ADD PUSH1 0x20 DUP1 SWAP2 DIV MUL PUSH1 0x20 ADD PUSH1 0x40 MLOAD SWAP1 DUP2 ADD PUSH1 0x40 MSTORE DUP1 SWAP3 SWAP2 SWAP1 DUP2 DUP2 MSTORE PUSH1 0x20 ADD DUP3 DUP1 SLOAD PUSH2 0x11D7 SWAP1 PUSH2 0x3B9B JUMP JUMPDEST DUP1 ISZERO PUSH2 0x1222 JUMPI DUP1 PUSH1 0x1F LT PUSH2 0x11F9 JUMPI PUSH2 0x100 DUP1 DUP4 SLOAD DIV MUL DUP4 MSTORE SWAP2 PUSH1 0x20 ADD SWAP2 PUSH2 0x1222 JUMP JUMPDEST DUP3 ADD SWAP2 SWAP1 PUSH0 MSTORE PUSH1 0x20 PUSH0 KECCAK256 SWAP1 JUMPDEST DUP2 SLOAD DUP2 MSTORE SWAP1 PUSH1 0x1 ADD SWAP1 PUSH1 0x20 ADD DUP1 DUP4 GT PUSH2 0x1205 JUMPI DUP3 SWAP1 SUB PUSH1 0x1F AND DUP3 ADD SWAP2 JUMPDEST POP POP POP POP POP SWAP1 POP SWAP1 JUMP JUMPDEST PUSH0 PUSH2 0x1236 DUP3 PUSH2 0x169A JUMP JUMPDEST PUSH1 0x5 PUSH1 0x6 PUSH0 DUP5 DUP2 MSTORE PUSH1 0x20 ADD SWAP1 DUP2 MSTORE PUSH1 0x20 ADD PUSH0 KECCAK256 SLOAD DUP2 SLOAD DUP2 LT PUSH2 0x125B JUMPI PUSH2 0x125A PUSH2 0x3BCB JUMP JUMPDEST JUMPDEST SWAP1 PUSH0 MSTORE PUSH1 0x20 PUSH0 KECCAK256 SWAP1 PUSH1 0x6 MUL ADD PUSH1 0x2 ADD SLOAD SWAP1 POP SWAP2 SWAP1 POP JUMP JUMPDEST PUSH2 0x1284 PUSH2 0x127D PUSH2 0x16E5 JUMP JUMPDEST DUP4 DUP4 PUSH2 0x217D JUMP JUMPDEST POP POP JUMP JUMPDEST PUSH2 0x1294 DUP5 DUP5 DUP5 DUP5 PUSH2 0x195E JUMP JUMPDEST POP POP POP POP JUMP JUMPDEST PUSH2 0x12AB PUSH2 0x12A5 PUSH2 0x16E5 JUMP JUMPDEST DUP4 PUSH2 0x1D94 JUMP JUMPDEST PUSH2 0x12EA JUMPI PUSH1 0x40 MLOAD PUSH32 0x8C379A000000000000000000000000000000000000000000000000000000000 DUP2 MSTORE PUSH1 0x4 ADD PUSH2 0x12E1 SWAP1 PUSH2 0x3F1B JUMP JUMPDEST PUSH1 0x40 MLOAD DUP1 SWAP2 SUB SWAP1 REVERT JUMPDEST PUSH2 0x12F6 DUP5 DUP5 DUP5 DUP5 PUSH2 0x22E7 JUMP JUMPDEST POP POP POP POP JUMP JUMPDEST PUSH1 0x60 PUSH2 0x1307 DUP3 PUSH2 0x169A JUMP JUMPDEST PUSH0 PUSH2 0x1310 PUSH2 0x17C5 JUMP JUMPDEST SWAP1 POP PUSH0 PUSH20 0xFFFFFFFFFFFFFFFFFFFFFFFFFFFFFFFFFFFFFFFF AND PUSH1 0x8 PUSH0 SWAP1 SLOAD SWAP1 PUSH2 0x100 EXP SWAP1 DIV PUSH20 0xFFFFFFFFFFFFFFFFFFFFFFFFFFFFFFFFFFFFFFFF AND PUSH20 0xFFFFFFFFFFFFFFFFFFFFFFFFFFFFFFFFFFFFFFFF AND SUB PUSH2 0x13B2 JUMPI PUSH0 DUP2 MLOAD GT PUSH2 0x1382 JUMPI PUSH1 0x40 MLOAD DUP1 PUSH1 0x20 ADD PUSH1 0x40 MSTORE DUP1 PUSH0 DUP2 MSTORE POP PUSH2 0x13AD JUMP JUMPDEST DUP1 PUSH2 0x138C DUP5 PUSH2 0x17DB JUMP JUMPDEST PUSH1 0x40 MLOAD PUSH1 0x20 ADD PUSH2 0x139D SWAP3 SWAP2 SWAP1 PUSH2 0x41D9 JUMP JUMPDEST PUSH1 0x40 MLOAD PUSH1 0x20 DUP2 DUP4 SUB SUB DUP2 MSTORE SWAP1 PUSH1 0x40 MSTORE JUMPDEST PUSH2 0x144F JUMP JUMPDEST PUSH1 0x8 PUSH0 SWAP1 SLOAD SWAP1 PUSH2 0x100 EXP SWAP1 DIV PUSH20 0xFFFFFFFFFFFFFFFFFFFFFFFFFFFFFFFFFFFFFFFF AND PUSH20 0xFFFFFFFFFFFFFFFFFFFFFFFFFFFFFFFFFFFFFFFF AND PUSH4 0x894B4C2E DUP5 PUSH1 0x40 MLOAD DUP3 PUSH4 0xFFFFFFFF AND PUSH1 0xE0 SHL DUP2 MSTORE PUSH1 0x4 ADD PUSH2 0x140C SWAP2 SWAP1 PUSH2 0x36B0 JUMP JUMPDEST PUSH0 PUSH1 0x40 MLOAD DUP1 DUP4 SUB DUP2 DUP7 GAS STATICCALL ISZERO DUP1 ISZERO PUSH2 0x1426 JUMPI RETURNDATASIZE PUSH0 DUP1 RETURNDATACOPY RETURNDATASIZE PUSH0 REVERT JUMPDEST POP POP POP POP PUSH1 0x40 MLOAD RETURNDATASIZE PUSH0 DUP3 RETURNDATACOPY RETURNDATASIZE PUSH1 0x1F NOT PUSH1 0x1F DUP3 ADD AND DUP3 ADD DUP1 PUSH1 0x40 MSTORE POP DUP2 ADD SWAP1 PUSH2 0x144E SWAP2 SWAP1 PUSH2 0x3E64 JUMP JUMPDEST JUMPDEST SWAP2 POP POP SWAP2 SWAP1 POP JUMP JUMPDEST PUSH0 PUSH2 0x1461 DUP4 PUSH2 0x169A JUMP JUMPDEST PUSH1 0x4 PUSH0 DUP5 DUP2 MSTORE PUSH1 0x20 ADD SWAP1 DUP2 MSTORE PUSH1 0x20 ADD PUSH0 KECCAK256 PUSH0 DUP4 PUSH20 0xFFFFFFFFFFFFFFFFFFFFFFFFFFFFFFFFFFFFFFFF AND PUSH20 0xFFFFFFFFFFFFFFFFFFFFFFFFFFFFFFFFFFFFFFFF AND DUP2 MSTORE PUSH1 0x20 ADD SWAP1 DUP2 MSTORE PUSH1 0x20 ADD PUSH0 KECCAK256 SLOAD SWAP1 POP SWAP3 SWAP2 POP POP JUMP JUMPDEST PUSH1 0x60 PUSH0 PUSH2 0x14C1 PUSH2 0x17C5 JUMP JUMPDEST SWAP1 POP PUSH0 PUSH20 0xFFFFFFFFFFFFFFFFFFFFFFFFFFFFFFFFFFFFFFFF AND PUSH1 0x8 PUSH0 SWAP1 SLOAD SWAP1 PUSH2 0x100 EXP SWAP1 DIV PUSH20 0xFFFFFFFFFFFFFFFFFFFFFFFFFFFFFFFFFFFFFFFF AND PUSH20 0xFFFFFFFFFFFFFFFFFFFFFFFFFFFFFFFFFFFFFFFF AND SUB PUSH2 0x1563 JUMPI PUSH0 DUP2 MLOAD GT PUSH2 0x1533 JUMPI PUSH1 0x40 MLOAD DUP1 PUSH1 0x20 ADD PUSH1 0x40 MSTORE DUP1 PUSH0 DUP2 MSTORE POP PUSH2 0x155E JUMP JUMPDEST DUP1 PUSH2 0x153D ADDRESS PUSH2 0x2343 JUMP JUMPDEST PUSH1 0x40 MLOAD PUSH1 0x20 ADD PUSH2 0x154E SWAP3 SWAP2 SWAP1 PUSH2 0x4246 JUMP JUMPDEST PUSH1 0x40 MLOAD PUSH1 0x20 DUP2 DUP4 SUB SUB DUP2 MSTORE SWAP1 PUSH1 0x40 MSTORE JUMPDEST PUSH2 0x15F5 JUMP JUMPDEST PUSH1 0x8 PUSH0 SWAP1 SLOAD SWAP1 PUSH2 0x100 EXP SWAP1 DIV PUSH20 0xFFFFFFFFFFFFFFFFFFFFFFFFFFFFFFFFFFFFFFFF AND PUSH20 0xFFFFFFFFFFFFFFFFFFFFFFFFFFFFFFFFFFFFFFFF AND PUSH4 0x725FA09C PUSH1 0x40 MLOAD DUP2 PUSH4 0xFFFFFFFF AND PUSH1 0xE0 SHL DUP2 MSTORE PUSH1 0x4 ADD PUSH0 PUSH1 0x40 MLOAD DUP1 DUP4 SUB DUP2 DUP7 GAS STATICCALL ISZERO DUP1 ISZERO PUSH2 0x15CC JUMPI RETURNDATASIZE PUSH0 DUP1 RETURNDATACOPY RETURNDATASIZE PUSH0 REVERT JUMPDEST POP POP POP POP PUSH1 0x40 MLOAD RETURNDATASIZE PUSH0 DUP3 RETURNDATACOPY RETURNDATASIZE PUSH1 0x1F NOT PUSH1 0x1F DUP3 ADD AND DUP3 ADD DUP1 PUSH1 0x40 MSTORE POP DUP2 ADD SWAP1 PUSH2 0x15F4 SWAP2 SWAP1 PUSH2 0x3E64 JUMP JUMPDEST JUMPDEST SWAP2 POP POP SWAP1 JUMP JUMPDEST PUSH0 PUSH1 0x7 PUSH0 DUP5 PUSH20 0xFFFFFFFFFFFFFFFFFFFFFFFFFFFFFFFFFFFFFFFF AND PUSH20 0xFFFFFFFFFFFFFFFFFFFFFFFFFFFFFFFFFFFFFFFF AND DUP2 MSTORE PUSH1 0x20 ADD SWAP1 DUP2 MSTORE PUSH1 0x20 ADD PUSH0 KECCAK256 PUSH1 0x2 ADD PUSH0 DUP4 PUSH20 0xFFFFFFFFFFFFFFFFFFFFFFFFFFFFFFFFFFFFFFFF AND PUSH20 0xFFFFFFFFFFFFFFFFFFFFFFFFFFFFFFFFFFFFFFFF AND DUP2 MSTORE PUSH1 0x20 ADD SWAP1 DUP2 MSTORE PUSH1 0x20 ADD PUSH0 KECCAK256 PUSH0 SWAP1 SLOAD SWAP1 PUSH2 0x100 EXP SWAP1 DIV PUSH1 0xFF AND SWAP1 POP SWAP3 SWAP2 POP POP JUMP JUMPDEST PUSH2 0x1696 DUP3 DUP3 PUSH2 0x2370 JUMP JUMPDEST POP POP JUMP JUMPDEST PUSH2 0x16A3 DUP2 PUSH2 0x23B4 JUMP JUMPDEST PUSH2 0x16E2 JUMPI PUSH1 0x40 MLOAD PUSH32 0x8C379A000000000000000000000000000000000000000000000000000000000 DUP2 MSTORE PUSH1 0x4 ADD PUSH2 0x16D9 SWAP1 PUSH2 0x409F JUMP JUMPDEST PUSH1 0x40 MLOAD DUP1 SWAP2 SUB SWAP1 REVERT JUMPDEST POP JUMP JUMPDEST PUSH0 CALLER SWAP1 POP SWAP1 JUMP JUMPDEST DUP2 PUSH1 0x5 PUSH1 0x6 PUSH0 DUP5 DUP2 MSTORE PUSH1 0x20 ADD SWAP1 DUP2 MSTORE PUSH1 0x20 ADD PUSH0 KECCAK256 SLOAD DUP2 SLOAD DUP2 LT PUSH2 0x1712 JUMPI PUSH2 0x1711 PUSH2 0x3BCB JUMP JUMPDEST JUMPDEST SWAP1 PUSH0 MSTORE PUSH1 0x20 PUSH0 KECCAK256 SWAP1 PUSH1 0x6 MUL ADD PUSH1 0x4 ADD PUSH0 PUSH2 0x100 EXP DUP2 SLOAD DUP2 PUSH20 0xFFFFFFFFFFFFFFFFFFFFFFFFFFFFFFFFFFFFFFFF MUL NOT AND SWAP1 DUP4 PUSH20 0xFFFFFFFFFFFFFFFFFFFFFFFFFFFFFFFFFFFFFFFF AND MUL OR SWAP1 SSTORE POP DUP1 DUP3 PUSH20 0xFFFFFFFFFFFFFFFFFFFFFFFFFFFFFFFFFFFFFFFF AND PUSH2 0x177F DUP4 PUSH2 0xF10 JUMP JUMPDEST PUSH20 0xFFFFFFFFFFFFFFFFFFFFFFFFFFFFFFFFFFFFFFFF AND PUSH32 0x8C5BE1E5EBEC7D5BD14F71427D1E84F3DD0314C0F7B2291E5B200AC8C7C3B925 PUSH1 0x40 MLOAD PUSH1 0x40 MLOAD DUP1 SWAP2 SUB SWAP1 LOG4 POP POP JUMP JUMPDEST PUSH1 0x60 PUSH1 0x40 MLOAD DUP1 PUSH1 0x20 ADD PUSH1 0x40 MSTORE DUP1 PUSH0 DUP2 MSTORE POP SWAP1 POP SWAP1 JUMP JUMPDEST PUSH1 0x60 PUSH0 PUSH1 0x1 PUSH2 0x17E9 DUP5 PUSH2 0x2403 JUMP JUMPDEST ADD SWAP1 POP PUSH0 DUP2 PUSH8 0xFFFFFFFFFFFFFFFF DUP2 GT ISZERO PUSH2 0x1807 JUMPI PUSH2 0x1806 PUSH2 0x3910 JUMP JUMPDEST JUMPDEST PUSH1 0x40 MLOAD SWAP1 DUP1 DUP3 MSTORE DUP1 PUSH1 0x1F ADD PUSH1 0x1F NOT AND PUSH1 0x20 ADD DUP3 ADD PUSH1 0x40 MSTORE DUP1 ISZERO PUSH2 0x1839 JUMPI DUP2 PUSH1 0x20 ADD PUSH1 0x1 DUP3 MUL DUP1 CALLDATASIZE DUP4 CALLDATACOPY DUP1 DUP3 ADD SWAP2 POP POP SWAP1 POP JUMPDEST POP SWAP1 POP PUSH0 DUP3 PUSH1 0x20 ADD DUP3 ADD SWAP1 POP JUMPDEST PUSH1 0x1 ISZERO PUSH2 0x189A JUMPI DUP1 DUP1 PUSH1 0x1 SWAP1 SUB SWAP2 POP POP PUSH32 0x3031323334353637383961626364656600000000000000000000000000000000 PUSH1 0xA DUP7 MOD BYTE DUP2 MSTORE8 PUSH1 0xA DUP6 DUP2 PUSH2 0x188F JUMPI PUSH2 0x188E PUSH2 0x4274 JUMP JUMPDEST JUMPDEST DIV SWAP5 POP PUSH0 DUP6 SUB PUSH2 0x1846 JUMPI JUMPDEST DUP2 SWAP4 POP POP POP POP SWAP2 SWAP1 POP JUMP JUMPDEST PUSH0 PUSH2 0x18B0 DUP4 DUP6 PUSH2 0x1457 JUMP JUMPDEST SWAP1 POP PUSH2 0x18BC DUP5 DUP5 PUSH2 0x1D94 JUMP JUMPDEST ISZERO DUP1 ISZERO PUSH2 0x18E9 JUMPI POP PUSH32 0xFFFFFFFFFFFFFFFFFFFFFFFFFFFFFFFFFFFFFFFFFFFFFFFFFFFFFFFFFFFFFFFF DUP2 EQ ISZERO JUMPDEST ISZERO PUSH2 0x1948 JUMPI DUP2 DUP2 LT ISZERO PUSH2 0x1931 JUMPI PUSH1 0x40 MLOAD PUSH32 0x8C379A000000000000000000000000000000000000000000000000000000000 DUP2 MSTORE PUSH1 0x4 ADD PUSH2 0x1928 SWAP1 PUSH2 0x42EB JUMP JUMPDEST PUSH1 0x40 MLOAD DUP1 SWAP2 SUB SWAP1 REVERT JUMPDEST PUSH2 0x1947 DUP4 DUP6 DUP5 DUP5 PUSH2 0x1942 SWAP2 SWAP1 PUSH2 0x4336 JUMP JUMPDEST PUSH2 0x1FC9 JUMP JUMPDEST JUMPDEST POP POP POP POP JUMP JUMPDEST PUSH0 PUSH2 0x1957 PUSH2 0x2554 JUMP JUMPDEST SWAP1 POP SWAP2 SWAP1 POP JUMP JUMPDEST PUSH0 PUSH20 0xFFFFFFFFFFFFFFFFFFFFFFFFFFFFFFFFFFFFFFFF AND DUP5 PUSH20 0xFFFFFFFFFFFFFFFFFFFFFFFFFFFFFFFFFFFFFFFF AND SUB PUSH2 0x19CC JUMPI PUSH1 0x40 MLOAD PUSH32 0x8C379A000000000000000000000000000000000000000000000000000000000 DUP2 MSTORE PUSH1 0x4 ADD PUSH2 0x19C3 SWAP1 PUSH2 0x43D9 JUMP JUMPDEST PUSH1 0x40 MLOAD DUP1 SWAP2 SUB SWAP1 REVERT JUMPDEST PUSH0 DUP4 SUB PUSH2 0x1A0E JUMPI PUSH1 0x40 MLOAD PUSH32 0x8C379A000000000000000000000000000000000000000000000000000000000 DUP2 MSTORE PUSH1 0x4 ADD PUSH2 0x1A05 SWAP1 PUSH2 0x4467 JUMP JUMPDEST PUSH1 0x40 MLOAD DUP1 SWAP2 SUB SWAP1 REVERT JUMPDEST PUSH2 0x1A17 DUP4 PUSH2 0x23B4 JUMP JUMPDEST ISZERO PUSH2 0x1A57 JUMPI PUSH1 0x40 MLOAD PUSH32 0x8C379A000000000000000000000000000000000000000000000000000000000 DUP2 MSTORE PUSH1 0x4 ADD PUSH2 0x1A4E SWAP1 PUSH2 0x44CF JUMP JUMPDEST PUSH1 0x40 MLOAD DUP1 SWAP2 SUB SWAP1 REVERT JUMPDEST PUSH2 0x1A65 PUSH0 DUP6 PUSH0 DUP7 DUP7 DUP7 PUSH2 0x2570 JUMP JUMPDEST PUSH2 0x1A70 DUP5 DUP5 DUP5 PUSH2 0x2578 JUMP JUMPDEST PUSH2 0x1A7A DUP4 DUP3 PUSH2 0x26BF JUMP JUMPDEST PUSH2 0x1A88 PUSH0 DUP6 PUSH0 DUP7 DUP7 DUP7 PUSH2 0x2746 JUMP JUMPDEST POP POP POP POP JUMP JUMPDEST PUSH2 0x1A97 DUP4 PUSH2 0x23B4 JUMP JUMPDEST PUSH2 0x1AD6 JUMPI PUSH1 0x40 MLOAD PUSH32 0x8C379A000000000000000000000000000000000000000000000000000000000 DUP2 MSTORE PUSH1 0x4 ADD PUSH2 0x1ACD SWAP1 PUSH2 0x455D JUMP JUMPDEST PUSH1 0x40 MLOAD DUP1 SWAP2 SUB SWAP1 REVERT JUMPDEST PUSH2 0x1ADF DUP3 PUSH2 0x23B4 JUMP JUMPDEST PUSH2 0x1B1E JUMPI PUSH1 0x40 MLOAD PUSH32 0x8C379A000000000000000000000000000000000000000000000000000000000 DUP2 MSTORE PUSH1 0x4 ADD PUSH2 0x1B15 SWAP1 PUSH2 0x45EB JUMP JUMPDEST PUSH1 0x40 MLOAD DUP1 SWAP2 SUB SWAP1 REVERT JUMPDEST PUSH0 PUSH1 0x5 PUSH1 0x6 PUSH0 DUP7 DUP2 MSTORE PUSH1 0x20 ADD SWAP1 DUP2 MSTORE PUSH1 0x20 ADD PUSH0 KECCAK256 SLOAD DUP2 SLOAD DUP2 LT PUSH2 0x1B44 JUMPI PUSH2 0x1B43 PUSH2 0x3BCB JUMP JUMPDEST JUMPDEST SWAP1 PUSH0 MSTORE PUSH1 0x20 PUSH0 KECCAK256 SWAP1 PUSH1 0x6 MUL ADD SWAP1 POP PUSH0 PUSH1 0x5 PUSH1 0x6 PUSH0 DUP7 DUP2 MSTORE PUSH1 0x20 ADD SWAP1 DUP2 MSTORE PUSH1 0x20 ADD PUSH0 KECCAK256 SLOAD DUP2 SLOAD DUP2 LT PUSH2 0x1B78 JUMPI PUSH2 0x1B77 PUSH2 0x3BCB JUMP JUMPDEST JUMPDEST SWAP1 PUSH0 MSTORE PUSH1 0x20 PUSH0 KECCAK256 SWAP1 PUSH1 0x6 MUL ADD SWAP1 POP DUP3 DUP3 PUSH1 0x2 ADD SLOAD LT ISZERO PUSH2 0x1BCD JUMPI PUSH1 0x40 MLOAD PUSH32 0x8C379A000000000000000000000000000000000000000000000000000000000 DUP2 MSTORE PUSH1 0x4 ADD PUSH2 0x1BC4 SWAP1 PUSH2 0x4679 JUMP JUMPDEST PUSH1 0x40 MLOAD DUP1 SWAP2 SUB SWAP1 REVERT JUMPDEST DUP1 PUSH1 0x1 ADD SLOAD DUP3 PUSH1 0x1 ADD SLOAD EQ PUSH2 0x1C17 JUMPI PUSH1 0x40 MLOAD PUSH32 0x8C379A000000000000000000000000000000000000000000000000000000000 DUP2 MSTORE PUSH1 0x4 ADD PUSH2 0x1C0E SWAP1 PUSH2 0x4707 JUMP JUMPDEST PUSH1 0x40 MLOAD DUP1 SWAP2 SUB SWAP1 REVERT JUMPDEST PUSH2 0x1C6F DUP3 PUSH1 0x3 ADD PUSH0 SWAP1 SLOAD SWAP1 PUSH2 0x100 EXP SWAP1 DIV PUSH20 0xFFFFFFFFFFFFFFFFFFFFFFFFFFFFFFFFFFFFFFFF AND DUP3 PUSH1 0x3 ADD PUSH0 SWAP1 SLOAD SWAP1 PUSH2 0x100 EXP SWAP1 DIV PUSH20 0xFFFFFFFFFFFFFFFFFFFFFFFFFFFFFFFFFFFFFFFF AND DUP8 DUP8 DUP7 PUSH1 0x1 ADD SLOAD DUP9 PUSH2 0x2570 JUMP JUMPDEST DUP3 DUP3 PUSH1 0x2 ADD PUSH0 DUP3 DUP3 SLOAD PUSH2 0x1C82 SWAP2 SWAP1 PUSH2 0x4336 JUMP JUMPDEST SWAP3 POP POP DUP2 SWAP1 SSTORE POP DUP3 DUP2 PUSH1 0x2 ADD PUSH0 DUP3 DUP3 SLOAD PUSH2 0x1C9C SWAP2 SWAP1 PUSH2 0x4725 JUMP JUMPDEST SWAP3 POP POP DUP2 SWAP1 SSTORE POP DUP4 DUP6 PUSH32 0xB2AAC84F3EC956911FD78EAE5311062972FF949F38412E8DA39069D9F068CC6 DUP6 PUSH1 0x40 MLOAD PUSH2 0x1CD4 SWAP2 SWAP1 PUSH2 0x36B0 JUMP JUMPDEST PUSH1 0x40 MLOAD DUP1 SWAP2 SUB SWAP1 LOG3 PUSH2 0x1D34 DUP3 PUSH1 0x3 ADD PUSH0 SWAP1 SLOAD SWAP1 PUSH2 0x100 EXP SWAP1 DIV PUSH20 0xFFFFFFFFFFFFFFFFFFFFFFFFFFFFFFFFFFFFFFFF AND DUP3 PUSH1 0x3 ADD PUSH0 SWAP1 SLOAD SWAP1 PUSH2 0x100 EXP SWAP1 DIV PUSH20 0xFFFFFFFFFFFFFFFFFFFFFFFFFFFFFFFFFFFFFFFF AND DUP8 DUP8 DUP7 PUSH1 0x1 ADD SLOAD DUP9 PUSH2 0x2746 JUMP JUMPDEST PUSH2 0x1D4E DUP6 DUP6 DUP6 PUSH1 0x40 MLOAD DUP1 PUSH1 0x20 ADD PUSH1 0x40 MSTORE DUP1 PUSH0 DUP2 MSTORE POP PUSH2 0x274E JUMP JUMPDEST PUSH2 0x1D8D JUMPI PUSH1 0x40 MLOAD PUSH32 0x8C379A000000000000000000000000000000000000000000000000000000000 DUP2 MSTORE PUSH1 0x4 ADD PUSH2 0x1D84 SWAP1 PUSH2 0x47C8 JUMP JUMPDEST PUSH1 0x40 MLOAD DUP1 SWAP2 SUB SWAP1 REVERT JUMPDEST POP POP POP POP POP JUMP JUMPDEST PUSH0 DUP1 PUSH2 0x1D9F DUP4 PUSH2 0xF10 JUMP JUMPDEST SWAP1 POP DUP1 PUSH20 0xFFFFFFFFFFFFFFFFFFFFFFFFFFFFFFFFFFFFFFFF AND DUP5 PUSH20 0xFFFFFFFFFFFFFFFFFFFFFFFFFFFFFFFFFFFFFFFF AND EQ DUP1 PUSH2 0x1DE1 JUMPI POP PUSH2 0x1DE0 DUP2 DUP6 PUSH2 0x15FB JUMP JUMPDEST JUMPDEST DUP1 PUSH2 0x1E1F JUMPI POP DUP4 PUSH20 0xFFFFFFFFFFFFFFFFFFFFFFFFFFFFFFFFFFFFFFFF AND PUSH2 0x1E07 DUP5 PUSH2 0x9D6 JUMP JUMPDEST PUSH20 0xFFFFFFFFFFFFFFFFFFFFFFFFFFFFFFFFFFFFFFFF AND EQ JUMPDEST SWAP2 POP POP SWAP3 SWAP2 POP POP JUMP JUMPDEST DUP3 PUSH20 0xFFFFFFFFFFFFFFFFFFFFFFFFFFFFFFFFFFFFFFFF AND PUSH2 0x1E48 DUP3 PUSH2 0xF10 JUMP JUMPDEST PUSH20 0xFFFFFFFFFFFFFFFFFFFFFFFFFFFFFFFFFFFFFFFF AND EQ PUSH2 0x1E9E JUMPI PUSH1 0x40 MLOAD PUSH32 0x8C379A000000000000000000000000000000000000000000000000000000000 DUP2 MSTORE PUSH1 0x4 ADD PUSH2 0x1E95 SWAP1 PUSH2 0x4856 JUMP JUMPDEST PUSH1 0x40 MLOAD DUP1 SWAP2 SUB SWAP1 REVERT JUMPDEST PUSH0 PUSH20 0xFFFFFFFFFFFFFFFFFFFFFFFFFFFFFFFFFFFFFFFF AND DUP3 PUSH20 0xFFFFFFFFFFFFFFFFFFFFFFFFFFFFFFFFFFFFFFFF AND SUB PUSH2 0x1F0C JUMPI PUSH1 0x40 MLOAD PUSH32 0x8C379A000000000000000000000000000000000000000000000000000000000 DUP2 MSTORE PUSH1 0x4 ADD PUSH2 0x1F03 SWAP1 PUSH2 0x48E4 JUMP JUMPDEST PUSH1 0x40 MLOAD DUP1 SWAP2 SUB SWAP1 REVERT JUMPDEST PUSH0 PUSH2 0x1F16 DUP3 PUSH2 0xD53 JUMP JUMPDEST SWAP1 POP PUSH0 PUSH2 0x1F22 DUP4 PUSH2 0x122C JUMP JUMPDEST SWAP1 POP PUSH2 0x1F32 DUP6 DUP6 DUP6 DUP7 DUP7 DUP7 PUSH2 0x2570 JUMP JUMPDEST PUSH2 0x1F3C PUSH0 DUP5 PUSH2 0x16EC JUMP JUMPDEST PUSH2 0x1F45 DUP4 PUSH2 0x2934 JUMP JUMPDEST PUSH2 0x1F4F DUP6 DUP5 PUSH2 0x2A36 JUMP JUMPDEST PUSH2 0x1F59 DUP5 DUP5 PUSH2 0x2BB4 JUMP JUMPDEST DUP3 DUP5 PUSH20 0xFFFFFFFFFFFFFFFFFFFFFFFFFFFFFFFFFFFFFFFF AND DUP7 PUSH20 0xFFFFFFFFFFFFFFFFFFFFFFFFFFFFFFFFFFFFFFFF AND PUSH32 0xDDF252AD1BE2C89B69C2B068FC378DAA952BA7F163C4A11628F55A4DF523B3EF PUSH1 0x40 MLOAD PUSH1 0x40 MLOAD DUP1 SWAP2 SUB SWAP1 LOG4 PUSH2 0x1FC2 DUP6 DUP6 DUP6 DUP7 DUP7 DUP7 PUSH2 0x2746 JUMP JUMPDEST POP POP POP POP POP JUMP JUMPDEST PUSH0 PUSH20 0xFFFFFFFFFFFFFFFFFFFFFFFFFFFFFFFFFFFFFFFF AND DUP3 PUSH20 0xFFFFFFFFFFFFFFFFFFFFFFFFFFFFFFFFFFFFFFFF AND SUB PUSH2 0x2037 JUMPI PUSH1 0x40 MLOAD PUSH32 0x8C379A000000000000000000000000000000000000000000000000000000000 DUP2 MSTORE PUSH1 0x4 ADD PUSH2 0x202E SWAP1 PUSH2 0x4972 JUMP JUMPDEST PUSH1 0x40 MLOAD DUP1 SWAP2 SUB SWAP1 REVERT JUMPDEST PUSH2 0x2041 DUP3 DUP5 PUSH2 0x2D23 JUMP JUMPDEST PUSH2 0x20D8 JUMPI PUSH1 0x5 PUSH1 0x6 PUSH0 DUP6 DUP2 MSTORE PUSH1 0x20 ADD SWAP1 DUP2 MSTORE PUSH1 0x20 ADD PUSH0 KECCAK256 SLOAD DUP2 SLOAD DUP2 LT PUSH2 0x206A JUMPI PUSH2 0x2069 PUSH2 0x3BCB JUMP JUMPDEST JUMPDEST SWAP1 PUSH0 MSTORE PUSH1 0x20 PUSH0 KECCAK256 SWAP1 PUSH1 0x6 MUL ADD PUSH1 0x5 ADD DUP3 SWAP1 DUP1 PUSH1 0x1 DUP2 SLOAD ADD DUP1 DUP3 SSTORE DUP1 SWAP2 POP POP PUSH1 0x1 SWAP1 SUB SWAP1 PUSH0 MSTORE PUSH1 0x20 PUSH0 KECCAK256 ADD PUSH0 SWAP1 SWAP2 SWAP1 SWAP2 SWAP1 SWAP2 PUSH2 0x100 EXP DUP2 SLOAD DUP2 PUSH20 0xFFFFFFFFFFFFFFFFFFFFFFFFFFFFFFFFFFFFFFFF MUL NOT AND SWAP1 DUP4 PUSH20 0xFFFFFFFFFFFFFFFFFFFFFFFFFFFFFFFFFFFFFFFF AND MUL OR SWAP1 SSTORE POP JUMPDEST DUP1 PUSH1 0x4 PUSH0 DUP6 DUP2 MSTORE PUSH1 0x20 ADD SWAP1 DUP2 MSTORE PUSH1 0x20 ADD PUSH0 KECCAK256 PUSH0 DUP5 PUSH20 0xFFFFFFFFFFFFFFFFFFFFFFFFFFFFFFFFFFFFFFFF AND PUSH20 0xFFFFFFFFFFFFFFFFFFFFFFFFFFFFFFFFFFFFFFFF AND DUP2 MSTORE PUSH1 0x20 ADD SWAP1 DUP2 MSTORE PUSH1 0x20 ADD PUSH0 KECCAK256 DUP2 SWAP1 SSTORE POP DUP2 PUSH20 0xFFFFFFFFFFFFFFFFFFFFFFFFFFFFFFFFFFFFFFFF AND DUP4 PUSH32 0x621B050DE0AD08B51D19B48B3E6DF75348C4DE6BDD93E81B252CA62E28265B1B DUP4 PUSH1 0x40 MLOAD PUSH2 0x2170 SWAP2 SWAP1 PUSH2 0x36B0 JUMP JUMPDEST PUSH1 0x40 MLOAD DUP1 SWAP2 SUB SWAP1 LOG3 POP POP POP JUMP JUMPDEST DUP2 PUSH20 0xFFFFFFFFFFFFFFFFFFFFFFFFFFFFFFFFFFFFFFFF AND DUP4 PUSH20 0xFFFFFFFFFFFFFFFFFFFFFFFFFFFFFFFFFFFFFFFF AND SUB PUSH2 0x21EB JUMPI PUSH1 0x40 MLOAD PUSH32 0x8C379A000000000000000000000000000000000000000000000000000000000 DUP2 MSTORE PUSH1 0x4 ADD PUSH2 0x21E2 SWAP1 PUSH2 0x49DA JUMP JUMPDEST PUSH1 0x40 MLOAD DUP1 SWAP2 SUB SWAP1 REVERT JUMPDEST DUP1 PUSH1 0x7 PUSH0 DUP6 PUSH20 0xFFFFFFFFFFFFFFFFFFFFFFFFFFFFFFFFFFFFFFFF AND PUSH20 0xFFFFFFFFFFFFFFFFFFFFFFFFFFFFFFFFFFFFFFFF AND DUP2 MSTORE PUSH1 0x20 ADD SWAP1 DUP2 MSTORE PUSH1 0x20 ADD PUSH0 KECCAK256 PUSH1 0x2 ADD PUSH0 DUP5 PUSH20 0xFFFFFFFFFFFFFFFFFFFFFFFFFFFFFFFFFFFFFFFF AND PUSH20 0xFFFFFFFFFFFFFFFFFFFFFFFFFFFFFFFFFFFFFFFF AND DUP2 MSTORE PUSH1 0x20 ADD SWAP1 DUP2 MSTORE PUSH1 0x20 ADD PUSH0 KECCAK256 PUSH0 PUSH2 0x100 EXP DUP2 SLOAD DUP2 PUSH1 0xFF MUL NOT AND SWAP1 DUP4 ISZERO ISZERO MUL OR SWAP1 SSTORE POP DUP2 PUSH20 0xFFFFFFFFFFFFFFFFFFFFFFFFFFFFFFFFFFFFFFFF AND DUP4 PUSH20 0xFFFFFFFFFFFFFFFFFFFFFFFFFFFFFFFFFFFFFFFF AND PUSH32 0x17307EAB39AB6107E8899845AD3D59BD9653F200F220920489CA2B5937696C31 DUP4 PUSH1 0x40 MLOAD PUSH2 0x22DA SWAP2 SWAP1 PUSH2 0x3470 JUMP JUMPDEST PUSH1 0x40 MLOAD DUP1 SWAP2 SUB SWAP1 LOG3 POP POP POP JUMP JUMPDEST PUSH2 0x22F2 DUP5 DUP5 DUP5 PUSH2 0x1E28 JUMP JUMPDEST PUSH2 0x22FE DUP5 DUP5 DUP5 DUP5 PUSH2 0x2E33 JUMP JUMPDEST PUSH2 0x233D JUMPI PUSH1 0x40 MLOAD PUSH32 0x8C379A000000000000000000000000000000000000000000000000000000000 DUP2 MSTORE PUSH1 0x4 ADD PUSH2 0x2334 SWAP1 PUSH2 0x4A68 JUMP JUMPDEST PUSH1 0x40 MLOAD DUP1 SWAP2 SUB SWAP1 REVERT JUMPDEST POP POP POP POP JUMP JUMPDEST PUSH1 0x60 PUSH2 0x2369 DUP3 PUSH20 0xFFFFFFFFFFFFFFFFFFFFFFFFFFFFFFFFFFFFFFFF AND PUSH1 0x14 PUSH1 0xFF AND PUSH2 0x2F9F JUMP JUMPDEST SWAP1 POP SWAP2 SWAP1 POP JUMP JUMPDEST PUSH0 PUSH2 0x237A DUP4 PUSH2 0xF10 JUMP JUMPDEST SWAP1 POP PUSH0 PUSH2 0x2386 DUP5 PUSH2 0xD53 JUMP JUMPDEST SWAP1 POP PUSH2 0x2396 PUSH0 DUP4 PUSH0 DUP8 DUP6 DUP9 PUSH2 0x2570 JUMP JUMPDEST PUSH2 0x23A0 DUP5 DUP5 PUSH2 0x26BF JUMP JUMPDEST PUSH2 0x23AE PUSH0 DUP4 PUSH0 DUP8 DUP6 DUP9 PUSH2 0x2746 JUMP JUMPDEST POP POP POP POP JUMP JUMPDEST PUSH0 DUP1 PUSH1 0x5 DUP1 SLOAD SWAP1 POP EQ ISZERO DUP1 ISZERO PUSH2 0x23FC JUMPI POP DUP2 PUSH1 0x5 PUSH1 0x6 PUSH0 DUP6 DUP2 MSTORE PUSH1 0x20 ADD SWAP1 DUP2 MSTORE PUSH1 0x20 ADD PUSH0 KECCAK256 SLOAD DUP2 SLOAD DUP2 LT PUSH2 0x23EB JUMPI PUSH2 0x23EA PUSH2 0x3BCB JUMP JUMPDEST JUMPDEST SWAP1 PUSH0 MSTORE PUSH1 0x20 PUSH0 KECCAK256 SWAP1 PUSH1 0x6 MUL ADD PUSH0 ADD SLOAD EQ JUMPDEST SWAP1 POP SWAP2 SWAP1 POP JUMP JUMPDEST PUSH0 DUP1 PUSH0 SWAP1 POP PUSH27 0x184F03E93FF9F4DAA797ED6E38ED64BF6A1F010000000000000000 DUP4 LT PUSH2 0x245F JUMPI PUSH27 0x184F03E93FF9F4DAA797ED6E38ED64BF6A1F010000000000000000 DUP4 DUP2 PUSH2 0x2455 JUMPI PUSH2 0x2454 PUSH2 0x4274 JUMP JUMPDEST JUMPDEST DIV SWAP3 POP PUSH1 0x40 DUP2 ADD SWAP1 POP JUMPDEST PUSH14 0x4EE2D6D415B85ACEF8100000000 DUP4 LT PUSH2 0x249C JUMPI PUSH14 0x4EE2D6D415B85ACEF8100000000 DUP4 DUP2 PUSH2 0x2492 JUMPI PUSH2 0x2491 PUSH2 0x4274 JUMP JUMPDEST JUMPDEST DIV SWAP3 POP PUSH1 0x20 DUP2 ADD SWAP1 POP JUMPDEST PUSH7 0x2386F26FC10000 DUP4 LT PUSH2 0x24CB JUMPI PUSH7 0x2386F26FC10000 DUP4 DUP2 PUSH2 0x24C1 JUMPI PUSH2 0x24C0 PUSH2 0x4274 JUMP JUMPDEST JUMPDEST DIV SWAP3 POP PUSH1 0x10 DUP2 ADD SWAP1 POP JUMPDEST PUSH4 0x5F5E100 DUP4 LT PUSH2 0x24F4 JUMPI PUSH4 0x5F5E100 DUP4 DUP2 PUSH2 0x24EA JUMPI PUSH2 0x24E9 PUSH2 0x4274 JUMP JUMPDEST JUMPDEST DIV SWAP3 POP PUSH1 0x8 DUP2 ADD SWAP1 POP JUMPDEST PUSH2 0x2710 DUP4 LT PUSH2 0x2519 JUMPI PUSH2 0x2710 DUP4 DUP2 PUSH2 0x250F JUMPI PUSH2 0x250E PUSH2 0x4274 JUMP JUMPDEST JUMPDEST DIV SWAP3 POP PUSH1 0x4 DUP2 ADD SWAP1 POP JUMPDEST PUSH1 0x64 DUP4 LT PUSH2 0x253C JUMPI PUSH1 0x64 DUP4 DUP2 PUSH2 0x2532 JUMPI PUSH2 0x2531 PUSH2 0x4274 JUMP JUMPDEST JUMPDEST DIV SWAP3 POP PUSH1 0x2 DUP2 ADD SWAP1 POP JUMPDEST PUSH1 0xA DUP4 LT PUSH2 0x254B JUMPI PUSH1 0x1 DUP2 ADD SWAP1 POP JUMPDEST DUP1 SWAP2 POP POP SWAP2 SWAP1 POP JUMP JUMPDEST PUSH0 PUSH1 0x3 PUSH0 DUP2 SLOAD DUP1 SWAP3 SWAP2 SWAP1 PUSH2 0x2567 SWAP1 PUSH2 0x4A86 JUMP JUMPDEST SWAP2 SWAP1 POP SSTORE SWAP1 POP SWAP1 JUMP JUMPDEST POP POP POP POP POP POP JUMP JUMPDEST PUSH0 PUSH1 0x40 MLOAD DUP1 PUSH1 0xC0 ADD PUSH1 0x40 MSTORE DUP1 DUP5 DUP2 MSTORE PUSH1 0x20 ADD DUP4 DUP2 MSTORE PUSH1 0x20 ADD PUSH0 DUP2 MSTORE PUSH1 0x20 ADD DUP6 PUSH20 0xFFFFFFFFFFFFFFFFFFFFFFFFFFFFFFFFFFFFFFFF AND DUP2 MSTORE PUSH1 0x20 ADD PUSH0 PUSH20 0xFFFFFFFFFFFFFFFFFFFFFFFFFFFFFFFFFFFFFFFF AND DUP2 MSTORE PUSH1 0x20 ADD PUSH0 PUSH8 0xFFFFFFFFFFFFFFFF DUP2 GT ISZERO PUSH2 0x25E8 JUMPI PUSH2 0x25E7 PUSH2 0x3910 JUMP JUMPDEST JUMPDEST PUSH1 0x40 MLOAD SWAP1 DUP1 DUP3 MSTORE DUP1 PUSH1 0x20 MUL PUSH1 0x20 ADD DUP3 ADD PUSH1 0x40 MSTORE DUP1 ISZERO PUSH2 0x2616 JUMPI DUP2 PUSH1 0x20 ADD PUSH1 0x20 DUP3 MUL DUP1 CALLDATASIZE DUP4 CALLDATACOPY DUP1 DUP3 ADD SWAP2 POP POP SWAP1 POP JUMPDEST POP DUP2 MSTORE POP SWAP1 POP PUSH2 0x2625 DUP2 PUSH2 0x31DD JUMP JUMPDEST PUSH2 0x262F DUP5 DUP5 PUSH2 0x2BB4 JUMP JUMPDEST DUP3 DUP5 PUSH20 0xFFFFFFFFFFFFFFFFFFFFFFFFFFFFFFFFFFFFFFFF AND PUSH0 PUSH20 0xFFFFFFFFFFFFFFFFFFFFFFFFFFFFFFFFFFFFFFFF AND PUSH32 0xDDF252AD1BE2C89B69C2B068FC378DAA952BA7F163C4A11628F55A4DF523B3EF PUSH1 0x40 MLOAD PUSH1 0x40 MLOAD DUP1 SWAP2 SUB SWAP1 LOG4 DUP2 PUSH0 DUP5 PUSH32 0xE4F48C240D3B994948AA54F3E2F5FCA59263DFE1D52B6E4CF39A5D249B5CCB65 PUSH1 0x40 MLOAD PUSH1 0x40 MLOAD DUP1 SWAP2 SUB SWAP1 LOG4 POP POP POP POP JUMP JUMPDEST DUP1 PUSH1 0x5 PUSH1 0x6 PUSH0 DUP6 DUP2 MSTORE PUSH1 0x20 ADD SWAP1 DUP2 MSTORE PUSH1 0x20 ADD PUSH0 KECCAK256 SLOAD DUP2 SLOAD DUP2 LT PUSH2 0x26E5 JUMPI PUSH2 0x26E4 PUSH2 0x3BCB JUMP JUMPDEST JUMPDEST SWAP1 PUSH0 MSTORE PUSH1 0x20 PUSH0 KECCAK256 SWAP1 PUSH1 0x6 MUL ADD PUSH1 0x2 ADD PUSH0 DUP3 DUP3 SLOAD PUSH2 0x2702 SWAP2 SWAP1 PUSH2 0x4725 JUMP JUMPDEST SWAP3 POP POP DUP2 SWAP1 SSTORE POP DUP2 PUSH0 PUSH32 0xB2AAC84F3EC956911FD78EAE5311062972FF949F38412E8DA39069D9F068CC6 DUP4 PUSH1 0x40 MLOAD PUSH2 0x273A SWAP2 SWAP1 PUSH2 0x36B0 JUMP JUMPDEST PUSH1 0x40 MLOAD DUP1 SWAP2 SUB SWAP1 LOG3 POP POP JUMP JUMPDEST POP POP POP POP POP POP JUMP JUMPDEST PUSH0 DUP1 PUSH2 0x2759 DUP6 PUSH2 0xF10 JUMP JUMPDEST SWAP1 POP PUSH2 0x2764 DUP2 PUSH2 0x32EE JUMP JUMPDEST ISZERO PUSH2 0x2926 JUMPI DUP1 PUSH20 0xFFFFFFFFFFFFFFFFFFFFFFFFFFFFFFFFFFFFFFFF AND PUSH4 0x1FFC9A7 PUSH31 0x9CE20B00000000000000000000000000000000000000000000000000000000 PUSH1 0x40 MLOAD DUP3 PUSH4 0xFFFFFFFF AND PUSH1 0xE0 SHL DUP2 MSTORE PUSH1 0x4 ADD PUSH2 0x27C1 SWAP2 SWAP1 PUSH2 0x4ADC JUMP JUMPDEST PUSH1 0x20 PUSH1 0x40 MLOAD DUP1 DUP4 SUB DUP2 DUP7 GAS STATICCALL SWAP3 POP POP POP DUP1 ISZERO PUSH2 0x27FB JUMPI POP PUSH1 0x40 MLOAD RETURNDATASIZE PUSH1 0x1F NOT PUSH1 0x1F DUP3 ADD AND DUP3 ADD DUP1 PUSH1 0x40 MSTORE POP DUP2 ADD SWAP1 PUSH2 0x27F8 SWAP2 SWAP1 PUSH2 0x4B09 JUMP JUMPDEST PUSH1 0x1 JUMPDEST PUSH2 0x283A JUMPI RETURNDATASIZE DUP1 PUSH0 DUP2 EQ PUSH2 0x2829 JUMPI PUSH1 0x40 MLOAD SWAP2 POP PUSH1 0x1F NOT PUSH1 0x3F RETURNDATASIZE ADD AND DUP3 ADD PUSH1 0x40 MSTORE RETURNDATASIZE DUP3 MSTORE RETURNDATASIZE PUSH0 PUSH1 0x20 DUP5 ADD RETURNDATACOPY PUSH2 0x282E JUMP JUMPDEST PUSH1 0x60 SWAP2 POP JUMPDEST POP PUSH1 0x1 SWAP3 POP POP POP PUSH2 0x292C JUMP JUMPDEST DUP1 ISZERO PUSH2 0x291B JUMPI PUSH0 DUP3 PUSH20 0xFFFFFFFFFFFFFFFFFFFFFFFFFFFFFFFFFFFFFFFF AND PUSH3 0x9CE20B PUSH2 0x2864 PUSH2 0x16E5 JUMP JUMPDEST DUP11 DUP11 DUP11 DUP11 PUSH1 0x40 MLOAD DUP7 PUSH4 0xFFFFFFFF AND PUSH1 0xE0 SHL DUP2 MSTORE PUSH1 0x4 ADD PUSH2 0x2888 SWAP6 SWAP5 SWAP4 SWAP3 SWAP2 SWAP1 PUSH2 0x4B86 JUMP JUMPDEST PUSH1 0x20 PUSH1 0x40 MLOAD DUP1 DUP4 SUB DUP2 PUSH0 DUP8 GAS CALL ISZERO DUP1 ISZERO PUSH2 0x28A4 JUMPI RETURNDATASIZE PUSH0 DUP1 RETURNDATACOPY RETURNDATASIZE PUSH0 REVERT JUMPDEST POP POP POP POP PUSH1 0x40 MLOAD RETURNDATASIZE PUSH1 0x1F NOT PUSH1 0x1F DUP3 ADD AND DUP3 ADD DUP1 PUSH1 0x40 MSTORE POP DUP2 ADD SWAP1 PUSH2 0x28C8 SWAP2 SWAP1 PUSH2 0x4BF2 JUMP JUMPDEST SWAP1 POP PUSH3 0x9CE20B PUSH1 0xE0 SHL PUSH28 0xFFFFFFFFFFFFFFFFFFFFFFFFFFFFFFFFFFFFFFFFFFFFFFFFFFFFFFFF NOT AND DUP2 PUSH28 0xFFFFFFFFFFFFFFFFFFFFFFFFFFFFFFFFFFFFFFFFFFFFFFFFFFFFFFFF NOT AND EQ SWAP4 POP POP POP POP PUSH2 0x292C JUMP JUMPDEST PUSH1 0x1 SWAP3 POP POP POP PUSH2 0x292C JUMP JUMPDEST PUSH1 0x1 SWAP2 POP POP JUMPDEST SWAP5 SWAP4 POP POP POP POP JUMP JUMPDEST PUSH0 PUSH1 0x5 PUSH1 0x6 PUSH0 DUP5 DUP2 MSTORE PUSH1 0x20 ADD SWAP1 DUP2 MSTORE PUSH1 0x20 ADD PUSH0 KECCAK256 SLOAD DUP2 SLOAD DUP2 LT PUSH2 0x295A JUMPI PUSH2 0x2959 PUSH2 0x3BCB JUMP JUMPDEST JUMPDEST SWAP1 PUSH0 MSTORE PUSH1 0x20 PUSH0 KECCAK256 SWAP1 PUSH1 0x6 MUL ADD SWAP1 POP PUSH0 DUP2 PUSH1 0x5 ADD DUP1 SLOAD SWAP1 POP SWAP1 POP PUSH0 JUMPDEST DUP2 DUP2 LT ISZERO PUSH2 0x2A21 JUMPI PUSH0 DUP4 PUSH1 0x5 ADD DUP3 DUP2 SLOAD DUP2 LT PUSH2 0x2994 JUMPI PUSH2 0x2993 PUSH2 0x3BCB JUMP JUMPDEST JUMPDEST SWAP1 PUSH0 MSTORE PUSH1 0x20 PUSH0 KECCAK256 ADD PUSH0 SWAP1 SLOAD SWAP1 PUSH2 0x100 EXP SWAP1 DIV PUSH20 0xFFFFFFFFFFFFFFFFFFFFFFFFFFFFFFFFFFFFFFFF AND SWAP1 POP PUSH1 0x4 PUSH0 DUP7 DUP2 MSTORE PUSH1 0x20 ADD SWAP1 DUP2 MSTORE PUSH1 0x20 ADD PUSH0 KECCAK256 PUSH0 DUP3 PUSH20 0xFFFFFFFFFFFFFFFFFFFFFFFFFFFFFFFFFFFFFFFF AND PUSH20 0xFFFFFFFFFFFFFFFFFFFFFFFFFFFFFFFFFFFFFFFF AND DUP2 MSTORE PUSH1 0x20 ADD SWAP1 DUP2 MSTORE PUSH1 0x20 ADD PUSH0 KECCAK256 PUSH0 SWAP1 SSTORE POP DUP1 DUP1 PUSH2 0x2A19 SWAP1 PUSH2 0x4A86 JUMP JUMPDEST SWAP2 POP POP PUSH2 0x2975 JUMP JUMPDEST POP DUP2 PUSH1 0x5 ADD PUSH0 PUSH2 0x2A31 SWAP2 SWAP1 PUSH2 0x3305 JUMP JUMPDEST POP POP POP JUMP JUMPDEST PUSH0 PUSH1 0x5 PUSH1 0x6 PUSH0 DUP5 DUP2 MSTORE PUSH1 0x20 ADD SWAP1 DUP2 MSTORE PUSH1 0x20 ADD PUSH0 KECCAK256 SLOAD DUP2 SLOAD DUP2 LT PUSH2 0x2A5C JUMPI PUSH2 0x2A5B PUSH2 0x3BCB JUMP JUMPDEST JUMPDEST SWAP1 PUSH0 MSTORE PUSH1 0x20 PUSH0 KECCAK256 SWAP1 PUSH1 0x6 MUL ADD PUSH1 0x3 ADD PUSH0 PUSH2 0x100 EXP DUP2 SLOAD DUP2 PUSH20 0xFFFFFFFFFFFFFFFFFFFFFFFFFFFFFFFFFFFFFFFF MUL NOT AND SWAP1 DUP4 PUSH20 0xFFFFFFFFFFFFFFFFFFFFFFFFFFFFFFFFFFFFFFFF AND MUL OR SWAP1 SSTORE POP PUSH0 PUSH1 0x7 PUSH0 DUP5 PUSH20 0xFFFFFFFFFFFFFFFFFFFFFFFFFFFFFFFFFFFFFFFF AND PUSH20 0xFFFFFFFFFFFFFFFFFFFFFFFFFFFFFFFFFFFFFFFF AND DUP2 MSTORE PUSH1 0x20 ADD SWAP1 DUP2 MSTORE PUSH1 0x20 ADD PUSH0 KECCAK256 SWAP1 POP PUSH0 PUSH1 0x1 DUP3 PUSH0 ADD DUP1 SLOAD SWAP1 POP PUSH2 0x2AFC SWAP2 SWAP1 PUSH2 0x4336 JUMP JUMPDEST SWAP1 POP PUSH0 DUP3 PUSH0 ADD DUP3 DUP2 SLOAD DUP2 LT PUSH2 0x2B14 JUMPI PUSH2 0x2B13 PUSH2 0x3BCB JUMP JUMPDEST JUMPDEST SWAP1 PUSH0 MSTORE PUSH1 0x20 PUSH0 KECCAK256 ADD SLOAD SWAP1 POP PUSH0 DUP4 PUSH1 0x1 ADD PUSH0 DUP7 DUP2 MSTORE PUSH1 0x20 ADD SWAP1 DUP2 MSTORE PUSH1 0x20 ADD PUSH0 KECCAK256 SLOAD SWAP1 POP DUP2 DUP5 PUSH0 ADD DUP3 DUP2 SLOAD DUP2 LT PUSH2 0x2B4C JUMPI PUSH2 0x2B4B PUSH2 0x3BCB JUMP JUMPDEST JUMPDEST SWAP1 PUSH0 MSTORE PUSH1 0x20 PUSH0 KECCAK256 ADD DUP2 SWAP1 SSTORE POP DUP1 DUP5 PUSH1 0x1 ADD PUSH0 DUP5 DUP2 MSTORE PUSH1 0x20 ADD SWAP1 DUP2 MSTORE PUSH1 0x20 ADD PUSH0 KECCAK256 DUP2 SWAP1 SSTORE POP DUP4 PUSH1 0x1 ADD PUSH0 DUP7 DUP2 MSTORE PUSH1 0x20 ADD SWAP1 DUP2 MSTORE PUSH1 0x20 ADD PUSH0 KECCAK256 PUSH0 SWAP1 SSTORE DUP4 PUSH0 ADD DUP1 SLOAD DUP1 PUSH2 0x2B99 JUMPI PUSH2 0x2B98 PUSH2 0x4C1D JUMP JUMPDEST JUMPDEST PUSH1 0x1 SWAP1 SUB DUP2 DUP2 SWAP1 PUSH0 MSTORE PUSH1 0x20 PUSH0 KECCAK256 ADD PUSH0 SWAP1 SSTORE SWAP1 SSTORE POP POP POP POP POP POP JUMP JUMPDEST DUP2 PUSH1 0x5 PUSH1 0x6 PUSH0 DUP5 DUP2 MSTORE PUSH1 0x20 ADD SWAP1 DUP2 MSTORE PUSH1 0x20 ADD PUSH0 KECCAK256 SLOAD DUP2 SLOAD DUP2 LT PUSH2 0x2BDA JUMPI PUSH2 0x2BD9 PUSH2 0x3BCB JUMP JUMPDEST JUMPDEST SWAP1 PUSH0 MSTORE PUSH1 0x20 PUSH0 KECCAK256 SWAP1 PUSH1 0x6 MUL ADD PUSH1 0x3 ADD PUSH0 PUSH2 0x100 EXP DUP2 SLOAD DUP2 PUSH20 0xFFFFFFFFFFFFFFFFFFFFFFFFFFFFFFFFFFFFFFFF MUL NOT AND SWAP1 DUP4 PUSH20 0xFFFFFFFFFFFFFFFFFFFFFFFFFFFFFFFFFFFFFFFF AND MUL OR SWAP1 SSTORE POP PUSH1 0x7 PUSH0 DUP4 PUSH20 0xFFFFFFFFFFFFFFFFFFFFFFFFFFFFFFFFFFFFFFFF AND PUSH20 0xFFFFFFFFFFFFFFFFFFFFFFFFFFFFFFFFFFFFFFFF AND DUP2 MSTORE PUSH1 0x20 ADD SWAP1 DUP2 MSTORE PUSH1 0x20 ADD PUSH0 KECCAK256 PUSH0 ADD DUP1 SLOAD SWAP1 POP PUSH1 0x7 PUSH0 DUP5 PUSH20 0xFFFFFFFFFFFFFFFFFFFFFFFFFFFFFFFFFFFFFFFF AND PUSH20 0xFFFFFFFFFFFFFFFFFFFFFFFFFFFFFFFFFFFFFFFF AND DUP2 MSTORE PUSH1 0x20 ADD SWAP1 DUP2 MSTORE PUSH1 0x20 ADD PUSH0 KECCAK256 PUSH1 0x1 ADD PUSH0 DUP4 DUP2 MSTORE PUSH1 0x20 ADD SWAP1 DUP2 MSTORE PUSH1 0x20 ADD PUSH0 KECCAK256 DUP2 SWAP1 SSTORE POP PUSH1 0x7 PUSH0 DUP4 PUSH20 0xFFFFFFFFFFFFFFFFFFFFFFFFFFFFFFFFFFFFFFFF AND PUSH20 0xFFFFFFFFFFFFFFFFFFFFFFFFFFFFFFFFFFFFFFFF AND DUP2 MSTORE PUSH1 0x20 ADD SWAP1 DUP2 MSTORE PUSH1 0x20 ADD PUSH0 KECCAK256 PUSH0 ADD DUP2 SWAP1 DUP1 PUSH1 0x1 DUP2 SLOAD ADD DUP1 DUP3 SSTORE DUP1 SWAP2 POP POP PUSH1 0x1 SWAP1 SUB SWAP1 PUSH0 MSTORE PUSH1 0x20 PUSH0 KECCAK256 ADD PUSH0 SWAP1 SWAP2 SWAP1 SWAP2 SWAP1 SWAP2 POP SSTORE POP POP JUMP JUMPDEST PUSH0 DUP1 PUSH1 0x5 PUSH1 0x6 PUSH0 DUP6 DUP2 MSTORE PUSH1 0x20 ADD SWAP1 DUP2 MSTORE PUSH1 0x20 ADD PUSH0 KECCAK256 SLOAD DUP2 SLOAD DUP2 LT PUSH2 0x2D4A JUMPI PUSH2 0x2D49 PUSH2 0x3BCB JUMP JUMPDEST JUMPDEST SWAP1 PUSH0 MSTORE PUSH1 0x20 PUSH0 KECCAK256 SWAP1 PUSH1 0x6 MUL ADD PUSH1 0x5 ADD DUP1 SLOAD SWAP1 POP SWAP1 POP PUSH0 JUMPDEST DUP2 DUP2 LT ISZERO PUSH2 0x2E27 JUMPI DUP5 PUSH20 0xFFFFFFFFFFFFFFFFFFFFFFFFFFFFFFFFFFFFFFFF AND PUSH1 0x5 PUSH1 0x6 PUSH0 DUP8 DUP2 MSTORE PUSH1 0x20 ADD SWAP1 DUP2 MSTORE PUSH1 0x20 ADD PUSH0 KECCAK256 SLOAD DUP2 SLOAD DUP2 LT PUSH2 0x2DA5 JUMPI PUSH2 0x2DA4 PUSH2 0x3BCB JUMP JUMPDEST JUMPDEST SWAP1 PUSH0 MSTORE PUSH1 0x20 PUSH0 KECCAK256 SWAP1 PUSH1 0x6 MUL ADD PUSH1 0x5 ADD DUP3 DUP2 SLOAD DUP2 LT PUSH2 0x2DC6 JUMPI PUSH2 0x2DC5 PUSH2 0x3BCB JUMP JUMPDEST JUMPDEST SWAP1 PUSH0 MSTORE PUSH1 0x20 PUSH0 KECCAK256 ADD PUSH0 SWAP1 SLOAD SWAP1 PUSH2 0x100 EXP SWAP1 DIV PUSH20 0xFFFFFFFFFFFFFFFFFFFFFFFFFFFFFFFFFFFFFFFF AND PUSH20 0xFFFFFFFFFFFFFFFFFFFFFFFFFFFFFFFFFFFFFFFF AND SUB PUSH2 0x2E14 JUMPI PUSH1 0x1 SWAP3 POP POP POP PUSH2 0x2E2D JUMP JUMPDEST DUP1 DUP1 PUSH2 0x2E1F SWAP1 PUSH2 0x4A86 JUMP JUMPDEST SWAP2 POP POP PUSH2 0x2D61 JUMP JUMPDEST POP PUSH0 SWAP2 POP POP JUMPDEST SWAP3 SWAP2 POP POP JUMP JUMPDEST PUSH0 PUSH2 0x2E3D DUP5 PUSH2 0x32EE JUMP JUMPDEST ISZERO PUSH2 0x2F92 JUMPI DUP4 PUSH20 0xFFFFFFFFFFFFFFFFFFFFFFFFFFFFFFFFFFFFFFFF AND PUSH4 0x150B7A02 PUSH2 0x2E66 PUSH2 0x16E5 JUMP JUMPDEST DUP8 DUP7 DUP7 PUSH1 0x40 MLOAD DUP6 PUSH4 0xFFFFFFFF AND PUSH1 0xE0 SHL DUP2 MSTORE PUSH1 0x4 ADD PUSH2 0x2E88 SWAP5 SWAP4 SWAP3 SWAP2 SWAP1 PUSH2 0x4C4A JUMP JUMPDEST PUSH1 0x20 PUSH1 0x40 MLOAD DUP1 DUP4 SUB DUP2 PUSH0 DUP8 GAS CALL SWAP3 POP POP POP DUP1 ISZERO PUSH2 0x2EC3 JUMPI POP PUSH1 0x40 MLOAD RETURNDATASIZE PUSH1 0x1F NOT PUSH1 0x1F DUP3 ADD AND DUP3 ADD DUP1 PUSH1 0x40 MSTORE POP DUP2 ADD SWAP1 PUSH2 0x2EC0 SWAP2 SWAP1 PUSH2 0x4BF2 JUMP JUMPDEST PUSH1 0x1 JUMPDEST PUSH2 0x2F42 JUMPI RETURNDATASIZE DUP1 PUSH0 DUP2 EQ PUSH2 0x2EF1 JUMPI PUSH1 0x40 MLOAD SWAP2 POP PUSH1 0x1F NOT PUSH1 0x3F RETURNDATASIZE ADD AND DUP3 ADD PUSH1 0x40 MSTORE RETURNDATASIZE DUP3 MSTORE RETURNDATASIZE PUSH0 PUSH1 0x20 DUP5 ADD RETURNDATACOPY PUSH2 0x2EF6 JUMP JUMPDEST PUSH1 0x60 SWAP2 POP JUMPDEST POP PUSH0 DUP2 MLOAD SUB PUSH2 0x2F3A JUMPI PUSH1 0x40 MLOAD PUSH32 0x8C379A000000000000000000000000000000000000000000000000000000000 DUP2 MSTORE PUSH1 0x4 ADD PUSH2 0x2F31 SWAP1 PUSH2 0x4D04 JUMP JUMPDEST PUSH1 0x40 MLOAD DUP1 SWAP2 SUB SWAP1 REVERT JUMPDEST DUP1 MLOAD DUP2 PUSH1 0x20 ADD REVERT JUMPDEST PUSH4 0x150B7A02 PUSH1 0xE0 SHL PUSH28 0xFFFFFFFFFFFFFFFFFFFFFFFFFFFFFFFFFFFFFFFFFFFFFFFFFFFFFFFF NOT AND DUP2 PUSH28 0xFFFFFFFFFFFFFFFFFFFFFFFFFFFFFFFFFFFFFFFFFFFFFFFFFFFFFFFF NOT AND EQ SWAP2 POP POP PUSH2 0x2F97 JUMP JUMPDEST PUSH1 0x1 SWAP1 POP JUMPDEST SWAP5 SWAP4 POP POP POP POP JUMP JUMPDEST PUSH1 0x60 PUSH0 DUP4 SWAP1 POP PUSH0 PUSH1 0x2 DUP5 PUSH1 0x2 PUSH2 0x2FB5 SWAP2 SWAP1 PUSH2 0x4D22 JUMP JUMPDEST PUSH2 0x2FBF SWAP2 SWAP1 PUSH2 0x4725 JUMP JUMPDEST PUSH8 0xFFFFFFFFFFFFFFFF DUP2 GT ISZERO PUSH2 0x2FD8 JUMPI PUSH2 0x2FD7 PUSH2 0x3910 JUMP JUMPDEST JUMPDEST PUSH1 0x40 MLOAD SWAP1 DUP1 DUP3 MSTORE DUP1 PUSH1 0x1F ADD PUSH1 0x1F NOT AND PUSH1 0x20 ADD DUP3 ADD PUSH1 0x40 MSTORE DUP1 ISZERO PUSH2 0x300A JUMPI DUP2 PUSH1 0x20 ADD PUSH1 0x1 DUP3 MUL DUP1 CALLDATASIZE DUP4 CALLDATACOPY DUP1 DUP3 ADD SWAP2 POP POP SWAP1 POP JUMPDEST POP SWAP1 POP PUSH32 0x3000000000000000000000000000000000000000000000000000000000000000 DUP2 PUSH0 DUP2 MLOAD DUP2 LT PUSH2 0x3041 JUMPI PUSH2 0x3040 PUSH2 0x3BCB JUMP JUMPDEST JUMPDEST PUSH1 0x20 ADD ADD SWAP1 PUSH31 0xFFFFFFFFFFFFFFFFFFFFFFFFFFFFFFFFFFFFFFFFFFFFFFFFFFFFFFFFFFFFFF NOT AND SWAP1 DUP2 PUSH0 BYTE SWAP1 MSTORE8 POP PUSH32 0x7800000000000000000000000000000000000000000000000000000000000000 DUP2 PUSH1 0x1 DUP2 MLOAD DUP2 LT PUSH2 0x30A4 JUMPI PUSH2 0x30A3 PUSH2 0x3BCB JUMP JUMPDEST JUMPDEST PUSH1 0x20 ADD ADD SWAP1 PUSH31 0xFFFFFFFFFFFFFFFFFFFFFFFFFFFFFFFFFFFFFFFFFFFFFFFFFFFFFFFFFFFFFF NOT AND SWAP1 DUP2 PUSH0 BYTE SWAP1 MSTORE8 POP PUSH0 PUSH1 0x1 DUP6 PUSH1 0x2 PUSH2 0x30E2 SWAP2 SWAP1 PUSH2 0x4D22 JUMP JUMPDEST PUSH2 0x30EC SWAP2 SWAP1 PUSH2 0x4725 JUMP JUMPDEST SWAP1 POP JUMPDEST PUSH1 0x1 DUP2 GT ISZERO PUSH2 0x318B JUMPI PUSH32 0x3031323334353637383961626364656600000000000000000000000000000000 PUSH1 0xF DUP5 AND PUSH1 0x10 DUP2 LT PUSH2 0x312E JUMPI PUSH2 0x312D PUSH2 0x3BCB JUMP JUMPDEST JUMPDEST BYTE PUSH1 0xF8 SHL DUP3 DUP3 DUP2 MLOAD DUP2 LT PUSH2 0x3145 JUMPI PUSH2 0x3144 PUSH2 0x3BCB JUMP JUMPDEST JUMPDEST PUSH1 0x20 ADD ADD SWAP1 PUSH31 0xFFFFFFFFFFFFFFFFFFFFFFFFFFFFFFFFFFFFFFFFFFFFFFFFFFFFFFFFFFFFFF NOT AND SWAP1 DUP2 PUSH0 BYTE SWAP1 MSTORE8 POP PUSH1 0x4 DUP4 SWAP1 SHR SWAP3 POP DUP1 PUSH2 0x3184 SWAP1 PUSH2 0x4D63 JUMP JUMPDEST SWAP1 POP PUSH2 0x30EF JUMP JUMPDEST POP PUSH0 DUP3 EQ PUSH2 0x31D2 JUMPI DUP5 DUP5 PUSH1 0x40 MLOAD PUSH32 0xE22E27EB00000000000000000000000000000000000000000000000000000000 DUP2 MSTORE PUSH1 0x4 ADD PUSH2 0x31C9 SWAP3 SWAP2 SWAP1 PUSH2 0x4D8A JUMP JUMPDEST PUSH1 0x40 MLOAD DUP1 SWAP2 SUB SWAP1 REVERT JUMPDEST DUP1 SWAP3 POP POP POP SWAP3 SWAP2 POP POP JUMP JUMPDEST PUSH1 0x5 DUP1 SLOAD SWAP1 POP PUSH1 0x6 PUSH0 DUP4 PUSH0 ADD MLOAD DUP2 MSTORE PUSH1 0x20 ADD SWAP1 DUP2 MSTORE PUSH1 0x20 ADD PUSH0 KECCAK256 DUP2 SWAP1 SSTORE POP PUSH1 0x5 DUP2 SWAP1 DUP1 PUSH1 0x1 DUP2 SLOAD ADD DUP1 DUP3 SSTORE DUP1 SWAP2 POP POP PUSH1 0x1 SWAP1 SUB SWAP1 PUSH0 MSTORE PUSH1 0x20 PUSH0 KECCAK256 SWAP1 PUSH1 0x6 MUL ADD PUSH0 SWAP1 SWAP2 SWAP1 SWAP2 SWAP1 SWAP2 POP PUSH0 DUP3 ADD MLOAD DUP2 PUSH0 ADD SSTORE PUSH1 0x20 DUP3 ADD MLOAD DUP2 PUSH1 0x1 ADD SSTORE PUSH1 0x40 DUP3 ADD MLOAD DUP2 PUSH1 0x2 ADD SSTORE PUSH1 0x60 DUP3 ADD MLOAD DUP2 PUSH1 0x3 ADD PUSH0 PUSH2 0x100 EXP DUP2 SLOAD DUP2 PUSH20 0xFFFFFFFFFFFFFFFFFFFFFFFFFFFFFFFFFFFFFFFF MUL NOT AND SWAP1 DUP4 PUSH20 0xFFFFFFFFFFFFFFFFFFFFFFFFFFFFFFFFFFFFFFFF AND MUL OR SWAP1 SSTORE POP PUSH1 0x80 DUP3 ADD MLOAD DUP2 PUSH1 0x4 ADD PUSH0 PUSH2 0x100 EXP DUP2 SLOAD DUP2 PUSH20 0xFFFFFFFFFFFFFFFFFFFFFFFFFFFFFFFFFFFFFFFF MUL NOT AND SWAP1 DUP4 PUSH20 0xFFFFFFFFFFFFFFFFFFFFFFFFFFFFFFFFFFFFFFFF AND MUL OR SWAP1 SSTORE POP PUSH1 0xA0 DUP3 ADD MLOAD DUP2 PUSH1 0x5 ADD SWAP1 DUP1 MLOAD SWAP1 PUSH1 0x20 ADD SWAP1 PUSH2 0x32E8 SWAP3 SWAP2 SWAP1 PUSH2 0x3323 JUMP JUMPDEST POP POP POP POP JUMP JUMPDEST PUSH0 DUP1 DUP3 EXTCODESIZE SWAP1 POP PUSH0 DUP2 PUSH4 0xFFFFFFFF AND GT SWAP2 POP POP SWAP2 SWAP1 POP JUMP JUMPDEST POP DUP1 SLOAD PUSH0 DUP3 SSTORE SWAP1 PUSH0 MSTORE PUSH1 0x20 PUSH0 KECCAK256 SWAP1 DUP2 ADD SWAP1 PUSH2 0x3320 SWAP2 SWAP1 PUSH2 0x33AA JUMP JUMPDEST POP JUMP JUMPDEST DUP3 DUP1 SLOAD DUP3 DUP3 SSTORE SWAP1 PUSH0 MSTORE PUSH1 0x20 PUSH0 KECCAK256 SWAP1 DUP2 ADD SWAP3 DUP3 ISZERO PUSH2 0x3399 JUMPI SWAP2 PUSH1 0x20 MUL DUP3 ADD JUMPDEST DUP3 DUP2 GT ISZERO PUSH2 0x3398 JUMPI DUP3 MLOAD DUP3 PUSH0 PUSH2 0x100 EXP DUP2 SLOAD DUP2 PUSH20 0xFFFFFFFFFFFFFFFFFFFFFFFFFFFFFFFFFFFFFFFF MUL NOT AND SWAP1 DUP4 PUSH20 0xFFFFFFFFFFFFFFFFFFFFFFFFFFFFFFFFFFFFFFFF AND MUL OR SWAP1 SSTORE POP SWAP2 PUSH1 0x20 ADD SWAP2 SWAP1 PUSH1 0x1 ADD SWAP1 PUSH2 0x3341 JUMP JUMPDEST JUMPDEST POP SWAP1 POP PUSH2 0x33A6 SWAP2 SWAP1 PUSH2 0x33AA JUMP JUMPDEST POP SWAP1 JUMP JUMPDEST JUMPDEST DUP1 DUP3 GT ISZERO PUSH2 0x33C1 JUMPI PUSH0 DUP2 PUSH0 SWAP1 SSTORE POP PUSH1 0x1 ADD PUSH2 0x33AB JUMP JUMPDEST POP SWAP1 JUMP JUMPDEST PUSH0 PUSH1 0x40 MLOAD SWAP1 POP SWAP1 JUMP JUMPDEST PUSH0 DUP1 REVERT JUMPDEST PUSH0 DUP1 REVERT JUMPDEST PUSH0 PUSH32 0xFFFFFFFF00000000000000000000000000000000000000000000000000000000 DUP3 AND SWAP1 POP SWAP2 SWAP1 POP JUMP JUMPDEST PUSH2 0x340A DUP2 PUSH2 0x33D6 JUMP JUMPDEST DUP2 EQ PUSH2 0x3414 JUMPI PUSH0 DUP1 REVERT JUMPDEST POP JUMP JUMPDEST PUSH0 DUP2 CALLDATALOAD SWAP1 POP PUSH2 0x3425 DUP2 PUSH2 0x3401 JUMP JUMPDEST SWAP3 SWAP2 POP POP JUMP JUMPDEST PUSH0 PUSH1 0x20 DUP3 DUP5 SUB SLT ISZERO PUSH2 0x3440 JUMPI PUSH2 0x343F PUSH2 0x33CE JUMP JUMPDEST JUMPDEST PUSH0 PUSH2 0x344D DUP5 DUP3 DUP6 ADD PUSH2 0x3417 JUMP JUMPDEST SWAP2 POP POP SWAP3 SWAP2 POP POP JUMP JUMPDEST PUSH0 DUP2 ISZERO ISZERO SWAP1 POP SWAP2 SWAP1 POP JUMP JUMPDEST PUSH2 0x346A DUP2 PUSH2 0x3456 JUMP JUMPDEST DUP3 MSTORE POP POP JUMP JUMPDEST PUSH0 PUSH1 0x20 DUP3 ADD SWAP1 POP PUSH2 0x3483 PUSH0 DUP4 ADD DUP5 PUSH2 0x3461 JUMP JUMPDEST SWAP3 SWAP2 POP POP JUMP JUMPDEST PUSH0 DUP2 MLOAD SWAP1 POP SWAP2 SWAP1 POP JUMP JUMPDEST PUSH0 DUP3 DUP3 MSTORE PUSH1 0x20 DUP3 ADD SWAP1 POP SWAP3 SWAP2 POP POP JUMP JUMPDEST PUSH0 JUMPDEST DUP4 DUP2 LT ISZERO PUSH2 0x34C0 JUMPI DUP1 DUP3 ADD MLOAD DUP2 DUP5 ADD MSTORE PUSH1 0x20 DUP2 ADD SWAP1 POP PUSH2 0x34A5 JUMP JUMPDEST PUSH0 DUP5 DUP5 ADD MSTORE POP POP POP POP JUMP JUMPDEST PUSH0 PUSH1 0x1F NOT PUSH1 0x1F DUP4 ADD AND SWAP1 POP SWAP2 SWAP1 POP JUMP JUMPDEST PUSH0 PUSH2 0x34E5 DUP3 PUSH2 0x3489 JUMP JUMPDEST PUSH2 0x34EF DUP2 DUP6 PUSH2 0x3493 JUMP JUMPDEST SWAP4 POP PUSH2 0x34FF DUP2 DUP6 PUSH1 0x20 DUP7 ADD PUSH2 0x34A3 JUMP JUMPDEST PUSH2 0x3508 DUP2 PUSH2 0x34CB JUMP JUMPDEST DUP5 ADD SWAP2 POP POP SWAP3 SWAP2 POP POP JUMP JUMPDEST PUSH0 PUSH1 0x20 DUP3 ADD SWAP1 POP DUP2 DUP2 SUB PUSH0 DUP4 ADD MSTORE PUSH2 0x352B DUP2 DUP5 PUSH2 0x34DB JUMP JUMPDEST SWAP1 POP SWAP3 SWAP2 POP POP JUMP JUMPDEST PUSH0 DUP2 SWAP1 POP SWAP2 SWAP1 POP JUMP JUMPDEST PUSH2 0x3545 DUP2 PUSH2 0x3533 JUMP JUMPDEST DUP2 EQ PUSH2 0x354F JUMPI PUSH0 DUP1 REVERT JUMPDEST POP JUMP JUMPDEST PUSH0 DUP2 CALLDATALOAD SWAP1 POP PUSH2 0x3560 DUP2 PUSH2 0x353C JUMP JUMPDEST SWAP3 SWAP2 POP POP JUMP JUMPDEST PUSH0 PUSH1 0x20 DUP3 DUP5 SUB SLT ISZERO PUSH2 0x357B JUMPI PUSH2 0x357A PUSH2 0x33CE JUMP JUMPDEST JUMPDEST PUSH0 PUSH2 0x3588 DUP5 DUP3 DUP6 ADD PUSH2 0x3552 JUMP JUMPDEST SWAP2 POP POP SWAP3 SWAP2 POP POP JUMP JUMPDEST PUSH0 PUSH20 0xFFFFFFFFFFFFFFFFFFFFFFFFFFFFFFFFFFFFFFFF DUP3 AND SWAP1 POP SWAP2 SWAP1 POP JUMP JUMPDEST PUSH0 PUSH2 0x35BA DUP3 PUSH2 0x3591 JUMP JUMPDEST SWAP1 POP SWAP2 SWAP1 POP JUMP JUMPDEST PUSH2 0x35CA DUP2 PUSH2 0x35B0 JUMP JUMPDEST DUP3 MSTORE POP POP JUMP JUMPDEST PUSH0 PUSH1 0x20 DUP3 ADD SWAP1 POP PUSH2 0x35E3 PUSH0 DUP4 ADD DUP5 PUSH2 0x35C1 JUMP JUMPDEST SWAP3 SWAP2 POP POP JUMP JUMPDEST PUSH2 0x35F2 DUP2 PUSH2 0x35B0 JUMP JUMPDEST DUP2 EQ PUSH2 0x35FC JUMPI PUSH0 DUP1 REVERT JUMPDEST POP JUMP JUMPDEST PUSH0 DUP2 CALLDATALOAD SWAP1 POP PUSH2 0x360D DUP2 PUSH2 0x35E9 JUMP JUMPDEST SWAP3 SWAP2 POP POP JUMP JUMPDEST PUSH0 DUP1 PUSH1 0x40 DUP4 DUP6 SUB SLT ISZERO PUSH2 0x3629 JUMPI PUSH2 0x3628 PUSH2 0x33CE JUMP JUMPDEST JUMPDEST PUSH0 PUSH2 0x3636 DUP6 DUP3 DUP7 ADD PUSH2 0x35FF JUMP JUMPDEST SWAP3 POP POP PUSH1 0x20 PUSH2 0x3647 DUP6 DUP3 DUP7 ADD PUSH2 0x3552 JUMP JUMPDEST SWAP2 POP POP SWAP3 POP SWAP3 SWAP1 POP JUMP JUMPDEST PUSH0 DUP1 PUSH0 PUSH1 0x60 DUP5 DUP7 SUB SLT ISZERO PUSH2 0x3668 JUMPI PUSH2 0x3667 PUSH2 0x33CE JUMP JUMPDEST JUMPDEST PUSH0 PUSH2 0x3675 DUP7 DUP3 DUP8 ADD PUSH2 0x3552 JUMP JUMPDEST SWAP4 POP POP PUSH1 0x20 PUSH2 0x3686 DUP7 DUP3 DUP8 ADD PUSH2 0x35FF JUMP JUMPDEST SWAP3 POP POP PUSH1 0x40 PUSH2 0x3697 DUP7 DUP3 DUP8 ADD PUSH2 0x3552 JUMP JUMPDEST SWAP2 POP POP SWAP3 POP SWAP3 POP SWAP3 JUMP JUMPDEST PUSH2 0x36AA DUP2 PUSH2 0x3533 JUMP JUMPDEST DUP3 MSTORE POP POP JUMP JUMPDEST PUSH0 PUSH1 0x20 DUP3 ADD SWAP1 POP PUSH2 0x36C3 PUSH0 DUP4 ADD DUP5 PUSH2 0x36A1 JUMP JUMPDEST SWAP3 SWAP2 POP POP JUMP JUMPDEST PUSH0 DUP1 PUSH0 PUSH1 0x60 DUP5 DUP7 SUB SLT ISZERO PUSH2 0x36E0 JUMPI PUSH2 0x36DF PUSH2 0x33CE JUMP JUMPDEST JUMPDEST PUSH0 PUSH2 0x36ED DUP7 DUP3 DUP8 ADD PUSH2 0x35FF JUMP JUMPDEST SWAP4 POP POP PUSH1 0x20 PUSH2 0x36FE DUP7 DUP3 DUP8 ADD PUSH2 0x35FF JUMP JUMPDEST SWAP3 POP POP PUSH1 0x40 PUSH2 0x370F DUP7 DUP3 DUP8 ADD PUSH2 0x3552 JUMP JUMPDEST SWAP2 POP POP SWAP3 POP SWAP3 POP SWAP3 JUMP JUMPDEST PUSH0 DUP1 PUSH0 PUSH1 0x60 DUP5 DUP7 SUB SLT ISZERO PUSH2 0x3730 JUMPI PUSH2 0x372F PUSH2 0x33CE JUMP JUMPDEST JUMPDEST PUSH0 PUSH2 0x373D DUP7 DUP3 DUP8 ADD PUSH2 0x3552 JUMP JUMPDEST SWAP4 POP POP PUSH1 0x20 PUSH2 0x374E DUP7 DUP3 DUP8 ADD PUSH2 0x3552 JUMP JUMPDEST SWAP3 POP POP PUSH1 0x40 PUSH2 0x375F DUP7 DUP3 DUP8 ADD PUSH2 0x3552 JUMP JUMPDEST SWAP2 POP POP SWAP3 POP SWAP3 POP SWAP3 JUMP JUMPDEST PUSH0 PUSH1 0xFF DUP3 AND SWAP1 POP SWAP2 SWAP1 POP JUMP JUMPDEST PUSH2 0x377E DUP2 PUSH2 0x3769 JUMP JUMPDEST DUP3 MSTORE POP POP JUMP JUMPDEST PUSH0 PUSH1 0x20 DUP3 ADD SWAP1 POP PUSH2 0x3797 PUSH0 DUP4 ADD DUP5 PUSH2 0x3775 JUMP JUMPDEST SWAP3 SWAP2 POP POP JUMP JUMPDEST PUSH0 PUSH1 0x20 DUP3 DUP5 SUB SLT ISZERO PUSH2 0x37B2 JUMPI PUSH2 0x37B1 PUSH2 0x33CE JUMP JUMPDEST JUMPDEST PUSH0 PUSH2 0x37BF DUP5 DUP3 DUP6 ADD PUSH2 0x35FF JUMP JUMPDEST SWAP2 POP POP SWAP3 SWAP2 POP POP JUMP JUMPDEST PUSH0 DUP2 SWAP1 POP SWAP2 SWAP1 POP JUMP JUMPDEST PUSH0 PUSH2 0x37EB PUSH2 0x37E6 PUSH2 0x37E1 DUP5 PUSH2 0x3591 JUMP JUMPDEST PUSH2 0x37C8 JUMP JUMPDEST PUSH2 0x3591 JUMP JUMPDEST SWAP1 POP SWAP2 SWAP1 POP JUMP JUMPDEST PUSH0 PUSH2 0x37FC DUP3 PUSH2 0x37D1 JUMP JUMPDEST SWAP1 POP SWAP2 SWAP1 POP JUMP JUMPDEST PUSH0 PUSH2 0x380D DUP3 PUSH2 0x37F2 JUMP JUMPDEST SWAP1 POP SWAP2 SWAP1 POP JUMP JUMPDEST PUSH2 0x381D DUP2 PUSH2 0x3803 JUMP JUMPDEST DUP3 MSTORE POP POP JUMP JUMPDEST PUSH0 PUSH1 0x20 DUP3 ADD SWAP1 POP PUSH2 0x3836 PUSH0 DUP4 ADD DUP5 PUSH2 0x3814 JUMP JUMPDEST SWAP3 SWAP2 POP POP JUMP JUMPDEST PUSH2 0x3845 DUP2 PUSH2 0x3456 JUMP JUMPDEST DUP2 EQ PUSH2 0x384F JUMPI PUSH0 DUP1 REVERT JUMPDEST POP JUMP JUMPDEST PUSH0 DUP2 CALLDATALOAD SWAP1 POP PUSH2 0x3860 DUP2 PUSH2 0x383C JUMP JUMPDEST SWAP3 SWAP2 POP POP JUMP JUMPDEST PUSH0 DUP1 PUSH1 0x40 DUP4 DUP6 SUB SLT ISZERO PUSH2 0x387C JUMPI PUSH2 0x387B PUSH2 0x33CE JUMP JUMPDEST JUMPDEST PUSH0 PUSH2 0x3889 DUP6 DUP3 DUP7 ADD PUSH2 0x35FF JUMP JUMPDEST SWAP3 POP POP PUSH1 0x20 PUSH2 0x389A DUP6 DUP3 DUP7 ADD PUSH2 0x3852 JUMP JUMPDEST SWAP2 POP POP SWAP3 POP SWAP3 SWAP1 POP JUMP JUMPDEST PUSH0 DUP1 PUSH0 DUP1 PUSH1 0x80 DUP6 DUP8 SUB SLT ISZERO PUSH2 0x38BC JUMPI PUSH2 0x38BB PUSH2 0x33CE JUMP JUMPDEST JUMPDEST PUSH0 PUSH2 0x38C9 DUP8 DUP3 DUP9 ADD PUSH2 0x35FF JUMP JUMPDEST SWAP5 POP POP PUSH1 0x20 PUSH2 0x38DA DUP8 DUP3 DUP9 ADD PUSH2 0x3552 JUMP JUMPDEST SWAP4 POP POP PUSH1 0x40 PUSH2 0x38EB DUP8 DUP3 DUP9 ADD PUSH2 0x3552 JUMP JUMPDEST SWAP3 POP POP PUSH1 0x60 PUSH2 0x38FC DUP8 DUP3 DUP9 ADD PUSH2 0x3552 JUMP JUMPDEST SWAP2 POP POP SWAP3 SWAP6 SWAP2 SWAP5 POP SWAP3 POP JUMP JUMPDEST PUSH0 DUP1 REVERT JUMPDEST PUSH0 DUP1 REVERT JUMPDEST PUSH32 0x4E487B7100000000000000000000000000000000000000000000000000000000 PUSH0 MSTORE PUSH1 0x41 PUSH1 0x4 MSTORE PUSH1 0x24 PUSH0 REVERT JUMPDEST PUSH2 0x3946 DUP3 PUSH2 0x34CB JUMP JUMPDEST DUP2 ADD DUP2 DUP2 LT PUSH8 0xFFFFFFFFFFFFFFFF DUP3 GT OR ISZERO PUSH2 0x3965 JUMPI PUSH2 0x3964 PUSH2 0x3910 JUMP JUMPDEST JUMPDEST DUP1 PUSH1 0x40 MSTORE POP POP POP JUMP JUMPDEST PUSH0 PUSH2 0x3977 PUSH2 0x33C5 JUMP JUMPDEST SWAP1 POP PUSH2 0x3983 DUP3 DUP3 PUSH2 0x393D JUMP JUMPDEST SWAP2 SWAP1 POP JUMP JUMPDEST PUSH0 PUSH8 0xFFFFFFFFFFFFFFFF DUP3 GT ISZERO PUSH2 0x39A2 JUMPI PUSH2 0x39A1 PUSH2 0x3910 JUMP JUMPDEST JUMPDEST PUSH2 0x39AB DUP3 PUSH2 0x34CB JUMP JUMPDEST SWAP1 POP PUSH1 0x20 DUP2 ADD SWAP1 POP SWAP2 SWAP1 POP JUMP JUMPDEST DUP3 DUP2 DUP4 CALLDATACOPY PUSH0 DUP4 DUP4 ADD MSTORE POP POP POP JUMP JUMPDEST PUSH0 PUSH2 0x39D8 PUSH2 0x39D3 DUP5 PUSH2 0x3988 JUMP JUMPDEST PUSH2 0x396E JUMP JUMPDEST SWAP1 POP DUP3 DUP2 MSTORE PUSH1 0x20 DUP2 ADD DUP5 DUP5 DUP5 ADD GT ISZERO PUSH2 0x39F4 JUMPI PUSH2 0x39F3 PUSH2 0x390C JUMP JUMPDEST JUMPDEST PUSH2 0x39FF DUP5 DUP3 DUP6 PUSH2 0x39B8 JUMP JUMPDEST POP SWAP4 SWAP3 POP POP POP JUMP JUMPDEST PUSH0 DUP3 PUSH1 0x1F DUP4 ADD SLT PUSH2 0x3A1B JUMPI PUSH2 0x3A1A PUSH2 0x3908 JUMP JUMPDEST JUMPDEST DUP2 CALLDATALOAD PUSH2 0x3A2B DUP5 DUP3 PUSH1 0x20 DUP7 ADD PUSH2 0x39C6 JUMP JUMPDEST SWAP2 POP POP SWAP3 SWAP2 POP POP JUMP JUMPDEST PUSH0 DUP1 PUSH0 DUP1 PUSH1 0x80 DUP6 DUP8 SUB SLT ISZERO PUSH2 0x3A4C JUMPI PUSH2 0x3A4B PUSH2 0x33CE JUMP JUMPDEST JUMPDEST PUSH0 PUSH2 0x3A59 DUP8 DUP3 DUP9 ADD PUSH2 0x35FF JUMP JUMPDEST SWAP5 POP POP PUSH1 0x20 PUSH2 0x3A6A DUP8 DUP3 DUP9 ADD PUSH2 0x35FF JUMP JUMPDEST SWAP4 POP POP PUSH1 0x40 PUSH2 0x3A7B DUP8 DUP3 DUP9 ADD PUSH2 0x3552 JUMP JUMPDEST SWAP3 POP POP PUSH1 0x60 DUP6 ADD CALLDATALOAD PUSH8 0xFFFFFFFFFFFFFFFF DUP2 GT ISZERO PUSH2 0x3A9C JUMPI PUSH2 0x3A9B PUSH2 0x33D2 JUMP JUMPDEST JUMPDEST PUSH2 0x3AA8 DUP8 DUP3 DUP9 ADD PUSH2 0x3A07 JUMP JUMPDEST SWAP2 POP POP SWAP3 SWAP6 SWAP2 SWAP5 POP SWAP3 POP JUMP JUMPDEST PUSH0 DUP1 PUSH1 0x40 DUP4 DUP6 SUB SLT ISZERO PUSH2 0x3ACA JUMPI PUSH2 0x3AC9 PUSH2 0x33CE JUMP JUMPDEST JUMPDEST PUSH0 PUSH2 0x3AD7 DUP6 DUP3 DUP7 ADD PUSH2 0x3552 JUMP JUMPDEST SWAP3 POP POP PUSH1 0x20 PUSH2 0x3AE8 DUP6 DUP3 DUP7 ADD PUSH2 0x35FF JUMP JUMPDEST SWAP2 POP POP SWAP3 POP SWAP3 SWAP1 POP JUMP JUMPDEST PUSH0 DUP1 PUSH1 0x40 DUP4 DUP6 SUB SLT ISZERO PUSH2 0x3B08 JUMPI PUSH2 0x3B07 PUSH2 0x33CE JUMP JUMPDEST JUMPDEST PUSH0 PUSH2 0x3B15 DUP6 DUP3 DUP7 ADD PUSH2 0x35FF JUMP JUMPDEST SWAP3 POP POP PUSH1 0x20 PUSH2 0x3B26 DUP6 DUP3 DUP7 ADD PUSH2 0x35FF JUMP JUMPDEST SWAP2 POP POP SWAP3 POP SWAP3 SWAP1 POP JUMP JUMPDEST PUSH0 DUP1 PUSH1 0x40 DUP4 DUP6 SUB SLT ISZERO PUSH2 0x3B46 JUMPI PUSH2 0x3B45 PUSH2 0x33CE JUMP JUMPDEST JUMPDEST PUSH0 PUSH2 0x3B53 DUP6 DUP3 DUP7 ADD PUSH2 0x3552 JUMP JUMPDEST SWAP3 POP POP PUSH1 0x20 PUSH2 0x3B64 DUP6 DUP3 DUP7 ADD PUSH2 0x3552 JUMP JUMPDEST SWAP2 POP POP SWAP3 POP SWAP3 SWAP1 POP JUMP JUMPDEST PUSH32 0x4E487B7100000000000000000000000000000000000000000000000000000000 PUSH0 MSTORE PUSH1 0x22 PUSH1 0x4 MSTORE PUSH1 0x24 PUSH0 REVERT JUMPDEST PUSH0 PUSH1 0x2 DUP3 DIV SWAP1 POP PUSH1 0x1 DUP3 AND DUP1 PUSH2 0x3BB2 JUMPI PUSH1 0x7F DUP3 AND SWAP2 POP JUMPDEST PUSH1 0x20 DUP3 LT DUP2 SUB PUSH2 0x3BC5 JUMPI PUSH2 0x3BC4 PUSH2 0x3B6E JUMP JUMPDEST JUMPDEST POP SWAP2 SWAP1 POP JUMP JUMPDEST PUSH32 0x4E487B7100000000000000000000000000000000000000000000000000000000 PUSH0 MSTORE PUSH1 0x32 PUSH1 0x4 MSTORE PUSH1 0x24 PUSH0 REVERT JUMPDEST PUSH32 0x455243333532353A20617070726F76616C20746F2063757272656E74206F776E PUSH0 DUP3 ADD MSTORE PUSH32 0x6572000000000000000000000000000000000000000000000000000000000000 PUSH1 0x20 DUP3 ADD MSTORE POP JUMP JUMPDEST PUSH0 PUSH2 0x3C52 PUSH1 0x22 DUP4 PUSH2 0x3493 JUMP JUMPDEST SWAP2 POP PUSH2 0x3C5D DUP3 PUSH2 0x3BF8 JUMP JUMPDEST PUSH1 0x40 DUP3 ADD SWAP1 POP SWAP2 SWAP1 POP JUMP JUMPDEST PUSH0 PUSH1 0x20 DUP3 ADD SWAP1 POP DUP2 DUP2 SUB PUSH0 DUP4 ADD MSTORE PUSH2 0x3C7F DUP2 PUSH2 0x3C46 JUMP JUMPDEST SWAP1 POP SWAP2 SWAP1 POP JUMP JUMPDEST PUSH32 0x455243333532353A20617070726F76652063616C6C6572206973206E6F74206F PUSH0 DUP3 ADD MSTORE PUSH32 0x776E6572206E6F7220617070726F76656420666F7220616C6C00000000000000 PUSH1 0x20 DUP3 ADD MSTORE POP JUMP JUMPDEST PUSH0 PUSH2 0x3CE0 PUSH1 0x39 DUP4 PUSH2 0x3493 JUMP JUMPDEST SWAP2 POP PUSH2 0x3CEB DUP3 PUSH2 0x3C86 JUMP JUMPDEST PUSH1 0x40 DUP3 ADD SWAP1 POP SWAP2 SWAP1 POP JUMP JUMPDEST PUSH0 PUSH1 0x20 DUP3 ADD SWAP1 POP DUP2 DUP2 SUB PUSH0 DUP4 ADD MSTORE PUSH2 0x3D0D DUP2 PUSH2 0x3CD4 JUMP JUMPDEST SWAP1 POP SWAP2 SWAP1 POP JUMP JUMPDEST PUSH0 DUP2 SWAP1 POP SWAP3 SWAP2 POP POP JUMP JUMPDEST PUSH0 PUSH2 0x3D28 DUP3 PUSH2 0x3489 JUMP JUMPDEST PUSH2 0x3D32 DUP2 DUP6 PUSH2 0x3D14 JUMP JUMPDEST SWAP4 POP PUSH2 0x3D42 DUP2 DUP6 PUSH1 0x20 DUP7 ADD PUSH2 0x34A3 JUMP JUMPDEST DUP1 DUP5 ADD SWAP2 POP POP SWAP3 SWAP2 POP POP JUMP JUMPDEST PUSH32 0x736C6F742F000000000000000000000000000000000000000000000000000000 PUSH0 DUP3 ADD MSTORE POP JUMP JUMPDEST PUSH0 PUSH2 0x3D82 PUSH1 0x5 DUP4 PUSH2 0x3D14 JUMP JUMPDEST SWAP2 POP PUSH2 0x3D8D DUP3 PUSH2 0x3D4E JUMP JUMPDEST PUSH1 0x5 DUP3 ADD SWAP1 POP SWAP2 SWAP1 POP JUMP JUMPDEST PUSH0 PUSH2 0x3DA3 DUP3 DUP6 PUSH2 0x3D1E JUMP JUMPDEST SWAP2 POP PUSH2 0x3DAE DUP3 PUSH2 0x3D76 JUMP JUMPDEST SWAP2 POP PUSH2 0x3DBA DUP3 DUP5 PUSH2 0x3D1E JUMP JUMPDEST SWAP2 POP DUP2 SWAP1 POP SWAP4 SWAP3 POP POP POP JUMP JUMPDEST PUSH0 PUSH8 0xFFFFFFFFFFFFFFFF DUP3 GT ISZERO PUSH2 0x3DE0 JUMPI PUSH2 0x3DDF PUSH2 0x3910 JUMP JUMPDEST JUMPDEST PUSH2 0x3DE9 DUP3 PUSH2 0x34CB JUMP JUMPDEST SWAP1 POP PUSH1 0x20 DUP2 ADD SWAP1 POP SWAP2 SWAP1 POP JUMP JUMPDEST PUSH0 PUSH2 0x3E08 PUSH2 0x3E03 DUP5 PUSH2 0x3DC6 JUMP JUMPDEST PUSH2 0x396E JUMP JUMPDEST SWAP1 POP DUP3 DUP2 MSTORE PUSH1 0x20 DUP2 ADD DUP5 DUP5 DUP5 ADD GT ISZERO PUSH2 0x3E24 JUMPI PUSH2 0x3E23 PUSH2 0x390C JUMP JUMPDEST JUMPDEST PUSH2 0x3E2F DUP5 DUP3 DUP6 PUSH2 0x34A3 JUMP JUMPDEST POP SWAP4 SWAP3 POP POP POP JUMP JUMPDEST PUSH0 DUP3 PUSH1 0x1F DUP4 ADD SLT PUSH2 0x3E4B JUMPI PUSH2 0x3E4A PUSH2 0x3908 JUMP JUMPDEST JUMPDEST DUP2 MLOAD PUSH2 0x3E5B DUP5 DUP3 PUSH1 0x20 DUP7 ADD PUSH2 0x3DF6 JUMP JUMPDEST SWAP2 POP POP SWAP3 SWAP2 POP POP JUMP JUMPDEST PUSH0 PUSH1 0x20 DUP3 DUP5 SUB SLT ISZERO PUSH2 0x3E79 JUMPI PUSH2 0x3E78 PUSH2 0x33CE JUMP JUMPDEST JUMPDEST PUSH0 DUP3 ADD MLOAD PUSH8 0xFFFFFFFFFFFFFFFF DUP2 GT ISZERO PUSH2 0x3E96 JUMPI PUSH2 0x3E95 PUSH2 0x33D2 JUMP JUMPDEST JUMPDEST PUSH2 0x3EA2 DUP5 DUP3 DUP6 ADD PUSH2 0x3E37 JUMP JUMPDEST SWAP2 POP POP SWAP3 SWAP2 POP POP JUMP JUMPDEST PUSH32 0x455243333532353A207472616E736665722063616C6C6572206973206E6F7420 PUSH0 DUP3 ADD MSTORE PUSH32 0x6F776E6572206E6F7220617070726F7665640000000000000000000000000000 PUSH1 0x20 DUP3 ADD MSTORE POP JUMP JUMPDEST PUSH0 PUSH2 0x3F05 PUSH1 0x32 DUP4 PUSH2 0x3493 JUMP JUMPDEST SWAP2 POP PUSH2 0x3F10 DUP3 PUSH2 0x3EAB JUMP JUMPDEST PUSH1 0x40 DUP3 ADD SWAP1 POP SWAP2 SWAP1 POP JUMP JUMPDEST PUSH0 PUSH1 0x20 DUP3 ADD SWAP1 POP DUP2 DUP2 SUB PUSH0 DUP4 ADD MSTORE PUSH2 0x3F32 DUP2 PUSH2 0x3EF9 JUMP JUMPDEST SWAP1 POP SWAP2 SWAP1 POP JUMP JUMPDEST PUSH32 0x455243333532353A206F776E657220696E646578206F7574206F6620626F756E PUSH0 DUP3 ADD MSTORE PUSH32 0x6473000000000000000000000000000000000000000000000000000000000000 PUSH1 0x20 DUP3 ADD MSTORE POP JUMP JUMPDEST PUSH0 PUSH2 0x3F93 PUSH1 0x22 DUP4 PUSH2 0x3493 JUMP JUMPDEST SWAP2 POP PUSH2 0x3F9E DUP3 PUSH2 0x3F39 JUMP JUMPDEST PUSH1 0x40 DUP3 ADD SWAP1 POP SWAP2 SWAP1 POP JUMP JUMPDEST PUSH0 PUSH1 0x20 DUP3 ADD SWAP1 POP DUP2 DUP2 SUB PUSH0 DUP4 ADD MSTORE PUSH2 0x3FC0 DUP2 PUSH2 0x3F87 JUMP JUMPDEST SWAP1 POP SWAP2 SWAP1 POP JUMP JUMPDEST PUSH32 0x455243333532353A20676C6F62616C20696E646578206F7574206F6620626F75 PUSH0 DUP3 ADD MSTORE PUSH32 0x6E64730000000000000000000000000000000000000000000000000000000000 PUSH1 0x20 DUP3 ADD MSTORE POP JUMP JUMPDEST PUSH0 PUSH2 0x4021 PUSH1 0x23 DUP4 PUSH2 0x3493 JUMP JUMPDEST SWAP2 POP PUSH2 0x402C DUP3 PUSH2 0x3FC7 JUMP JUMPDEST PUSH1 0x40 DUP3 ADD SWAP1 POP SWAP2 SWAP1 POP JUMP JUMPDEST PUSH0 PUSH1 0x20 DUP3 ADD SWAP1 POP DUP2 DUP2 SUB PUSH0 DUP4 ADD MSTORE PUSH2 0x404E DUP2 PUSH2 0x4015 JUMP JUMPDEST SWAP1 POP SWAP2 SWAP1 POP JUMP JUMPDEST PUSH32 0x455243333532353A20696E76616C696420746F6B656E20494400000000000000 PUSH0 DUP3 ADD MSTORE POP JUMP JUMPDEST PUSH0 PUSH2 0x4089 PUSH1 0x19 DUP4 PUSH2 0x3493 JUMP JUMPDEST SWAP2 POP PUSH2 0x4094 DUP3 PUSH2 0x4055 JUMP JUMPDEST PUSH1 0x20 DUP3 ADD SWAP1 POP SWAP2 SWAP1 POP JUMP JUMPDEST PUSH0 PUSH1 0x20 DUP3 ADD SWAP1 POP DUP2 DUP2 SUB PUSH0 DUP4 ADD MSTORE PUSH2 0x40B6 DUP2 PUSH2 0x407D JUMP JUMPDEST SWAP1 POP SWAP2 SWAP1 POP JUMP JUMPDEST PUSH32 0x455243333532353A2062616C616E636520717565727920666F7220746865207A PUSH0 DUP3 ADD MSTORE PUSH32 0x65726F2061646472657373000000000000000000000000000000000000000000 PUSH1 0x20 DUP3 ADD MSTORE POP JUMP JUMPDEST PUSH0 PUSH2 0x4117 PUSH1 0x2B DUP4 PUSH2 0x3493 JUMP JUMPDEST SWAP2 POP PUSH2 0x4122 DUP3 PUSH2 0x40BD JUMP JUMPDEST PUSH1 0x40 DUP3 ADD SWAP1 POP SWAP2 SWAP1 POP JUMP JUMPDEST PUSH0 PUSH1 0x20 DUP3 ADD SWAP1 POP DUP2 DUP2 SUB PUSH0 DUP4 ADD MSTORE PUSH2 0x4144 DUP2 PUSH2 0x410B JUMP JUMPDEST SWAP1 POP SWAP2 SWAP1 POP JUMP JUMPDEST PUSH32 0x455243333532353A20617070726F76652063616C6C6572206973206E6F74206F PUSH0 DUP3 ADD MSTORE PUSH32 0x776E6572206E6F7220617070726F766564000000000000000000000000000000 PUSH1 0x20 DUP3 ADD MSTORE POP JUMP JUMPDEST PUSH0 PUSH2 0x41A5 PUSH1 0x31 DUP4 PUSH2 0x3493 JUMP JUMPDEST SWAP2 POP PUSH2 0x41B0 DUP3 PUSH2 0x414B JUMP JUMPDEST PUSH1 0x40 DUP3 ADD SWAP1 POP SWAP2 SWAP1 POP JUMP JUMPDEST PUSH0 PUSH1 0x20 DUP3 ADD SWAP1 POP DUP2 DUP2 SUB PUSH0 DUP4 ADD MSTORE PUSH2 0x41D2 DUP2 PUSH2 0x4199 JUMP JUMPDEST SWAP1 POP SWAP2 SWAP1 POP JUMP JUMPDEST PUSH0 PUSH2 0x41E4 DUP3 DUP6 PUSH2 0x3D1E JUMP JUMPDEST SWAP2 POP PUSH2 0x41F0 DUP3 DUP5 PUSH2 0x3D1E JUMP JUMPDEST SWAP2 POP DUP2 SWAP1 POP SWAP4 SWAP3 POP POP POP JUMP JUMPDEST PUSH32 0x636F6E74726163742F0000000000000000000000000000000000000000000000 PUSH0 DUP3 ADD MSTORE POP JUMP JUMPDEST PUSH0 PUSH2 0x4230 PUSH1 0x9 DUP4 PUSH2 0x3D14 JUMP JUMPDEST SWAP2 POP PUSH2 0x423B DUP3 PUSH2 0x41FC JUMP JUMPDEST PUSH1 0x9 DUP3 ADD SWAP1 POP SWAP2 SWAP1 POP JUMP JUMPDEST PUSH0 PUSH2 0x4251 DUP3 DUP6 PUSH2 0x3D1E JUMP JUMPDEST SWAP2 POP PUSH2 0x425C DUP3 PUSH2 0x4224 JUMP JUMPDEST SWAP2 POP PUSH2 0x4268 DUP3 DUP5 PUSH2 0x3D1E JUMP JUMPDEST SWAP2 POP DUP2 SWAP1 POP SWAP4 SWAP3 POP POP POP JUMP JUMPDEST PUSH32 0x4E487B7100000000000000000000000000000000000000000000000000000000 PUSH0 MSTORE PUSH1 0x12 PUSH1 0x4 MSTORE PUSH1 0x24 PUSH0 REVERT JUMPDEST PUSH32 0x455243333532353A20696E73756666696369656E7420616C6C6F77616E636500 PUSH0 DUP3 ADD MSTORE POP JUMP JUMPDEST PUSH0 PUSH2 0x42D5 PUSH1 0x1F DUP4 PUSH2 0x3493 JUMP JUMPDEST SWAP2 POP PUSH2 0x42E0 DUP3 PUSH2 0x42A1 JUMP JUMPDEST PUSH1 0x20 DUP3 ADD SWAP1 POP SWAP2 SWAP1 POP JUMP JUMPDEST PUSH0 PUSH1 0x20 DUP3 ADD SWAP1 POP DUP2 DUP2 SUB PUSH0 DUP4 ADD MSTORE PUSH2 0x4302 DUP2 PUSH2 0x42C9 JUMP JUMPDEST SWAP1 POP SWAP2 SWAP1 POP JUMP JUMPDEST PUSH32 0x4E487B7100000000000000000000000000000000000000000000000000000000 PUSH0 MSTORE PUSH1 0x11 PUSH1 0x4 MSTORE PUSH1 0x24 PUSH0 REVERT JUMPDEST PUSH0 PUSH2 0x4340 DUP3 PUSH2 0x3533 JUMP JUMPDEST SWAP2 POP PUSH2 0x434B DUP4 PUSH2 0x3533 JUMP JUMPDEST SWAP3 POP DUP3 DUP3 SUB SWAP1 POP DUP2 DUP2 GT ISZERO PUSH2 0x4363 JUMPI PUSH2 0x4362 PUSH2 0x4309 JUMP JUMPDEST JUMPDEST SWAP3 SWAP2 POP POP JUMP JUMPDEST PUSH32 0x455243333532353A206D696E7420746F20746865207A65726F20616464726573 PUSH0 DUP3 ADD MSTORE PUSH32 0x7300000000000000000000000000000000000000000000000000000000000000 PUSH1 0x20 DUP3 ADD MSTORE POP JUMP JUMPDEST PUSH0 PUSH2 0x43C3 PUSH1 0x21 DUP4 PUSH2 0x3493 JUMP JUMPDEST SWAP2 POP PUSH2 0x43CE DUP3 PUSH2 0x4369 JUMP JUMPDEST PUSH1 0x40 DUP3 ADD SWAP1 POP SWAP2 SWAP1 POP JUMP JUMPDEST PUSH0 PUSH1 0x20 DUP3 ADD SWAP1 POP DUP2 DUP2 SUB PUSH0 DUP4 ADD MSTORE PUSH2 0x43F0 DUP2 PUSH2 0x43B7 JUMP JUMPDEST SWAP1 POP SWAP2 SWAP1 POP JUMP JUMPDEST PUSH32 0x455243333532353A2063616E6E6F74206D696E74207A65726F20746F6B656E49 PUSH0 DUP3 ADD MSTORE PUSH32 0x6400000000000000000000000000000000000000000000000000000000000000 PUSH1 0x20 DUP3 ADD MSTORE POP JUMP JUMPDEST PUSH0 PUSH2 0x4451 PUSH1 0x21 DUP4 PUSH2 0x3493 JUMP JUMPDEST SWAP2 POP PUSH2 0x445C DUP3 PUSH2 0x43F7 JUMP JUMPDEST PUSH1 0x40 DUP3 ADD SWAP1 POP SWAP2 SWAP1 POP JUMP JUMPDEST PUSH0 PUSH1 0x20 DUP3 ADD SWAP1 POP DUP2 DUP2 SUB PUSH0 DUP4 ADD MSTORE PUSH2 0x447E DUP2 PUSH2 0x4445 JUMP JUMPDEST SWAP1 POP SWAP2 SWAP1 POP JUMP JUMPDEST PUSH32 0x455243333532353A20746F6B656E20616C7265616479206D696E746564000000 PUSH0 DUP3 ADD MSTORE POP JUMP JUMPDEST PUSH0 PUSH2 0x44B9 PUSH1 0x1D DUP4 PUSH2 0x3493 JUMP JUMPDEST SWAP2 POP PUSH2 0x44C4 DUP3 PUSH2 0x4485 JUMP JUMPDEST PUSH1 0x20 DUP3 ADD SWAP1 POP SWAP2 SWAP1 POP JUMP JUMPDEST PUSH0 PUSH1 0x20 DUP3 ADD SWAP1 POP DUP2 DUP2 SUB PUSH0 DUP4 ADD MSTORE PUSH2 0x44E6 DUP2 PUSH2 0x44AD JUMP JUMPDEST SWAP1 POP SWAP2 SWAP1 POP JUMP JUMPDEST PUSH32 0x455243333532353A207472616E736665722066726F6D20696E76616C69642074 PUSH0 DUP3 ADD MSTORE PUSH32 0x6F6B656E20494400000000000000000000000000000000000000000000000000 PUSH1 0x20 DUP3 ADD MSTORE POP JUMP JUMPDEST PUSH0 PUSH2 0x4547 PUSH1 0x27 DUP4 PUSH2 0x3493 JUMP JUMPDEST SWAP2 POP PUSH2 0x4552 DUP3 PUSH2 0x44ED JUMP JUMPDEST PUSH1 0x40 DUP3 ADD SWAP1 POP SWAP2 SWAP1 POP JUMP JUMPDEST PUSH0 PUSH1 0x20 DUP3 ADD SWAP1 POP DUP2 DUP2 SUB PUSH0 DUP4 ADD MSTORE PUSH2 0x4574 DUP2 PUSH2 0x453B JUMP JUMPDEST SWAP1 POP SWAP2 SWAP1 POP JUMP JUMPDEST PUSH32 0x455243333532353A207472616E7366657220746F20696E76616C696420746F6B PUSH0 DUP3 ADD MSTORE PUSH32 0x656E204944000000000000000000000000000000000000000000000000000000 PUSH1 0x20 DUP3 ADD MSTORE POP JUMP JUMPDEST PUSH0 PUSH2 0x45D5 PUSH1 0x25 DUP4 PUSH2 0x3493 JUMP JUMPDEST SWAP2 POP PUSH2 0x45E0 DUP3 PUSH2 0x457B JUMP JUMPDEST PUSH1 0x40 DUP3 ADD SWAP1 POP SWAP2 SWAP1 POP JUMP JUMPDEST PUSH0 PUSH1 0x20 DUP3 ADD SWAP1 POP DUP2 DUP2 SUB PUSH0 DUP4 ADD MSTORE PUSH2 0x4602 DUP2 PUSH2 0x45C9 JUMP JUMPDEST SWAP1 POP SWAP2 SWAP1 POP JUMP JUMPDEST PUSH32 0x455243333532353A20696E73756666696369656E742062616C616E636520666F PUSH0 DUP3 ADD MSTORE PUSH32 0x72207472616E7366657200000000000000000000000000000000000000000000 PUSH1 0x20 DUP3 ADD MSTORE POP JUMP JUMPDEST PUSH0 PUSH2 0x4663 PUSH1 0x2A DUP4 PUSH2 0x3493 JUMP JUMPDEST SWAP2 POP PUSH2 0x466E DUP3 PUSH2 0x4609 JUMP JUMPDEST PUSH1 0x40 DUP3 ADD SWAP1 POP SWAP2 SWAP1 POP JUMP JUMPDEST PUSH0 PUSH1 0x20 DUP3 ADD SWAP1 POP DUP2 DUP2 SUB PUSH0 DUP4 ADD MSTORE PUSH2 0x4690 DUP2 PUSH2 0x4657 JUMP JUMPDEST SWAP1 POP SWAP2 SWAP1 POP JUMP JUMPDEST PUSH32 0x455243333532353A207472616E7366657220746F20746F6B656E207769746820 PUSH0 DUP3 ADD MSTORE PUSH32 0x646966666572656E7420736C6F74000000000000000000000000000000000000 PUSH1 0x20 DUP3 ADD MSTORE POP JUMP JUMPDEST PUSH0 PUSH2 0x46F1 PUSH1 0x2E DUP4 PUSH2 0x3493 JUMP JUMPDEST SWAP2 POP PUSH2 0x46FC DUP3 PUSH2 0x4697 JUMP JUMPDEST PUSH1 0x40 DUP3 ADD SWAP1 POP SWAP2 SWAP1 POP JUMP JUMPDEST PUSH0 PUSH1 0x20 DUP3 ADD SWAP1 POP DUP2 DUP2 SUB PUSH0 DUP4 ADD MSTORE PUSH2 0x471E DUP2 PUSH2 0x46E5 JUMP JUMPDEST SWAP1 POP SWAP2 SWAP1 POP JUMP JUMPDEST PUSH0 PUSH2 0x472F DUP3 PUSH2 0x3533 JUMP JUMPDEST SWAP2 POP PUSH2 0x473A DUP4 PUSH2 0x3533 JUMP JUMPDEST SWAP3 POP DUP3 DUP3 ADD SWAP1 POP DUP1 DUP3 GT ISZERO PUSH2 0x4752 JUMPI PUSH2 0x4751 PUSH2 0x4309 JUMP JUMPDEST JUMPDEST SWAP3 SWAP2 POP POP JUMP JUMPDEST PUSH32 0x455243333532353A207472616E736665722072656A6563746564206279204552 PUSH0 DUP3 ADD MSTORE PUSH32 0x4333353235526563656976657200000000000000000000000000000000000000 PUSH1 0x20 DUP3 ADD MSTORE POP JUMP JUMPDEST PUSH0 PUSH2 0x47B2 PUSH1 0x2D DUP4 PUSH2 0x3493 JUMP JUMPDEST SWAP2 POP PUSH2 0x47BD DUP3 PUSH2 0x4758 JUMP JUMPDEST PUSH1 0x40 DUP3 ADD SWAP1 POP SWAP2 SWAP1 POP JUMP JUMPDEST PUSH0 PUSH1 0x20 DUP3 ADD SWAP1 POP DUP2 DUP2 SUB PUSH0 DUP4 ADD MSTORE PUSH2 0x47DF DUP2 PUSH2 0x47A6 JUMP JUMPDEST SWAP1 POP SWAP2 SWAP1 POP JUMP JUMPDEST PUSH32 0x455243333532353A207472616E736665722066726F6D20696E76616C6964206F PUSH0 DUP3 ADD MSTORE PUSH32 0x776E657200000000000000000000000000000000000000000000000000000000 PUSH1 0x20 DUP3 ADD MSTORE POP JUMP JUMPDEST PUSH0 PUSH2 0x4840 PUSH1 0x24 DUP4 PUSH2 0x3493 JUMP JUMPDEST SWAP2 POP PUSH2 0x484B DUP3 PUSH2 0x47E6 JUMP JUMPDEST PUSH1 0x40 DUP3 ADD SWAP1 POP SWAP2 SWAP1 POP JUMP JUMPDEST PUSH0 PUSH1 0x20 DUP3 ADD SWAP1 POP DUP2 DUP2 SUB PUSH0 DUP4 ADD MSTORE PUSH2 0x486D DUP2 PUSH2 0x4834 JUMP JUMPDEST SWAP1 POP SWAP2 SWAP1 POP JUMP JUMPDEST PUSH32 0x455243333532353A207472616E7366657220746F20746865207A65726F206164 PUSH0 DUP3 ADD MSTORE PUSH32 0x6472657373000000000000000000000000000000000000000000000000000000 PUSH1 0x20 DUP3 ADD MSTORE POP JUMP JUMPDEST PUSH0 PUSH2 0x48CE PUSH1 0x25 DUP4 PUSH2 0x3493 JUMP JUMPDEST SWAP2 POP PUSH2 0x48D9 DUP3 PUSH2 0x4874 JUMP JUMPDEST PUSH1 0x40 DUP3 ADD SWAP1 POP SWAP2 SWAP1 POP JUMP JUMPDEST PUSH0 PUSH1 0x20 DUP3 ADD SWAP1 POP DUP2 DUP2 SUB PUSH0 DUP4 ADD MSTORE PUSH2 0x48FB DUP2 PUSH2 0x48C2 JUMP JUMPDEST SWAP1 POP SWAP2 SWAP1 POP JUMP JUMPDEST PUSH32 0x455243333532353A20617070726F76652076616C756520746F20746865207A65 PUSH0 DUP3 ADD MSTORE PUSH32 0x726F206164647265737300000000000000000000000000000000000000000000 PUSH1 0x20 DUP3 ADD MSTORE POP JUMP JUMPDEST PUSH0 PUSH2 0x495C PUSH1 0x2A DUP4 PUSH2 0x3493 JUMP JUMPDEST SWAP2 POP PUSH2 0x4967 DUP3 PUSH2 0x4902 JUMP JUMPDEST PUSH1 0x40 DUP3 ADD SWAP1 POP SWAP2 SWAP1 POP JUMP JUMPDEST PUSH0 PUSH1 0x20 DUP3 ADD SWAP1 POP DUP2 DUP2 SUB PUSH0 DUP4 ADD MSTORE PUSH2 0x4989 DUP2 PUSH2 0x4950 JUMP JUMPDEST SWAP1 POP SWAP2 SWAP1 POP JUMP JUMPDEST PUSH32 0x455243333532353A20617070726F766520746F2063616C6C6572000000000000 PUSH0 DUP3 ADD MSTORE POP JUMP JUMPDEST PUSH0 PUSH2 0x49C4 PUSH1 0x1A DUP4 PUSH2 0x3493 JUMP JUMPDEST SWAP2 POP PUSH2 0x49CF DUP3 PUSH2 0x4990 JUMP JUMPDEST PUSH1 0x20 DUP3 ADD SWAP1 POP SWAP2 SWAP1 POP JUMP JUMPDEST PUSH0 PUSH1 0x20 DUP3 ADD SWAP1 POP DUP2 DUP2 SUB PUSH0 DUP4 ADD MSTORE PUSH2 0x49F1 DUP2 PUSH2 0x49B8 JUMP JUMPDEST SWAP1 POP SWAP2 SWAP1 POP JUMP JUMPDEST PUSH32 0x455243333532353A207472616E7366657220746F206E6F6E2045524337323152 PUSH0 DUP3 ADD MSTORE PUSH32 0x6563656976657200000000000000000000000000000000000000000000000000 PUSH1 0x20 DUP3 ADD MSTORE POP JUMP JUMPDEST PUSH0 PUSH2 0x4A52 PUSH1 0x27 DUP4 PUSH2 0x3493 JUMP JUMPDEST SWAP2 POP PUSH2 0x4A5D DUP3 PUSH2 0x49F8 JUMP JUMPDEST PUSH1 0x40 DUP3 ADD SWAP1 POP SWAP2 SWAP1 POP JUMP JUMPDEST PUSH0 PUSH1 0x20 DUP3 ADD SWAP1 POP DUP2 DUP2 SUB PUSH0 DUP4 ADD MSTORE PUSH2 0x4A7F DUP2 PUSH2 0x4A46 JUMP JUMPDEST SWAP1 POP SWAP2 SWAP1 POP JUMP JUMPDEST PUSH0 PUSH2 0x4A90 DUP3 PUSH2 0x3533 JUMP JUMPDEST SWAP2 POP PUSH32 0xFFFFFFFFFFFFFFFFFFFFFFFFFFFFFFFFFFFFFFFFFFFFFFFFFFFFFFFFFFFFFFFF DUP3 SUB PUSH2 0x4AC2 JUMPI PUSH2 0x4AC1 PUSH2 0x4309 JUMP JUMPDEST JUMPDEST PUSH1 0x1 DUP3 ADD SWAP1 POP SWAP2 SWAP1 POP JUMP JUMPDEST PUSH2 0x4AD6 DUP2 PUSH2 0x33D6 JUMP JUMPDEST DUP3 MSTORE POP POP JUMP JUMPDEST PUSH0 PUSH1 0x20 DUP3 ADD SWAP1 POP PUSH2 0x4AEF PUSH0 DUP4 ADD DUP5 PUSH2 0x4ACD JUMP JUMPDEST SWAP3 SWAP2 POP POP JUMP JUMPDEST PUSH0 DUP2 MLOAD SWAP1 POP PUSH2 0x4B03 DUP2 PUSH2 0x383C JUMP JUMPDEST SWAP3 SWAP2 POP POP JUMP JUMPDEST PUSH0 PUSH1 0x20 DUP3 DUP5 SUB SLT ISZERO PUSH2 0x4B1E JUMPI PUSH2 0x4B1D PUSH2 0x33CE JUMP JUMPDEST JUMPDEST PUSH0 PUSH2 0x4B2B DUP5 DUP3 DUP6 ADD PUSH2 0x4AF5 JUMP JUMPDEST SWAP2 POP POP SWAP3 SWAP2 POP POP JUMP JUMPDEST PUSH0 DUP2 MLOAD SWAP1 POP SWAP2 SWAP1 POP JUMP JUMPDEST PUSH0 DUP3 DUP3 MSTORE PUSH1 0x20 DUP3 ADD SWAP1 POP SWAP3 SWAP2 POP POP JUMP JUMPDEST PUSH0 PUSH2 0x4B58 DUP3 PUSH2 0x4B34 JUMP JUMPDEST PUSH2 0x4B62 DUP2 DUP6 PUSH2 0x4B3E JUMP JUMPDEST SWAP4 POP PUSH2 0x4B72 DUP2 DUP6 PUSH1 0x20 DUP7 ADD PUSH2 0x34A3 JUMP JUMPDEST PUSH2 0x4B7B DUP2 PUSH2 0x34CB JUMP JUMPDEST DUP5 ADD SWAP2 POP POP SWAP3 SWAP2 POP POP JUMP JUMPDEST PUSH0 PUSH1 0xA0 DUP3 ADD SWAP1 POP PUSH2 0x4B99 PUSH0 DUP4 ADD DUP9 PUSH2 0x35C1 JUMP JUMPDEST PUSH2 0x4BA6 PUSH1 0x20 DUP4 ADD DUP8 PUSH2 0x36A1 JUMP JUMPDEST PUSH2 0x4BB3 PUSH1 0x40 DUP4 ADD DUP7 PUSH2 0x36A1 JUMP JUMPDEST PUSH2 0x4BC0 PUSH1 0x60 DUP4 ADD DUP6 PUSH2 0x36A1 JUMP JUMPDEST DUP2 DUP2 SUB PUSH1 0x80 DUP4 ADD MSTORE PUSH2 0x4BD2 DUP2 DUP5 PUSH2 0x4B4E JUMP JUMPDEST SWAP1 POP SWAP7 SWAP6 POP POP POP POP POP POP JUMP JUMPDEST PUSH0 DUP2 MLOAD SWAP1 POP PUSH2 0x4BEC DUP2 PUSH2 0x3401 JUMP JUMPDEST SWAP3 SWAP2 POP POP JUMP JUMPDEST PUSH0 PUSH1 0x20 DUP3 DUP5 SUB SLT ISZERO PUSH2 0x4C07 JUMPI PUSH2 0x4C06 PUSH2 0x33CE JUMP JUMPDEST JUMPDEST PUSH0 PUSH2 0x4C14 DUP5 DUP3 DUP6 ADD PUSH2 0x4BDE JUMP JUMPDEST SWAP2 POP POP SWAP3 SWAP2 POP POP JUMP JUMPDEST PUSH32 0x4E487B7100000000000000000000000000000000000000000000000000000000 PUSH0 MSTORE PUSH1 0x31 PUSH1 0x4 MSTORE PUSH1 0x24 PUSH0 REVERT JUMPDEST PUSH0 PUSH1 0x80 DUP3 ADD SWAP1 POP PUSH2 0x4C5D PUSH0 DUP4 ADD DUP8 PUSH2 0x35C1 JUMP JUMPDEST PUSH2 0x4C6A PUSH1 0x20 DUP4 ADD DUP7 PUSH2 0x35C1 JUMP JUMPDEST PUSH2 0x4C77 PUSH1 0x40 DUP4 ADD DUP6 PUSH2 0x36A1 JUMP JUMPDEST DUP2 DUP2 SUB PUSH1 0x60 DUP4 ADD MSTORE PUSH2 0x4C89 DUP2 DUP5 PUSH2 0x4B4E JUMP JUMPDEST SWAP1 POP SWAP6 SWAP5 POP POP POP POP POP JUMP JUMPDEST PUSH32 0x4552433732313A207472616E7366657220746F206E6F6E204552433732315265 PUSH0 DUP3 ADD MSTORE PUSH32 0x63656976657220696D706C656D656E7465720000000000000000000000000000 PUSH1 0x20 DUP3 ADD MSTORE POP JUMP JUMPDEST PUSH0 PUSH2 0x4CEE PUSH1 0x32 DUP4 PUSH2 0x3493 JUMP JUMPDEST SWAP2 POP PUSH2 0x4CF9 DUP3 PUSH2 0x4C94 JUMP JUMPDEST PUSH1 0x40 DUP3 ADD SWAP1 POP SWAP2 SWAP1 POP JUMP JUMPDEST PUSH0 PUSH1 0x20 DUP3 ADD SWAP1 POP DUP2 DUP2 SUB PUSH0 DUP4 ADD MSTORE PUSH2 0x4D1B DUP2 PUSH2 0x4CE2 JUMP JUMPDEST SWAP1 POP SWAP2 SWAP1 POP JUMP JUMPDEST PUSH0 PUSH2 0x4D2C DUP3 PUSH2 0x3533 JUMP JUMPDEST SWAP2 POP PUSH2 0x4D37 DUP4 PUSH2 0x3533 JUMP JUMPDEST SWAP3 POP DUP3 DUP3 MUL PUSH2 0x4D45 DUP2 PUSH2 0x3533 JUMP JUMPDEST SWAP2 POP DUP3 DUP3 DIV DUP5 EQ DUP4 ISZERO OR PUSH2 0x4D5C JUMPI PUSH2 0x4D5B PUSH2 0x4309 JUMP JUMPDEST JUMPDEST POP SWAP3 SWAP2 POP POP JUMP JUMPDEST PUSH0 PUSH2 0x4D6D DUP3 PUSH2 0x3533 JUMP JUMPDEST SWAP2 POP PUSH0 DUP3 SUB PUSH2 0x4D7F JUMPI PUSH2 0x4D7E PUSH2 0x4309 JUMP JUMPDEST JUMPDEST PUSH1 0x1 DUP3 SUB SWAP1 POP SWAP2 SWAP1 POP JUMP JUMPDEST PUSH0 PUSH1 0x40 DUP3 ADD SWAP1 POP PUSH2 0x4D9D PUSH0 DUP4 ADD DUP6 PUSH2 0x36A1 JUMP JUMPDEST PUSH2 0x4DAA PUSH1 0x20 DUP4 ADD DUP5 PUSH2 0x36A1 JUMP JUMPDEST SWAP4 SWAP3 POP POP POP JUMP INVALID LOG2 PUSH5 0x6970667358 0x22 SLT KECCAK256 PUSH19 0xB17529FDE9A47400EBD0F7A7494413C3E988EA BLOCKHASH SSTORE SWAP5 0xC 0x4F 0xD2 0x49 0xDB 0xC7 SWAP11 EXTCODECOPY 0xC3 PUSH5 0x736F6C6343 STOP ADDMOD EQ STOP CALLER "
		},
		"gasEstimates": {
			"creation": {
				"codeDepositCost": "3988600",
				"executionCost": "infinite",
				"totalCost": "infinite"
			},
			"external": {
				"allowance(uint256,address)": "infinite",
				"approve(address,uint256)": "infinite",
				"approve(uint256,address,uint256)": "infinite",
				"balanceOf(address)": "2945",
				"balanceOf(uint256)": "infinite",
				"contractURI()": "infinite",
				"getApproved(uint256)": "15944",
				"isApprovedForAll(address,address)": "infinite",
				"metadataDescriptor()": "infinite",
				"mint(address,uint256,uint256,uint256)": "infinite",
				"mintValue(uint256,uint256)": "infinite",
				"name()": "infinite",
				"ownerOf(uint256)": "15985",
				"safeTransferFrom(address,address,uint256)": "infinite",
				"safeTransferFrom(address,address,uint256,bytes)": "infinite",
				"setApprovalForAll(address,bool)": "infinite",
				"slotOf(uint256)": "infinite",
				"slotURI(uint256)": "infinite",
				"supportsInterface(bytes4)": "906",
				"symbol()": "infinite",
				"tokenByIndex(uint256)": "infinite",
				"tokenOfOwnerByIndex(address,uint256)": "infinite",
				"tokenURI(uint256)": "infinite",
				"totalSupply()": "2552",
				"transferFrom(address,address,uint256)": "infinite",
				"transferFrom(uint256,address,uint256)": "infinite",
				"transferFrom(uint256,uint256,uint256)": "infinite",
				"valueDecimals()": "2540"
			}
		},
		"methodIdentifiers": {
			"allowance(uint256,address)": "e345e0bc",
			"approve(address,uint256)": "095ea7b3",
			"approve(uint256,address,uint256)": "8cb0a511",
			"balanceOf(address)": "70a08231",
			"balanceOf(uint256)": "9cc7f708",
			"contractURI()": "e8a3d485",
			"getApproved(uint256)": "081812fc",
			"isApprovedForAll(address,address)": "e985e9c5",
			"metadataDescriptor()": "840f7113",
			"mint(address,uint256,uint256,uint256)": "a647e8ec",
			"mintValue(uint256,uint256)": "f0e88e7f",
			"name()": "06fdde03",
			"ownerOf(uint256)": "6352211e",
			"safeTransferFrom(address,address,uint256)": "42842e0e",
			"safeTransferFrom(address,address,uint256,bytes)": "b88d4fde",
			"setApprovalForAll(address,bool)": "a22cb465",
			"slotOf(uint256)": "263f3e7e",
			"slotURI(uint256)": "09c3dd87",
			"supportsInterface(bytes4)": "01ffc9a7",
			"symbol()": "95d89b41",
			"tokenByIndex(uint256)": "4f6ccce7",
			"tokenOfOwnerByIndex(address,uint256)": "2f745c59",
			"tokenURI(uint256)": "c87b56dd",
			"totalSupply()": "18160ddd",
			"transferFrom(address,address,uint256)": "23b872dd",
			"transferFrom(uint256,address,uint256)": "0f485c02",
			"transferFrom(uint256,uint256,uint256)": "310ed7f0",
			"valueDecimals()": "3e7e8669"
		}
	},
	"abi": [
		{
			"inputs": [
				{
					"internalType": "string",
					"name": "name_",
					"type": "string"
				},
				{
					"internalType": "string",
					"name": "symbol_",
					"type": "string"
				},
				{
					"internalType": "uint8",
					"name": "decimals_",
					"type": "uint8"
				}
			],
			"stateMutability": "nonpayable",
			"type": "constructor"
		},
		{
			"inputs": [
				{
					"internalType": "uint256",
					"name": "value",
					"type": "uint256"
				},
				{
					"internalType": "uint256",
					"name": "length",
					"type": "uint256"
				}
			],
			"name": "StringsInsufficientHexLength",
			"type": "error"
		},
		{
			"anonymous": false,
			"inputs": [
				{
					"indexed": true,
					"internalType": "address",
					"name": "_owner",
					"type": "address"
				},
				{
					"indexed": true,
					"internalType": "address",
					"name": "_approved",
					"type": "address"
				},
				{
					"indexed": true,
					"internalType": "uint256",
					"name": "_tokenId",
					"type": "uint256"
				}
			],
			"name": "Approval",
			"type": "event"
		},
		{
			"anonymous": false,
			"inputs": [
				{
					"indexed": true,
					"internalType": "address",
					"name": "_owner",
					"type": "address"
				},
				{
					"indexed": true,
					"internalType": "address",
					"name": "_operator",
					"type": "address"
				},
				{
					"indexed": false,
					"internalType": "bool",
					"name": "_approved",
					"type": "bool"
				}
			],
			"name": "ApprovalForAll",
			"type": "event"
		},
		{
			"anonymous": false,
			"inputs": [
				{
					"indexed": true,
					"internalType": "uint256",
					"name": "_tokenId",
					"type": "uint256"
				},
				{
					"indexed": true,
					"internalType": "address",
					"name": "_operator",
					"type": "address"
				},
				{
					"indexed": false,
					"internalType": "uint256",
					"name": "_value",
					"type": "uint256"
				}
			],
			"name": "ApprovalValue",
			"type": "event"
		},
		{
			"anonymous": false,
			"inputs": [
				{
					"indexed": true,
					"internalType": "address",
					"name": "metadataDescriptor",
					"type": "address"
				}
			],
			"name": "SetMetadataDescriptor",
			"type": "event"
		},
		{
			"anonymous": false,
			"inputs": [
				{
					"indexed": true,
					"internalType": "uint256",
					"name": "_tokenId",
					"type": "uint256"
				},
				{
					"indexed": true,
					"internalType": "uint256",
					"name": "_oldSlot",
					"type": "uint256"
				},
				{
					"indexed": true,
					"internalType": "uint256",
					"name": "_newSlot",
					"type": "uint256"
				}
			],
			"name": "SlotChanged",
			"type": "event"
		},
		{
			"anonymous": false,
			"inputs": [
				{
					"indexed": true,
					"internalType": "address",
					"name": "_from",
					"type": "address"
				},
				{
					"indexed": true,
					"internalType": "address",
					"name": "_to",
					"type": "address"
				},
				{
					"indexed": true,
					"internalType": "uint256",
					"name": "_tokenId",
					"type": "uint256"
				}
			],
			"name": "Transfer",
			"type": "event"
		},
		{
			"anonymous": false,
			"inputs": [
				{
					"indexed": true,
					"internalType": "uint256",
					"name": "_fromTokenId",
					"type": "uint256"
				},
				{
					"indexed": true,
					"internalType": "uint256",
					"name": "_toTokenId",
					"type": "uint256"
				},
				{
					"indexed": false,
					"internalType": "uint256",
					"name": "_value",
					"type": "uint256"
				}
			],
			"name": "TransferValue",
			"type": "event"
		},
		{
			"inputs": [
				{
					"internalType": "uint256",
					"name": "tokenId_",
					"type": "uint256"
				},
				{
					"internalType": "address",
					"name": "operator_",
					"type": "address"
				}
			],
			"name": "allowance",
			"outputs": [
				{
					"internalType": "uint256",
					"name": "",
					"type": "uint256"
				}
			],
			"stateMutability": "view",
			"type": "function"
		},
		{
			"inputs": [
				{
					"internalType": "address",
					"name": "to_",
					"type": "address"
				},
				{
					"internalType": "uint256",
					"name": "tokenId_",
					"type": "uint256"
				}
			],
			"name": "approve",
			"outputs": [],
			"stateMutability": "payable",
			"type": "function"
		},
		{
			"inputs": [
				{
					"internalType": "uint256",
					"name": "tokenId_",
					"type": "uint256"
				},
				{
					"internalType": "address",
					"name": "to_",
					"type": "address"
				},
				{
					"internalType": "uint256",
					"name": "value_",
					"type": "uint256"
				}
			],
			"name": "approve",
			"outputs": [],
			"stateMutability": "payable",
			"type": "function"
		},
		{
			"inputs": [
				{
					"internalType": "address",
					"name": "owner_",
					"type": "address"
				}
			],
			"name": "balanceOf",
			"outputs": [
				{
					"internalType": "uint256",
					"name": "balance",
					"type": "uint256"
				}
			],
			"stateMutability": "view",
			"type": "function"
		},
		{
			"inputs": [
				{
					"internalType": "uint256",
					"name": "tokenId_",
					"type": "uint256"
				}
			],
			"name": "balanceOf",
			"outputs": [
				{
					"internalType": "uint256",
					"name": "",
					"type": "uint256"
				}
			],
			"stateMutability": "view",
			"type": "function"
		},
		{
			"inputs": [],
			"name": "contractURI",
			"outputs": [
				{
					"internalType": "string",
					"name": "",
					"type": "string"
				}
			],
			"stateMutability": "view",
			"type": "function"
		},
		{
			"inputs": [
				{
					"internalType": "uint256",
					"name": "tokenId_",
					"type": "uint256"
				}
			],
			"name": "getApproved",
			"outputs": [
				{
					"internalType": "address",
					"name": "",
					"type": "address"
				}
			],
			"stateMutability": "view",
			"type": "function"
		},
		{
			"inputs": [
				{
					"internalType": "address",
					"name": "owner_",
					"type": "address"
				},
				{
					"internalType": "address",
					"name": "operator_",
					"type": "address"
				}
			],
			"name": "isApprovedForAll",
			"outputs": [
				{
					"internalType": "bool",
					"name": "",
					"type": "bool"
				}
			],
			"stateMutability": "view",
			"type": "function"
		},
		{
			"inputs": [],
			"name": "metadataDescriptor",
			"outputs": [
				{
					"internalType": "contract IERC3525MetadataDescriptor",
					"name": "",
					"type": "address"
				}
			],
			"stateMutability": "view",
			"type": "function"
		},
		{
			"inputs": [
				{
					"internalType": "address",
					"name": "mintTo_",
					"type": "address"
				},
				{
					"internalType": "uint256",
					"name": "tokenId_",
					"type": "uint256"
				},
				{
					"internalType": "uint256",
					"name": "slot_",
					"type": "uint256"
				},
				{
					"internalType": "uint256",
					"name": "value_",
					"type": "uint256"
				}
			],
			"name": "mint",
			"outputs": [],
			"stateMutability": "nonpayable",
			"type": "function"
		},
		{
			"inputs": [
				{
					"internalType": "uint256",
					"name": "tokenId_",
					"type": "uint256"
				},
				{
					"internalType": "uint256",
					"name": "value_",
					"type": "uint256"
				}
			],
			"name": "mintValue",
			"outputs": [],
			"stateMutability": "nonpayable",
			"type": "function"
		},
		{
			"inputs": [],
			"name": "name",
			"outputs": [
				{
					"internalType": "string",
					"name": "",
					"type": "string"
				}
			],
			"stateMutability": "view",
			"type": "function"
		},
		{
			"inputs": [
				{
					"internalType": "uint256",
					"name": "tokenId_",
					"type": "uint256"
				}
			],
			"name": "ownerOf",
			"outputs": [
				{
					"internalType": "address",
					"name": "owner_",
					"type": "address"
				}
			],
			"stateMutability": "view",
			"type": "function"
		},
		{
			"inputs": [
				{
					"internalType": "address",
					"name": "from_",
					"type": "address"
				},
				{
					"internalType": "address",
					"name": "to_",
					"type": "address"
				},
				{
					"internalType": "uint256",
					"name": "tokenId_",
					"type": "uint256"
				}
			],
			"name": "safeTransferFrom",
			"outputs": [],
			"stateMutability": "payable",
			"type": "function"
		},
		{
			"inputs": [
				{
					"internalType": "address",
					"name": "from_",
					"type": "address"
				},
				{
					"internalType": "address",
					"name": "to_",
					"type": "address"
				},
				{
					"internalType": "uint256",
					"name": "tokenId_",
					"type": "uint256"
				},
				{
					"internalType": "bytes",
					"name": "data_",
					"type": "bytes"
				}
			],
			"name": "safeTransferFrom",
			"outputs": [],
			"stateMutability": "payable",
			"type": "function"
		},
		{
			"inputs": [
				{
					"internalType": "address",
					"name": "operator_",
					"type": "address"
				},
				{
					"internalType": "bool",
					"name": "approved_",
					"type": "bool"
				}
			],
			"name": "setApprovalForAll",
			"outputs": [],
			"stateMutability": "nonpayable",
			"type": "function"
		},
		{
			"inputs": [
				{
					"internalType": "uint256",
					"name": "tokenId_",
					"type": "uint256"
				}
			],
			"name": "slotOf",
			"outputs": [
				{
					"internalType": "uint256",
					"name": "",
					"type": "uint256"
				}
			],
			"stateMutability": "view",
			"type": "function"
		},
		{
			"inputs": [
				{
					"internalType": "uint256",
					"name": "slot_",
					"type": "uint256"
				}
			],
			"name": "slotURI",
			"outputs": [
				{
					"internalType": "string",
					"name": "",
					"type": "string"
				}
			],
			"stateMutability": "view",
			"type": "function"
		},
		{
			"inputs": [
				{
					"internalType": "bytes4",
					"name": "interfaceId",
					"type": "bytes4"
				}
			],
			"name": "supportsInterface",
			"outputs": [
				{
					"internalType": "bool",
					"name": "",
					"type": "bool"
				}
			],
			"stateMutability": "view",
			"type": "function"
		},
		{
			"inputs": [],
			"name": "symbol",
			"outputs": [
				{
					"internalType": "string",
					"name": "",
					"type": "string"
				}
			],
			"stateMutability": "view",
			"type": "function"
		},
		{
			"inputs": [
				{
					"internalType": "uint256",
					"name": "index_",
					"type": "uint256"
				}
			],
			"name": "tokenByIndex",
			"outputs": [
				{
					"internalType": "uint256",
					"name": "",
					"type": "uint256"
				}
			],
			"stateMutability": "view",
			"type": "function"
		},
		{
			"inputs": [
				{
					"internalType": "address",
					"name": "owner_",
					"type": "address"
				},
				{
					"internalType": "uint256",
					"name": "index_",
					"type": "uint256"
				}
			],
			"name": "tokenOfOwnerByIndex",
			"outputs": [
				{
					"internalType": "uint256",
					"name": "",
					"type": "uint256"
				}
			],
			"stateMutability": "view",
			"type": "function"
		},
		{
			"inputs": [
				{
					"internalType": "uint256",
					"name": "tokenId_",
					"type": "uint256"
				}
			],
			"name": "tokenURI",
			"outputs": [
				{
					"internalType": "string",
					"name": "",
					"type": "string"
				}
			],
			"stateMutability": "view",
			"type": "function"
		},
		{
			"inputs": [],
			"name": "totalSupply",
			"outputs": [
				{
					"internalType": "uint256",
					"name": "",
					"type": "uint256"
				}
			],
			"stateMutability": "view",
			"type": "function"
		},
		{
			"inputs": [
				{
					"internalType": "uint256",
					"name": "fromTokenId_",
					"type": "uint256"
				},
				{
					"internalType": "address",
					"name": "to_",
					"type": "address"
				},
				{
					"internalType": "uint256",
					"name": "value_",
					"type": "uint256"
				}
			],
			"name": "transferFrom",
			"outputs": [
				{
					"internalType": "uint256",
					"name": "newTokenId",
					"type": "uint256"
				}
			],
			"stateMutability": "payable",
			"type": "function"
		},
		{
			"inputs": [
				{
					"internalType": "address",
					"name": "from_",
					"type": "address"
				},
				{
					"internalType": "address",
					"name": "to_",
					"type": "address"
				},
				{
					"internalType": "uint256",
					"name": "tokenId_",
					"type": "uint256"
				}
			],
			"name": "transferFrom",
			"outputs": [],
			"stateMutability": "payable",
			"type": "function"
		},
		{
			"inputs": [
				{
					"internalType": "uint256",
					"name": "fromTokenId_",
					"type": "uint256"
				},
				{
					"internalType": "uint256",
					"name": "toTokenId_",
					"type": "uint256"
				},
				{
					"internalType": "uint256",
					"name": "value_",
					"type": "uint256"
				}
			],
			"name": "transferFrom",
			"outputs": [],
			"stateMutability": "payable",
			"type": "function"
		},
		{
			"inputs": [],
			"name": "valueDecimals",
			"outputs": [
				{
					"internalType": "uint8",
					"name": "",
					"type": "uint8"
				}
			],
			"stateMutability": "view",
			"type": "function"
		}
	]
}